:040000005FEF00F0BE
:100008005982FACF03F0FBCF04F0D9CF05F0DACF4D
:1000180006F0F2AA12EF00F014EF00F01FEF00F064
:10002800F2A419EF00F01BEF00F01FEF00F0C1EC95
:100038006AF055EF00F0F2AC24EF00F026EF00F084
:1000480055EF00F0A3AA2BEF00F02DEF00F043EFDF
:1000580000F0A4AA32EF00F034EF00F043EF00F014
:1000680002D841EF00F00500FA6E0201A451FD6EBE
:10007800A551FE6EFF6AFA50120055EF00F09DA0E0
:1000880048EF00F04AEF00F055EF00F09EA04FEF68
:1000980000F051EF00F055EF00F095EC6BF055EFE4
:1000A80000F006C0DAFF05C0D9FF04C0FBFF03C09B
:1000B800FAFF59921100ADEF5BF0000E0001E66FF8
:1000C80020EE2DF05550D9265650DA22DF50EA6F2F
:1000D80020EE2EF05550D9265650DA22DF50E96F1F
:1000E80055C0D9FF56C0DAFFDECF07F0DDCF08F0E4
:1000F80020EC6EF00009D8B484EF00F086EF00F031
:100108007BEF0DF0090E0001E96F77EC6FF07BEFE4
:100118000DF020EE02F05550D9265650DA2272C260
:10012800DEFF73C2DEFF74C2DEFF75C2DEFF20EEA3
:1001380006F05550D9265650DA22ECC1DEFFEDC143
:10014800DDFF20EE14F05550D9265650DA22DE6A2B
:10015800DE6ADE6ADD6A21EEF0F010EE08F0555036
:10016800E1265650E222DECFE6FFDECFE6FFDECF05
:10017800E6FFDECFE6FF20EE08F05550D9265650B0
:10018800DA22DECFD1F0DECFD2F0DECFD3F0DECF71
:10019800D4F0010ED125D56F000ED221D66F000EF6
:1001A800D321D76F000ED421D86F20EE0CF0555014
:1001B800D9265650DA22D5C0DEFFD6C0DEFFD7C01A
:1001C800DEFFD8C0DEFF0101FA510001D26FD16B0A
:1001D80021EEFAF0DECFD3F0DDCFD4F0D4C0D3F0E7
:1001E800D46BFF0ED317000ED417D151D313D251AD
:1001F800D41320EE18F05550D9265650DA22D3C021
:10020800DEFFD4C0DDFF20EE1CF05550D926565035
:10021800DA22EAC2DEFFEBC2DDFF20EE38F05550ED
:10022800D9265650DA22120EDF6E20EE33F05550E2
:10023800D9265650DA22020EDE6E000EDD6E20EE52
:1002480035F05550D9265650DA22020EDE6E000ED1
:10025800DD6E20EE37F05550D9265650DA22030EBF
:10026800DF6E55C084F056C085F03DEC2BF0030ED0
:100278000001EA6FBBEF0DF0000E0001EA6F55C0F8
:1002880007F056C008F0A2EC55F0BBEF0DF0E951AD
:10029800D16FD26BD251000AD8B455EF01F0BBEF41
:1002A8000DF0D151000AD8B440EF01F0030AD8B4D8
:1002B8008DEF00F0BBEF0DF0BBEF0DF021EEF0F08D
:1002C80010EE08F05550E1265650E222DECFE6FF48
:1002D800DECFE6FFDECFE6FFDECFE6FF010E01014F
:1002E800F0250001D16F000E0101F1210001D26F4C
:1002F800000E0101F2210001D36F000E0101F3216C
:100308000001D46F20EE0CF05550D9265650DA2251
:10031800D1C0DEFFD2C0DEFFD3C0DEFFD4C0DEFF17
:100328000101FA510001D26FD16B21EEFAF0DECF54
:10033800D3F0DDCFD4F0D4C0D3F0D46BFF0ED317F5
:10034800000ED417D151D313D251D41320EE18F084
:100358005550D9265650DA22D3C0DEFFD4C0DDFF6F
:1003680020EE1CF05550D9265650DA22EAC2DEFF9C
:10037800EBC2DDFF20EE33F05550D9265650DA2275
:10038800020EDE6E000EDD6E20EE35F05550D926D9
:100398005650DA22020EDE6E000EDD6E20EE37F0C9
:1003A8005550D9265650DA22030EDF6E20EE38F06B
:1003B8005550D9265650DA22120EDF6E35EF01F06D
:1003C80020EE33F05550D9265650DA22000EDE6E54
:1003D800000EDD6E20EE10F05550D9265650DA2268
:1003E800DECFD1F0DECFD2F0DECFD3F0DECFD4F047
:1003F800010ED125D56F000ED221D66F000ED32164
:10040800D76F000ED421D86F0101F4510001D5191E
:1004180013E10101F5510001D6190EE10101F65170
:100428000001D71909E10101F7510001D819D8A431
:1004380020EF02F022EF02F0CBEF02F020EE10F0F6
:100448005550D9265650DA22DECFD1F0DECFD2F081
:10045800DECFD3F0DECFD4F0010ED125D56F000E5C
:10046800D221D66F000ED321D76F000ED421D86FBA
:1004780020EE10F05550D9265650DA22D5C0DEFFAE
:10048800D6C0DEFFD7C0DEFFD8C0DEFF20EE38F0D2
:100498005550D9265650DA22100EDF6E21EEF0F0B4
:1004A80010EE08F05550E1265650E222DECFE6FF66
:1004B800DECFE6FFDECFE6FFDECFE6FF010E01016D
:1004C800F0250001D16F000E0101F1210001D26F6A
:1004D800000E0101F2210001D36F000E0101F3218A
:1004E8000001D46F20EE0CF05550D9265650DA2270
:1004F800D1C0DEFFD2C0DEFFD3C0DEFFD4C0DEFF36
:100508000101FA510001D26FD16B21EEFAF0DECF72
:10051800D3F0DDCFD4F0D4C0D3F0D46BFF0ED31713
:10052800000ED417D151D313D251D41320EE18F0A2
:100538005550D9265650DA22D3C0DEFFD4C0DDFF8D
:1005480020EE1CF05550D9265650DA22EAC2DEFFBA
:10055800EBC2DDFF010ED96F55C084F056C085F09F
:100568003DEC2BF00001D919D8A4BDEF02F0BFEF84
:1005780002F0BBEF0DF0040EEA6F20EE39F0555093
:10058800D9265650DA22030EDF6EBBEF0DF021EEAE
:10059800F4F010EE10F05550E1265650E222DECF6E
:1005A800E6FFDECFE6FFDECFE6FFDECFE6FF20EE9A
:1005B80038F05550D9265650DA22140EDF6E010E47
:1005C800DA6F55C084F056C085F03DEC2BF0000181
:1005D800DA19D8A4F2EF02F0F4EF02F0BBEF0DF055
:1005E80040EF01F020EE33F05550D9265650DA226C
:1005F800000EDE6E000EDD6E20EE10F05550D9268E
:100608005650DA22DECFD1F0DECFD2F0DECFD3F0F3
:10061800DECFD4F0010ED125D56F000ED221D66FD2
:10062800000ED321D76F000ED421D86F0101F451E9
:100638000001D51913E10101F5510001D6190EE1A8
:100648000101F6510001D71909E10101F751000133
:10065800D819D8A432EF03F034EF03F0CCEF03F04D
:1006680020EE10F05550D9265650DA22DECFD1F0C0
:10067800DECFD2F0DECFD3F0DECFD4F0010ED1251D
:10068800D56F000ED221D66F000ED321D76F000E82
:10069800D421D86F20EE10F05550D9265650DA22C2
:1006A800D5C0DEFFD6C0DEFFD7C0DEFFD8C0DEFF74
:1006B80020EE38F05550D9265650DA22100EDF6E4B
:1006C80021EEF0F010EE08F05550E1265650E222E7
:1006D800DECFE6FFDECFE6FFDECFE6FFDECFE6FFCA
:1006E800010E0101F0250001D16F000E0101F12179
:1006F8000001D26F000E0101F2210001D36F000E3C
:100708000101F3210001D46F20EE0CF05550D926D9
:100718005650DA22D1C0DEFFD2C0DEFFD3C0DEFFE2
:10072800D4C0DEFF0101FA510001D26FD16B21EE76
:10073800FAF0DECFD3F0DDCFD4F0D4C0D3F0D46B51
:10074800FF0ED317000ED417D151D313D251D4139F
:1007580020EE18F05550D9265650DA22D3C0DEFFC5
:10076800D4C0DDFF20EE1CF05550D9265650DA22B1
:10077800EAC2DEFFEBC2DDFF040EEA6F20EE39F0BD
:100788005550D9265650DA22030EDF6EBBEF0DF016
:1007980021EEF4F010EE10F05550E1265650E2220A
:1007A800DECFE6FFDECFE6FFDECFE6FFDECFE6FFF9
:1007B80020EE38F05550D9265650DA22040EDF6E56
:1007C800010EDB6F55C084F056C085F03DEC2BF070
:1007D8000001DB19D8A4F3EF03F0F5EF03F0BBEF4A
:1007E8000DF040EF01F020EE37F05550D926565065
:1007F800DA22DF50D8B403EF04F005EF04F03EEF3F
:1008080004F0010EDC6F55C084F056C085F03DEC55
:100818002BF00001DC19D8A414EF04F016EF04F053
:10082800BBEF0DF020EE38F05550D9265650DA229D
:10083800DFA421EF04F023EF04F025EF04F040EFEC
:1008480001F020EE38F05550D9265650DA22DFA8AC
:1008580030EF04F032EF04F060EF01F0040EEA6FBD
:1008680020EE39F05550D9265650DA22030EDF6EA5
:10087800BBEF0DF020EE38F05550D9265650DA224D
:10088800040EDF6E010EDD6F55C084F056C085F092
:100898003DEC2BF00001DD19D8A455EF04F057EF1B
:1008A80004F0BBEF0DF040EF01F0E951D16FD26BCE
:1008B800D251000AD8B463EF04F0BBEF0DF0D15168
:1008C800000AD8B440EF01F0030AD8B462EF01F08F
:1008D800070AD8B4F6EF02F0010AD8B4E4EF01F041
:1008E8000C0AD8B440EF01F0030AD8B440EF01F085
:1008F800060AD8B4F7EF03F0BBEF0DF055C0D9FFE7
:1009080056C0DAFF0101EE51DE1807E1EF51DE189B
:10091800D8A491EF04F093EF04F0BBEF0DF020EEB4
:1009280033F05550D9265650DA22000EDE6E000EEE
:10093800DD6E20EE02F05550D9265650DA2202011B
:100948007251DE180DE17351DE180AE17451DE1898
:1009580007E17551DE18D8A4B4EF04F0B6EF04F03F
:1009680000EF05F020EE06F05550D9265650DA2251
:100978000101EC51DE1807E1ED51DE18D8A4C7EFEC
:1009880004F0C9EF04F000EF05F020EE10F0555028
:10099800D9265650DA22DECFD1F0DECFD2F0DECF24
:1009A800D3F0DECFD4F0010E0001D125D56F000EB3
:1009B800D221D66F000ED321D76F000ED421D86F65
:1009C8000101F4510001D51913E10101F5510001AC
:1009D800D6190EE10101F6510001D71909E101010B
:1009E800F7510001D819D8A4FCEF04F0FEEF04F089
:1009F80000EF05F0040EEA6F20EE39F05550D926C5
:100A08005650DA22030EDF6EBBEF0DF020EE02F037
:100A18005550D9265650DA2202017251DE180DE1DE
:100A28007351DE180AE17451DE1807E17551DE18BA
:100A3800D8A421EF05F023EF05F0BBEF0DF020EE71
:100A480006F05550D9265650DA220101EC51DE182D
:100A580007E1ED51DE18D8A434EF05F036EF05F0C4
:100A6800BBEF0DF020EE0CF05550D9265650DA2287
:100A7800F051DE180DE1F151DE180AE1F251DE18ED
:100A880007E1F351DE18D8A44CEF05F04EEF05F05E
:100A9800BBEF0DF020EE10F05550D9265650DA2253
:100AA800DECFD1F0DECFD2F0DECFD3F0DECFD4F080
:100AB800010E0001D125D56F000ED221D66F000E90
:100AC800D321D76F000ED421D86F0101F451000152
:100AD800D51913E10101F5510001D6190EE1010103
:100AE800F6510001D71909E10101F7510001D819A0
:100AF800D8A481EF05F083EF05F0BBEF0DF020EEF1
:100B080010F05550D9265650DA22DECFD1F0DECF7C
:100B1800D2F0DECFD3F0DECFD4F0010ED125D56FE1
:100B2800000ED221D66F000ED321D76F000ED4212C
:100B3800D86F20EE10F05550D9265650DA22D5C07D
:100B4800DEFFD6C0DEFFD7C0DEFFD8C0DEFF20EE56
:100B580033F05550D9265650DA22000EDE6E000EBC
:100B6800DD6E040EEA6F20EE39F05550D926565046
:100B7800DA22030EDF6EBBEF0DF020EE33F0555096
:100B8800D9265650DA22000EDE6E000EDD6E20EEFB
:100B980038F05550D9265650DA22010EDF6E20EE75
:100BA80033F05550D9265650DA22020EDE6E000E6A
:100BB800DD6E20EE35F05550D9265650DA22020E59
:100BC800DE6E000EDD6E20EE37F05550D9265650F9
:100BD800DA22050EDF6E050EEA6F55C084F056C0A6
:100BE80085F03DEC2BF0BBEF0DF055C0D9FF56C09A
:100BF800DAFF0101EE51DE1807E1EF51DE18D8A443
:100C080008EF06F00AEF06F0BBEF0DF020EE0CF04F
:100C18005550D9265650DA22F051DE180DE1F1511F
:100C2800DE180AE1F251DE1807E1F351DE18D8A404
:100C380020EF06F022EF06F0BBEF0DF020EE02F0F9
:100C48005550D9265650DA22DE6ADE6ADE6ADD6A37
:100C580020EE06F05550D9265650DA22000EDE6EE8
:100C6800000EDD6E20EE10F05550D9265650DA22CF
:100C7800DE6ADE6ADE6ADD6A20EE14F05550D92697
:100C88005650DA22DE6ADE6ADE6ADD6A20EE08F095
:100C98005550D9265650DA22DE6ADE6ADE6ADD6AE7
:100CA80020EE0CF05550D9265650DA22DE6ADE6A5C
:100CB800DE6ADD6A20EE18F05550D9265650DA2241
:100CC800000EDE6E000EDD6E20EE1CF05550D926AB
:100CD8005650DA22B40EDE6E050EDD6E010E0001EE
:100CE800EA6FBBEF0DF020EE37F05550D92656507D
:100CF800DA22DF50D8B483EF06F085EF06F087EFED
:100D080006F0F1EF05F020EE38F05550D926565090
:100D1800DA22040EDF6E010EDE6F55C084F056C075
:100D280085F03DEC2BF00001DE19D8A49EEF06F00B
:100D3800A0EF06F0BBEF0DF020EE02F05550D926DB
:100D48005650DA22DE6ADE6ADE6ADD6A20EE06F0D6
:100D58005550D9265650DA22000EDE6E000EDD6E92
:100D680020EE10F05550D9265650DA22DE6ADE6A97
:100D7800DE6ADD6A20EE14F05550D9265650DA2284
:100D8800DE6ADE6ADE6ADD6A20EE08F05550D92692
:100D98005650DA22DE6ADE6ADE6ADD6A20EE0CF080
:100DA8005550D9265650DA22DE6ADE6ADE6ADD6AD6
:100DB80020EE18F05550D9265650DA22000EDE6E75
:100DC800000EDD6E20EE1CF05550D9265650DA2262
:100DD800B40EDE6E050EDD6E72EF06F0E951D16FCE
:100DE800D26BD251000AD8B4FCEF06F0BBEF0DF07D
:100DF800D151000AD8B4C1EF05F0040AD8B40AEFFB
:100E080005F0010AD8B482EF04F00C0AD8B4F9EF5F
:100E180005F0030AD8B4F9EF05F0060AD8B477EF5D
:100E280006F0BBEF0DF020EE02F05550D9265650D3
:100E3800DA2202017251DE180DE17351DE180AE15F
:100E48007451DE1807E17551DE18D8A42EEF07F0AB
:100E580030EF07F0BBEF0DF020EE0CF05550D9261F
:100E68005650DA220101F051DE180DE1F151DE1879
:100E78000AE1F251DE1807E1F351DE18D8A447EF72
:100E880007F049EF07F0BBEF0DF020EE14F05550D6
:100E9800D9265650DA22F451DE5CF551DE58F65167
:100EA800DE58F751DE58D8B05CEF07F05EEF07F078
:100EB800BBEF0DF020EE10F05550D9265650DA222F
:100EC800DECFD1F0DECFD2F0DECFD3F0DECFD4F05C
:100ED800010E0001D125D56F000ED221D66F000E6C
:100EE800D321D76F000ED421D86F0101F45100012E
:100EF800D55D0101F5510001D6590101F6510001F6
:100F0800D7590101F7510001D859D8A08EEF07F041
:100F180090EF07F060EF01F020EE10F05550D92661
:100F28005650DA22DECFD1F0DDCFD2F00101F451F4
:100F38000001D15DE76F0101F5510001D259E86F59
:100F480020EE25F05550D9265650DA22DECFD1F0C2
:100F5800DDCFD2F0E751D15FE851D25B20EE25F02A
:100F68005550D9265650DA22D1C0DEFFD2C0DDFF57
:100F780020EE27F05550D9265650DA22DECFD1F090
:100F8800DDCFD2F0E751D127E851D22320EE27F068
:100F98005550D9265650DA22D1C0DEFFD2C0DDFF27
:100FA80021EEF4F0FF0EDE24D16FFF0EDE20D26FAB
:100FB800FF0EDE20D36FFF0EDE20D46F20EE14F07C
:100FC8005550D9265650DA22D1C0DEFFD2C0DEFFF6
:100FD800D3C0DEFFD4C0DEFF21EEF4F010EE10F037
:100FE8005550E1265650E222DECFE6FFDECFE6FF7F
:100FF800DECFE6FFDECFE6FF0201A851A911D8A493
:1010080008EF08F00AEF08F018EF08F020EE10F0EB
:101018005550D9265650DA22DECF6EF2DECF6FF267
:10102800DECF70F2DECF71F220EE27F05550D926D0
:101038005650DA22DE50DE10D8A425EF08F027EF4C
:1010480008F04AEF08F020EE29F05550D9265650FE
:10105800DA22020EDE18D8A434EF08F036EF08F0D2
:10106800C7EF08F020EE29F05550D9265650DA225D
:10107800000EDF6E20EE33F05550D9265650DA2296
:10108800000EDE6E000EDD6EC7EF08F0A851A91144
:10109800D8B451EF08F053EF08F077EF08F020EEDE
:1010A80025F05550D9265650DA22A6C2DEFFA7C22F
:1010B800DDFF20EE2AF05550D9265650DA22A8C274
:1010C800DEFFA9C2DDFF20EE10F05550D92656509C
:1010D800DA226EC2DEFF6FC2DEFF70C2DEFF71C2AF
:1010E800DEFF87EF08F020EE27F05550D92656503E
:1010F800DA2210EE2AF05550E1265650E222DECFD1
:10110800E6FFDDCFE5FF20EE35F05550D9265650E5
:10111800DA22020EDE6E000EDD6E20EE37F055503C
:10112800D9265650DA22050EDF6E55C084F056C017
:1011380085F03DEC2BF00201A851A911D8B4A7EF16
:1011480008F0A9EF08F0C7EF08F06A510101F41997
:1011580015E102016B510101F51910E102016C5111
:101168000101F6190BE102016D510101F719D8B41B
:10117800C0EF08F0C2EF08F0C7EF08F0000E020158
:10118800A96F000EA86F0201AA51AB11D8B4CFEF16
:1011980008F0D1EF08F060EF01F021EEF0F010EE6A
:1011A80008F05550E1265650E222DECFE6FFDECFAA
:1011B800E6FFDECFE6FFDECFE6FFAAC2C5F0ABC290
:1011C800C6F07CEC50F0BBEF0DF020EE38F0555037
:1011D800D9265650DA22110EDF6E050EEA6F20EE80
:1011E80033F05550D9265650DA22000EDE6E000E26
:1011F800DD6E20EE33F05550D9265650DA22020E15
:10120800DE6E000EDD6E20EE35F05550D9265650B4
:10121800DA22020EDE6E000EDD6E20EE37F055503B
:10122800D9265650DA22050EDF6EF1EF05F020EED2
:1012380002F05550D9265650DA2202017251DE18B2
:101248000DE17351DE180AE17451DE1807E175519A
:10125800DE18D8A432EF09F034EF09F0BBEF0DF037
:1012680020EE0CF05550D9265650DA220101F051E3
:10127800DE180DE1F151DE180AE1F251DE1807E13E
:10128800F351DE18D8A44BEF09F04DEF09F0BBEF8E
:101298000DF020EE2AF05550D9265650DA22000ECD
:1012A800DE6E000EDD6E21EEF4F010EE10F05550FB
:1012B800E1265650E222DECFE6FFDECFE6FFDECFA4
:1012C800E6FFDECFE6FF20EE0CF05550D92656504B
:1012D800DA22DECFD1F0DECFD2F0DECFD3F0DECF10
:1012E800D4F0010E0001D125D56F000ED221D66FA2
:1012F800000ED321D76F000ED421D86F20EE0CF04A
:101308005550D9265650DA22D5C0DEFFD6C0DEFFAA
:10131800D7C0DEFFD8C0DEFF0201AA51AB11D8B496
:1013280098EF09F09AEF09F0B0EF09F021EEF0F02C
:1013380010EE08F05550E1265650E222DECFE6FFC7
:10134800DECFE6FFDECFE6FFDECFE6FFAAC2C5F0BE
:10135800ABC2C6F07CEC50F020EE39F05550D926DF
:101368005650DA22040EDF6E20EE33F05550D9269F
:101378005650DA22020EDE6E000EDD6E20EE35F0DB
:101388005550D9265650DA22020EDE6E000EDD6E5A
:1013980020EE37F05550D9265650DA22050EDF6E6A
:1013A80020EE38F05550D9265650DA22110EDF6E4D
:1013B800090E0001EA6FF1EF05F020EE38F0555004
:1013C800D9265650DA22040EDF6E55C084F056C076
:1013D80085F03DEC2BF040EF01F020EE37F0555052
:1013E800D9265650DA22DF50D8B4FDEF09F0FFEFC6
:1013F80009F003EF0AF00FEC66F0BBEF0DF020EEFA
:1014080038F05550D9265650DA22040EDF6E010EF8
:10141800DF6F55C084F056C085F03DEC2BF000011D
:10142800DF19D8A41AEF0AF01CEF0AF0BBEF0DF091
:1014380040EF01F0E951D16FD26BD251000AD8B414
:1014480028EF0AF0BBEF0DF0D151000AD8B4E9EF4C
:1014580008F0040AD8B417EF07F0020AD8B4BBEFB3
:101468000DF0010AD8B41BEF09F00E0AD8B4E1EF69
:1014780009F0030AD8B4E1EF09F0060AD8B4F1EF8D
:1014880009F0BBEF0DF020EE38F05550D926565034
:10149800DA22100EDF6E20EE0CF05550D926565089
:1014A800DA220101F051DE180DE1F151DE180AE1EE
:1014B800F251DE1807E1F351DE18D8A466EF0AF0FE
:1014C80068EF0AF0BBEF0DF020EE2AF05550D92650
:1014D8005650DA22000EDE6E000EDD6E20EE10F0A1
:1014E8005550D9265650DA22DECFD1F0DECFD2F0D1
:1014F800DECFD3F0DECFD4F0010E0001D125D56FB9
:10150800000ED221D66F000ED321D76F000ED42142
:10151800D86F20EE10F05550D9265650DA22D5C093
:10152800DEFFD6C0DEFFD7C0DEFFD8C0DEFF20EE6C
:101538000CF05550D9265650DA22DECFD1F0DECF46
:10154800D2F0DECFD3F0DECFD4F0010ED125D56FA7
:10155800000ED221D66F000ED321D76F000ED421F2
:10156800D86F20EE0CF05550D9265650DA22D5C047
:10157800DEFFD6C0DEFFD7C0DEFFD8C0DEFF010E1B
:10158800E06F55C084F056C085F03DEC2BF00001AB
:10159800E019D8A4D2EF0AF0D4EF0AF0BBEF0DF0AF
:1015A800080EEA6FBBEF0DF020EE33F05550D92648
:1015B8005650DA22020EDE6E000EDD6E20EE37F097
:1015C8005550D9265650DA22010EDF6E060EEA6F04
:1015D800BBEF0DF020EE38F05550D9265650DA22E0
:1015E800100EDF6E20EE0CF05550D9265650DA2238
:1015F8000101F051DE180DE1F151DE180AE1F25156
:10160800DE1807E1F351DE18D8A40DEF0BF00FEF49
:101618000BF0BBEF0DF020EE2AF05550D9265650AE
:10162800DA22000EDE6E000EDD6E20EE10F0555050
:10163800D9265650DA22DECFD1F0DECFD2F0DECF77
:10164800D3F0DECFD4F0010E0001D125D56F000E06
:10165800D221D66F000ED321D76F000ED421D86FB8
:1016680020EE10F05550D9265650DA22D5C0DEFFAC
:10167800D6C0DEFFD7C0DEFFD8C0DEFF20EE0CF0FC
:101688005550D9265650DA22DECFD1F0DECFD2F02F
:10169800DECFD3F0DECFD4F0010ED125D56F000E0A
:1016A800D221D66F000ED321D76F000ED421D86F68
:1016B80020EE0CF05550D9265650DA22D5C0DEFF60
:1016C800D6C0DEFFD7C0DEFFD8C0DEFF010EE16F57
:1016D80055C084F056C085F03DEC2BF00001E119AF
:1016E800D8A479EF0BF07BEF0BF0BBEF0DF00A0EEF
:1016F800EA6FBBEF0DF020EE37F05550D926565063
:10170800DA22DF50D8B48BEF0BF08DEF0BF08FEFB0
:101718000BF0F1EF05F020EE38F05550D926565071
:10172800DA22040EDF6E010EE26F55C084F056C057
:1017380085F03DEC2BF00001E219D8A4A6EF0BF0E0
:10174800A8EF0BF0BBEF0DF040EF01F0E951D16FBE
:10175800D26BD251000AD8B4B4EF0BF0BBEF0DF046
:10176800D151040AD8B4D8EF0AF0020AD8B447EF26
:101778000AF0010AD8B4EEEF0AF00B0AD8B47FEFEA
:101788000BF0BBEF0DF020EE38F05550D92656502F
:10179800DA22100EDF6E20EE0CF05550D926565086
:1017A800DA220101F051DE180DE1F151DE180AE1EB
:1017B800F251DE1807E1F351DE18D8A4E6EF0BF07A
:1017C800E8EF0BF0BBEF0DF020EE2AF05550D926CC
:1017D8005650DA22000EDE6E000EDD6E20EE10F09E
:1017E8005550D9265650DA22DECFD1F0DECFD2F0CE
:1017F800DECFD3F0DECFD4F0010E0001D125D56FB6
:10180800000ED221D66F000ED321D76F000ED4213F
:10181800D86F20EE10F05550D9265650DA22D5C090
:10182800DEFFD6C0DEFFD7C0DEFFD8C0DEFF20EE69
:101838000CF05550D9265650DA22DECFD1F0DECF43
:10184800D2F0DECFD3F0DECFD4F0010ED125D56FA4
:10185800000ED221D66F000ED321D76F000ED421EF
:10186800D86F20EE0CF05550D9265650DA22D5C044
:10187800DEFFD6C0DEFFD7C0DEFFD8C0DEFF010E18
:10188800E36F55C084F056C085F03DEC2BF00001A5
:10189800E319D8A452EF0CF054EF0CF0BBEF0DF0A5
:1018A8007BEF0BF020EE37F05550D9265650DA2250
:1018B800DF50D8B462EF0CF064EF0CF066EF0CF078
:1018C800F1EF05F020EE38F05550D9265650DA22BF
:1018D800040EDF6E010EE46F55C084F056C085F02B
:1018E8003DEC2BF00001E419D8A47DEF0CF07FEF5C
:1018F8000CF0BBEF0DF040EF01F0E951D16FD26B66
:10190800D251000AD8B48BEF0CF0BBEF0DF0D151D7
:10191800060AD8B4C7EF0BF0010AD8B4C7EF0BF02A
:101928000B0AD8B456EF0CF0BBEF0DF0E951D16FAC
:10193800D26BD251000AD8B4A4EF0CF0BBEF0DF073
:10194800D151040AD8B47BEF0BF0BBEF0DF020EEB9
:1019580002F05550D9265650DA2202017251DE188B
:101968000DE17351DE180AE17451DE1807E1755173
:10197800DE18D8A4C2EF0CF0C4EF0CF0BBEF0DF0EA
:1019880020EE06F05550D9265650DA220101EC51C6
:10199800DE1807E1ED51DE18D8A4D5EF0CF0D7EF2B
:1019A8000CF0BBEF0DF040EF01F020EE37F0555092
:1019B800D9265650DA22DF50D8B4E5EF0CF0E7EF1D
:1019C8000CF0E9EF0CF0F1EF05F020EE38F055508F
:1019D800D9265650DA22040EDF6E010EE56F55C087
:1019E80084F056C085F03DEC2BF00001E519D8A431
:1019F80000EF0DF002EF0DF0BBEF0DF040EF01F03E
:101A0800E951D16FD26BD251000AD8B40EEF0DF064
:101A1800BBEF0DF0D151040AD8B4ABEF0CF0030AB8
:101A2800D8B4ABEF0CF00B0AD8B4D9EF0CF0BBEF7D
:101A38000DF020EE33F05550D9265650DA22020E1A
:101A4800DE6E000EDD6E20EE35F05550D92656506C
:101A5800DA22020EDE6E000EDD6E20EE37F05550F3
:101A6800D9265650DA22030EDF6E20EE38F0555094
:101A7800D9265650DA22020EDF6E55C084F056C0C1
:101A880085F03DEC2BF0020E0001EA6F010EE66FC7
:101A9800BBEF0DF020EE02F05550D9265650DA2251
:101AA800DE6ADE6ADE6ADD6A20EE06F05550D92667
:101AB8005650DA22000EDE6E000EDD6E010EEA6F61
:101AC8004AEF0DF0E951D16FD26BD251000AD8B468
:101AD80070EF0DF0BBEF0DF0D151010AD8B41DEF36
:101AE8000DF0030AD8B44EEF0DF0BBEF0DF020EE69
:101AF8002DF05550D9265650DA22DF500001D16F0B
:101B0800D26BD251000AD8B48CEF0DF0BBEF0DF0B8
:101B1800D151000AD8B466EF0DF0010AD8B44BEFE2
:101B280001F0030AD8B459EF04F0010AD8B4F2EF6F
:101B380006F0070AD8B41EEF0AF0010AD8B4AAEFD3
:101B48000BF0030AD8B481EF0CF0010AD8B4BBEF4C
:101B58000DF00F0AD8B49AEF0CF0010AD8B404EFCC
:101B68000DF0030AD8B440EF01F0BBEF0DF020EE02
:101B78002EF05550D9265650DA220D0EDF6E20EE83
:101B88002DF05550D9265650DA22EAC0DFFF000161
:101B9800E65112004BC0D9FF4CC0DAFFDECFF6FF8A
:101BA800DDCFF7FFF86A0800F550250AD8A4DFEF63
:101BB8000DF0E1EF0DF0EDEF16F04BC0D9FF4CC082
:101BC800DAFFDE2A000EDD22000E0101D86F000EBA
:101BD800D76FD7C153F0D8C154F0D969DA69000E6C
:101BE8000001AF6F000EAE6F41EF0EF053804BC097
:101BF800D9FF4CC0DAFFDE2A000EDD2241EF0EF0DD
:101C08005382FBEF0DF05384FBEF0DF05386FBEF8F
:101C18000DF05388FBEF0DF0000EAF6F010EAE6FA5
:101C280041EF0EF04BC0D9FF4CC0DAFFDECFF6FF14
:101C3800DDCFF7FFF86A0800F5509E6F9F6B9F5144
:101C4800000AD8B42AEF0EF010EF0EF09E51200AC9
:101C5800D8B40AEF0EF0030AD8B40DEF0EF0080A54
:101C6800D8B407EF0EF0060AD8B4FAEF0DF01D0A43
:101C7800D8B404EF0EF010EF0EF0AE51AF11D8B497
:101C880048EF0EF04AEF0EF016EF0EF053A04FEFAC
:101C98000EF051EF0EF052EF0EF053924BC0D9FFF9
:101CA8004CC0DAFFDECFF6FFDDCFF7FFF86A080099
:101CB800F5502A0AD8A463EF0EF065EF0EF08FEF07
:101CC8000EF04BC0D9FF4CC0DAFFDE2A000EDD2231
:101CD8004DC0D9FF4EC0DAFFDFCF9EF0020EDE26E0
:101CE800DFCF9FF0000EDD229EC0D9FF9FC0DAFF34
:101CF800DECFD7F1DDCFD8F10101D8BF88EF0EF0E4
:101D080086EF0EF0D4EF0EF05380D76DD81FD8B001
:101D1800D82BD4EF0EF04BC0D9FF4CC0DAFFDECF82
:101D28000EF0DDCF0FF076EC4DF00EC0D7F10FC0FE
:101D3800D8F1A6EF0EF04BC0D9FF4CC0DAFFDE2A6F
:101D4800000EDD22D00E00019E6FFF0E9F6F4BC06C
:101D5800D9FF4CC0DAFFDECFF6FFDDCFF7FFF86A18
:101D68000800F550A06FA16B9E51A0279F51A12399
:101D7800A1510AE10A0EA05DD8A0C5EF0EF0C8EF88
:101D88000EF0010EC9EF0EF0000EB06FB16BB0513E
:101D9800B111D8A4D2EF0EF0D4EF0EF09FEF0EF0F1
:101DA8004BC0D9FF4CC0DAFFDECFF6FFDDCFF7FF1F
:101DB800F86A0800F5502E0AD8A4E5EF0EF0E7EF10
:101DC8000EF068EF0FF0000E0101DA6F000ED96F08
:101DD8004BC0D9FF4CC0DAFFDE2A000EDD224BC013
:101DE800D9FF4CC0DAFFDECFF6FFDDCFF7FFF86A88
:101DF8000800F5502A0AD8A404EF0FF006EF0FF0F8
:101E080023EF0FF04BC0D9FF4CC0DAFFDE2A000EDB
:101E1800DD224DC0D9FF4EC0DAFFDFCF9EF0020EA3
:101E2800DE26DFCF9FF0000EDD229EC0D9FF9FC0C7
:101E3800DAFFDECFD9F1DDCFDAF168EF0FF04BC072
:101E4800D9FF4CC0DAFFDECF0EF0DDCF0FF076EC15
:101E58004DF00EC0D9F10FC0DAF13AEF0FF04BC0D8
:101E6800D9FF4CC0DAFFDE2A000EDD22D00E0001B9
:101E78009E6FFF0E9F6F4BC0D9FF4CC0DAFFDECFBD
:101E8800F6FFDDCFF7FFF86A0800F550A06FA16BE9
:101E98009E51A0279F51A123A1510AE10A0EA05DDE
:101EA800D8A059EF0FF05CEF0FF0010E5DEF0FF0C7
:101EB800000EB26FB36BB251B311D8A466EF0FF036
:101EC80068EF0FF033EF0FF04BC0D9FF4CC0DAFFCB
:101ED800DECFF6FFDDCFF7FFF86A0800F5500D6E8C
:101EE8000E6A40EC67F00D500001C66FC651D8B4B9
:101EF80080EF0FF082EF0FF0BEEF0FF04BC0D9FF6D
:101F08004CC0DAFFDECF9EF0DDCF9FF0010E9E279A
:101F1800000E9F239EC0F6FF9FC0F7FFF86A0800D7
:101F2800F5500D6E0E6A40EC67F00D500001C76F5A
:101F3800C751D8B4A2EF0FF0A4EF0FF0BEEF0FF027
:101F48004BC0D9FF4CC0DAFFDECF9EF0DDCF9FF04B
:101F5800020E9E27000E9F239EC0F6FF9FC0F7FF2C
:101F6800F86A0800F5500D6E0E6A40EC67F00D50E7
:101F78000001C86F610EC619D8A4C5EF0FF0C7EFEE
:101F88000FF008EF10F04BC0D9FF4CC0DAFFDECFDE
:101F9800F6FFDDCFF7FFF86A0800F5CFD5F04BC0A4
:101FA800D9FF4CC0DAFFDE2A000EDD224DC0D9FF72
:101FB8004EC0DAFFDFCF9EF0040EDE26DFCF9FF0A3
:101FC800000EDD229EC0D9FF9FC0DAFFDECFD1F020
:101FD800DECFD2F0DECFD3F0DECFD4F049C03AF076
:101FE8004AC03BF0D1C03CF0D2C03DF0D3C03EF077
:101FF800D4C03FF0D5C040F03BEC1DF03AC049F0EA
:102008003BC04AF009EF17F0C60E076E000E086EC7
:10201800DE0E096EFF0E0A6E000E0C6E020E0B6EBF
:1020280034EC51F007500810D8A41DEF10F01FEF42
:1020380010F09DEF10F04BC0D9FF4CC0DAFFDECF97
:102048009EF0DDCF9FF0010E00019E27000E9F231A
:102058009EC0F6FF9FC0F7FFF86A0800F5CFD5F0DD
:10206800BF0E9E6FFF0E9F6F4BC0D9FF4CC0DAFFAB
:10207800DECFF6FFDDCFF7FFF86A0800F550A06F56
:10208800A16B9E51A0279F51A123A1510AE11A0ECD
:10209800A05DD8A052EF10F055EF10F0010E56EFEA
:1020A80010F0000EB46FB56BB451B511D8B45FEF32
:1020B80010F061EF10F07BEF10F04DC0D9FF4EC06B
:1020C800DAFFDFCF9EF0040EDE26DFCF9FF0000E92
:1020D800DD229EC0D9FF9FC0DAFFDECFD1F0DECF70
:1020E800D2F0DECFD3F0DECFD4F093EF10F04DC0B6
:1020F800D9FF4EC0DAFFDFCF9EF0040EDE26DFCF19
:102108009FF0000EDD229EC0D9FF9FC0DAFFDECF10
:10211800D1F0DECFD2F0DECFD3F0DECFD4F0020E96
:102128004BC0D9FF4CC0DAFFDE26000EDD22F2EFED
:102138000FF04BC0D9FF4CC0DAFFDECFF6FFDDCF82
:10214800F7FFF86A0800F550640AD8B4AEEF10F04B
:10215800B0EF10F0C3EF10F04BC0D9FF4CC0DAFF5E
:10216800DECFF6FFDDCFF7FFF86A0800F550690A01
:10217800D8A4C1EF10F0C3EF10F004EF11F04BC07A
:10218800D9FF4CC0DAFFDE2A000EDD224DC0D9FF90
:102198004EC0DAFFDFCF9EF0020EDE26DFCF9FF0C3
:1021A800000EDD229EC0D9FF9FC0DAFFDECFBCF053
:1021B800DDCFBDF00001000EBDBFFF0EBE6FBF6FCB
:1021C800C06FC16FC26FC36F49C022F04AC023F00D
:1021D800BCC024F0BDC025F0BEC026F0BFC027F0AB
:1021E800C0C028F0C1C029F0C2C02AF0C3C02BF07B
:1021F80027EC3DF022C049F023C04AF009EF17F060
:102208004BC0D9FF4CC0DAFFDECF07F0DDCF08F0B6
:10221800E10E096EFF0E0A6E000E0C6E020E0B6EBA
:1022280034EC51F007500810D8B41DEF11F01FEF2F
:1022380011F03AEF11F04BC0D9FF4CC0DAFFDECFF6
:1022480007F0DDCF08F0ED0E096EFF0E0A6E000EE6
:102258000C6E020E0B6E34EC51F007500810D8A427
:1022680038EF11F03AEF11F07EEF11F0020E4BC08B
:10227800D9FF4CC0DAFFDE26000EDD224DC0D9FFA3
:102288004EC0DAFFDFCF9EF0040EDE26DFCF9FF0D0
:10229800000EDD229EC0D9FF9FC0DAFFDECFA0F07E
:1022A800DECFA1F0DECFA2F0DECFA3F0A0C0A4F075
:1022B800A1C0A5F0A2C0A6F0A3C0A7F00001A86B1A
:1022C800A7BFA869A8C0A9F0A8C0AAF0A8C0ABF089
:1022D800A4C0BCF0A5C0BDF0A6C0BEF0A7C0BFF0AA
:1022E800A8C0C0F0A9C0C1F0AAC0C2F0ABC0C3F07A
:1022F800E8EF10F0650E0001C619D8A486EF11F0BA
:1023080088EF11F0C9EF11F04BC0D9FF4CC0DAFFCC
:10231800DECFF6FFDDCFF7FFF86A0800F5CFD5F07E
:102328004BC0D9FF4CC0DAFFDE2A000EDD224DC0BB
:10233800D9FF4EC0DAFFDFCF9EF0040EDE26DFCFD6
:102348009FF0000EDD229EC0D9FF9FC0DAFFDECFCE
:10235800D1F0DECFD2F0DECFD3F0DECFD4F049C05B
:102368003AF04AC03BF0D1C03CF0D2C03DF0D3C0F7
:102378003EF0D4C03FF0D5C040F00AEC17F03AC0A8
:1023880049F03BC04AF009EF17F0C60E076E000E81
:10239800086EE40E096EFF0E0A6E000E0C6E020E39
:1023A8000B6E34EC51F007500810D8A4DEEF11F092
:1023B800E0EF11F05EEF12F04BC0D9FF4CC0DAFF2E
:1023C800DECF9EF0DDCF9FF0010E00019E27000EAC
:1023D8009F239EC0F6FF9FC0F7FFF86A0800F5CF5D
:1023E800D5F0BF0E9E6FFF0E9F6F4BC0D9FF4CC03C
:1023F800DAFFDECFF6FFDDCFF7FFF86A0800F55009
:10240800A06FA16B9E51A0279F51A123A1510AE162
:102418001A0EA05DD8A013EF12F016EF12F0010EFD
:1024280017EF12F0000EB66FB76BB651B711D8B4EC
:1024380020EF12F022EF12F03CEF12F04DC0D9FF5E
:102448004EC0DAFFDFCF9EF0040EDE26DFCF9FF00E
:10245800000EDD229EC0D9FF9FC0DAFFDECFD1F08B
:10246800DECFD2F0DECFD3F0DECFD4F054EF12F0CF
:102478004DC0D9FF4EC0DAFFDFCF9EF0040EDE2636
:10248800DFCF9FF0000EDD229EC0D9FF9FC0DAFF8C
:10249800DECFD1F0DECFD2F0DECFD3F0DECFD4F076
:1024A800020E4BC0D9FF4CC0DAFFDE26000EDD223B
:1024B800B3EF11F0660E0001C619D8A466EF12F04A
:1024C80068EF12F095EF12F04BC0D9FF4CC0DAFF5D
:1024D800DECFF6FFDDCFF7FFF86A0800F5CFD5F0BD
:1024E8004BC0D9FF4CC0DAFFDE2A000EDD224DC0FA
:1024F800D9FF4EC0DAFFDFCF9EF0040EDE26DFCF15
:102508009FF0000EDD229EC0D9FF9FC0DAFFDECF0C
:10251800D1F0DECFD2F0DECFD3F0DECFD4F0B3EF00
:1025280011F0C60E076E000E086EE70E096EFF0E5C
:102538000A6E000E0C6E020E0B6E34EC51F0075052
:102548000810D8A4AAEF12F0ACEF12F022EF13F0A3
:102558004BC0D9FF4CC0DAFFDECF9EF0DDCF9FF035
:10256800010E00019E27000E9F239EC0F6FF9FC00C
:10257800F7FFF86A0800F5CFD5F0BF0E9E6FFF0E83
:102588009F6F4BC0D9FF4CC0DAFFDECFF6FFDDCF1F
:10259800F7FFF86A0800F550A06FA16B9E51A027BD
:1025A8009F51A123A1510AE11A0EA05DD8A0DFEF27
:1025B80012F0E2EF12F0010EE3EF12F0000EB86F26
:1025C800B96BB851B911D8B4ECEF12F0EEEF12F0C4
:1025D80008EF13F04DC0D9FF4EC0DAFFDFCF9EF0F1
:1025E800040EDE26DFCF9FF0000EDD229EC0D9FF4D
:1025F8009FC0DAFFDECFD1F0DECFD2F0DECFD3F04E
:10260800DECFD4F054EF12F04DC0D9FF4EC0DAFF40
:10261800DFCF9EF0040EDE26DFCF9FF0000EDD2216
:102628009EC0D9FF9FC0DAFFDECFD1F0DECFD2F057
:10263800DECFD3F0DECFD4F054EF12F0670E0001F6
:10264800C619D8A42AEF13F02CEF13F059EF13F0A2
:102658004BC0D9FF4CC0DAFFDECFF6FFDDCFF7FF66
:10266800F86A0800F5CFD5F04BC0D9FF4CC0DAFFA7
:10267800DE2A000EDD224DC0D9FF4EC0DAFFDFCFC3
:102688009EF0040EDE26DFCF9FF0000EDD229EC0F6
:10269800D9FF9FC0DAFFDECFD1F0DECFD2F0DECF98
:1026A800D3F0DECFD4F0B3EF11F0C60E076E000EF4
:1026B800086EEA0E096EFF0E0A6E000E0C6E020E10
:1026C8000B6E34EC51F007500810D8A46EEF13F0DD
:1026D80070EF13F0E6EF13F04BC0D9FF4CC0DAFFF0
:1026E800DECF9EF0DDCF9FF0010E00019E27000E89
:1026F8009F239EC0F6FF9FC0F7FFF86A0800F5CF3A
:10270800D5F0BF0E9E6FFF0E9F6F4BC0D9FF4CC018
:10271800DAFFDECFF6FFDDCFF7FFF86A0800F550E5
:10272800A06FA16B9E51A0279F51A123A1510AE13F
:102738001A0EA05DD8A0A3EF13F0A6EF13F0010EB8
:10274800A7EF13F0000EBA6FBB6BBA51BB11D8B428
:10275800B0EF13F0B2EF13F0CCEF13F04DC0D9FF88
:102768004EC0DAFFDFCF9EF0040EDE26DFCF9FF0EB
:10277800000EDD229EC0D9FF9FC0DAFFDECFD1F068
:10278800DECFD2F0DECFD3F0DECFD4F054EF12F0AC
:102798004DC0D9FF4EC0DAFFDFCF9EF0040EDE2613
:1027A800DFCF9FF0000EDD229EC0D9FF9FC0DAFF69
:1027B800DECFD1F0DECFD2F0DECFD3F0DECFD4F053
:1027C80054EF12F04BC0D9FF4CC0DAFFDECFF6FF52
:1027D800DDCFF7FFF86A0800F5506E0AD8A4F7EFC6
:1027E80013F0F9EF13F032EF14F04BC0D9FF4CC0DF
:1027F800DAFFDE2A000EDD224DC0D9FF4EC0DAFF17
:10280800DFCF9EF0020EDE26DFCF9FF0000EDD2226
:102818009EC0D9FF9FC0DAFFDECFC4F0DDCFC5F080
:10282800C4C0F6FFC5C0F7FF000EF86E0F0EF764C0
:1028380007D080C2F5FF0D0081C2F5FF0C0008D05B
:10284800F6CFE9FFF7CFEAFF80C2EEFF81C2EFFFC4
:10285800000E4A6E000E496E09EF17F04BC0D9FF03
:102868004CC0DAFFDECF07F0DDCF08F0F00E096EBE
:10287800FF0E0A6E000E0C6E020E0B6E34EC51F059
:1028880007500810D8A44BEF14F04DEF14F097EF51
:1028980014F0020E4BC0D9FF4CC0DAFFDE26000E42
:1028A800DD224DC0D9FF4EC0DAFFDFCF9EF0020E09
:1028B800DE26DFCF9FF0000EDD229EC0D9FF9FC02D
:1028C800DAFFDECFC4F0DDCFC5F080C29EF081C252
:1028D8009FF0000E00019FBFFF0EA06FA16FC4C044
:1028E800F6FFC5C0F7FF000EF86E0F0EF7640DD0A7
:1028F8009EC0F5FF0D009FC0F5FF0D00A0C0F5FFBD
:102908000D00A1C0F5FF0C000CD0F6CFE9FFF7CF02
:10291800EAFF9EC0EEFF9FC0EEFFA0C0EEFFA1C081
:10292800EFFF2CEF14F04BC0D9FF4CC0DAFFDECF1D
:10293800F6FFDDCFF7FFF86A0800F550700AD8A453
:10294800A8EF14F0AAEF14F0EEEF14F04BC0D9FF83
:102958004CC0DAFFDE2A000EDD224DC0D9FF4EC082
:10296800DAFFDFCF9EF0020EDE26DFCF9FF0000EEB
:10297800DD229EC0D9FF9FC0DAFFDECFA0F0DDCFF9
:10298800A1F0A0C0C9F0A1C0CAF00001CB6BCC6B0C
:10299800CD6BCE6BCF6BD06B49C022F04AC023F011
:1029A800C9C024F0CAC025F0CBC026F0CCC027F09F
:1029B800CDC028F0CEC029F0CFC02AF0D0C02BF06F
:1029C800780E2C6E97EC3EF022C049F023C04AF0F6
:1029D80009EF17F04BC0D9FF4CC0DAFFDECFF6FF86
:1029E800DDCFF7FFF86A0800F550730AD8A4FFEFA7
:1029F80014F001EF15F02CEF15F04BC0D9FF4CC0C7
:102A0800DAFFDE2A000EDD224DC0D9FF4EC0DAFF04
:102A1800DFCF9EF0020EDE26DFCF9FF0000EDD2214
:102A28009EC0D9FF9FC0DAFFDECFACF0DDCFADF09E
:102A380049C010F04AC011F0ACC012F0ADC013F09C
:102A4800A9EC4CF010C049F011C04AF009EF17F09A
:102A58004BC0D9FF4CC0DAFFDECFF6FFDDCFF7FF62
:102A6800F86A0800F550750AD8A43DEF15F03FEF55
:102A780015F081EF15F04BC0D9FF4CC0DAFFDE2A04
:102A8800000EDD224DC0D9FF4EC0DAFFDFCF9EF029
:102A9800020EDE26DFCF9FF0000EDD229EC0D9FF9A
:102AA8009FC0DAFFDECFA0F0DDCFA1F0A0C0C9F053
:102AB800A1C0CAF00001CB6BCC6BCD6BCE6BCF6BDA
:102AC800D06B49C022F04AC023F0C9C024F0CAC064
:102AD80025F0CBC026F0CCC027F0CDC028F0CEC062
:102AE80029F0CFC02AF0D0C02BF00FEC48F022C05C
:102AF80049F023C04AF009EF17F04BC0D9FF4CC08A
:102B0800DAFFDECF07F0DDCF08F0F30E096EFF0E17
:102B18000A6E000E0C6E020E0B6E34EC51F007506C
:102B28000810D8A49AEF15F09CEF15F0CBEF15F02C
:102B3800020E4BC0D9FF4CC0DAFFDE26000EDD22A4
:102B48004DC0D9FF4EC0DAFFDFCF9EF0040EDE265F
:102B5800DFCF9FF0000EDD229EC0D9FF9FC0DAFFB5
:102B6800DECFA0F0DECFA1F0DECFA2F0DECFA3F063
:102B78000001A051C96FA151CA6FA251CB6FA351D7
:102B8800CC6FCD6BCE6BCF6BD06B65EF15F04BC0B8
:102B9800D9FF4CC0DAFFDECFF6FFDDCFF7FFF86ACA
:102BA8000800F550780AD8B4DCEF15F0DEEF15F020
:102BB800F1EF15F04BC0D9FF4CC0DAFFDECFF6FFBE
:102BC800DDCFF7FFF86A0800F550580AD8A4EFEFF0
:102BD80015F0F1EF15F041EF16F04BC0D9FF4CC0DE
:102BE800DAFFDECFF6FFDDCFF7FFF86A0800F5CF92
:102BF800D5F04BC0D9FF4CC0DAFFDE2A000EDD222B
:102C08004DC0D9FF4EC0DAFFDFCF9EF0020EDE26A0
:102C1800DFCF9FF0000EDD229EC0D9FF9FC0DAFFF4
:102C2800DECFA0F0DDCFA1F0A0C0C9F0A1C0CAF0EE
:102C38000001CB6BCC6BCD6BCE6BCF6BD06B49C02F
:102C480022F04AC023F0C9C024F0CAC025F0CBC086
:102C580026F0CCC027F0CDC028F0CEC029F0CFC0D8
:102C68002AF0D0C02BF0D5C02CF097EC3EF022C053
:102C780049F023C04AF009EF17F04BC0D9FF4CC008
:102C8800DAFFDECF07F0DDCF08F0F60E096EFF0E93
:102C98000A6E000E0C6E020E0B6E34EC51F00750EB
:102CA8000810D8B45AEF16F05CEF16F077EF16F06C
:102CB8004BC0D9FF4CC0DAFFDECF07F0DDCF08F0FC
:102CC800410E096EFE0E0A6E000E0C6E020E0B6EA1
:102CD80034EC51F007500810D8A475EF16F077EFD0
:102CE80016F0BAEF16F04BC0D9FF4CC0DAFFDECFB2
:102CF8009EF0DDCF9FF0010E00019E27000E9F235E
:102D08009EC0F6FF9FC0F7FFF86A0800F5CFD5F020
:102D1800020E4BC0D9FF4CC0DAFFDE26000EDD22C2
:102D28004DC0D9FF4EC0DAFFDFCF9EF0040EDE267D
:102D3800DFCF9FF0000EDD229EC0D9FF9FC0DAFFD3
:102D4800DECFA0F0DECFA1F0DECFA2F0DECFA3F081
:102D5800A051C96FA151CA6FA251CB6FA351CC6FBB
:102D6800CD6BCE6BCF6BD06B23EF16F04BC0D9FF7A
:102D78004CC0DAFFDECFF6FFDDCFF7FFF86A0800B8
:102D8800F550250AD8A4CBEF16F0CDEF16F0E4EFF6
:102D980016F04BC0D9FF4CC0DAFFDE2A000EDD2248
:102DA800000E086E250E076E49C009F04AC00AF0E9
:102DB8004BEC5EF0000E4A6E010E496E09EF17F0FB
:102DC8004BC0D9FF4CC0DAFFDE2A000EDD222CEF03
:102DD80014F04BC0D9FF4CC0DAFFDECFF6FFDDCFD1
:102DE800F7FFF86A0800F550076E086A49C009F04D
:102DF8004AC00AF04BEC5EF04BC0D9FF4CC0DAFF7A
:102E0800DE2A000EDD22DEEF16F01200000E0001B1
:102E18007B6F000E7A6F3CC08CF03DC08DF03EC0D9
:102E28008EF03FC08FF08FBF1EEF17F01CEF17F02A
:102E380034EF17F0000E7B6F010E7A6F8CC007F02D
:102E48008DC008F08EC009F08FC00AF03EEC6CF01F
:102E580007C08CF008C08DF009C08EF00AC08FF052
:102E6800000E0001936F000E926FD7C17EF0D8C19B
:102E78007FF07A517B11D8A444EF17F046EF17F092
:102E88004DEF17F053A44BEF17F04DEF17F067EF26
:102E980017F07A517B11D8A454EF17F056EF17F0BA
:102EA8005CEF17F0000E616F2B0E606F60EF17F08C
:102EB800000E616F2D0E606F60C006F3924B932B6E
:102EC8007E07D8A07F078CC007F08DC008F08EC0A1
:102ED80009F08FC00AF04CEC59F007040810D8A488
:102EE80078EF17F07AEF17F0D1EF17F0BF0E416EB9
:102EF800FF0E426E4050436E446A41504326425092
:102F0800442244500AE11A0E435CD8A08EEF17F011
:102F180091EF17F0010E92EF17F0000E0001626FAB
:102F2800636B62516311D8B49CEF17F09EEF17F0F2
:102F3800ACEF17F0060E9225076E030E9321086E6C
:102F4800CA0E096EFF0E0A6ECFEC67F0B8EF17F0E5
:102F5800060E9225076E030E9321086ED20E096E97
:102F6800FF0E0A6ECFEC67F00001FD0E7E27FF0E04
:102F78007F233AC017F03BC018F0060E196E030EF7
:102F88001A6E7EC01BF07FC01CF073EC5FF017C098
:102F98003AF018C03BF03AEF1DF08CC007F08DC036
:102FA80008F08EC009F08FC00AF04CEC59F00750B9
:102FB8000810D8A4E2EF17F0E4EF17F024EF18F0A8
:102FC800BF0E416EFF0E426E4050436E446A415040
:102FD80043264250442244500AE11A0E435CD8A0CA
:102FE800F8EF17F0FBEF17F0010EFCEF17F0000EEB
:102FF8000001646F656B64516511D8B406EF18F071
:1030080008EF18F016EF18F0060E9225076E030E5B
:103018009321086ECE0E096EFF0E0A6ECFEC67F094
:10302800B8EF17F0060E9225076E030E9321086E6F
:10303800D60E096EFF0E0A6ECFEC67F0B8EF17F0E8
:10304800000E0001946F000E956F800E966F3F0E74
:10305800976F000E916F000E906F8CC007F08DC0B7
:1030680008F08EC009F08FC00AF0000E0B6E000E3B
:103078000C6E000E0D6E000E0E6E40EC61F0D8B0B6
:1030880048EF18F04AEF18F0CDEF18F069EF18F094
:1030980094C015F095C016F096C017F097C018F0B8
:1030A800000E196E000E1A6E200E1B6E410E1C6E5D
:1030B80045EC39F015C094F016C095F017C096F09D
:1030C80018C097F00001904B912B8CC02EF08DC04A
:1030D8002FF08EC030F08FC031F0000E196E000E48
:1030E8001A6E200E1B6E410E1C6E94C015F095C012
:1030F80016F096C017F097C018F045EC39F015C0D7
:1031080032F016C033F017C034F018C035F0CAECEE
:1031180058F0D8B092EF18F094EF18F04CEF18F080
:10312800B4EF18F094C007F095C008F096C009F005
:1031380097C00AF0000E0B6E000E0C6E200E0D6E7E
:10314800410E0E6E5AEC3BF007C094F008C095F0A3
:1031580009C096F00AC097F000019007D8A091071F
:103168008CC02EF08DC02FF08EC030F08FC031F0A3
:1031780094C032F095C033F096C034F097C035F063
:10318800CAEC58F0D8A0CBEF18F0CDEF18F096EFB6
:1031980018F040C00DF00E6A40EC67F00D500001C9
:1031A800816F81C080F0670E8119D8A4DEEF18F016
:1031B800E0EF18F008EF19F00101D951DA11D8A49D
:1031C800E8EF18F0EAEF18F0EEEF18F0000EDA6FFB
:1031D800010ED96FDABFFBEF18F0DA5106E1D90515
:1031E800D8B0F9EF18F0FBEF18F002EF19F0000E65
:1031F80000017D6F060E7C6F12EF19F0D9C17CF0CB
:10320800DAC17DF012EF19F00101DABF0EEF19F003
:1032180010EF19F0FBEF18F002EF19F0670E00013C
:103228008119D8A41AEF19F01CEF19F04BEF19F017
:1032380091AF2AEF19F0FC0E905DFF0E9159D8A0BE
:1032480028EF19F02AEF19F049EF19F0FF0E416E37
:10325800FF0E426E7CC043F07DC044F041504326CF
:10326800425044229051435C4450800A456E91512B
:10327800800A4558D8A043EF19F045EF19F049EFF7
:1032880019F0660E806F4BEF19F0650E806F7CC0E9
:1032980072F07DC073F0670E8119D8A456EF19F04B
:1032A80058EF19F068EF19F0660E8019D8A45FEF8F
:1032B80019F061EF19F06AEF19F091BF68EF19F092
:1032C80066EF19F06AEF19F0724B732B660E8019CE
:1032D800D8A471EF19F073EF19F093EF19F091BFBB
:1032E8007AEF19F078EF19F086EF19F0000E946F65
:1032F800000E956F800E966F3F0E976F000E916FC0
:10330800000E906F670E8119D8B48DEF19F08FEF0A
:1033180019F093EF19F09051722791517323000E11
:103328008B6F000E8A6F8CC082F08DC083F08EC0C8
:1033380084F08FC085F094C074F095C075F096C085
:1033480076F097C077F024EF1AF082C007F083C0B8
:1033580008F084C009F085C00AF094C00BF095C04D
:103368000CF096C00DF097C00EF05AEC3BF007C079
:1033780020F008C021F009C022F00AC023F0FBECBD
:1033880044F020C086F021C087F022C088F023C016
:1033980089F086C007F087C008F088C009F089C0A6
:1033A8000AF047EC58F007C078F008C079F082C0FE
:1033B8002EF083C02FF084C030F085C031F094C067
:1033C80019F095C01AF096C01BF097C01CF086C083
:1033D80015F087C016F088C017F089C018F045ECC2
:1033E80039F015C032F016C033F017C034F018C0E9
:1033F80035F0F6EC69F02EC082F02FC083F030C0B3
:1034080084F031C085F094C007F095C008F096C0EC
:1034180009F097C00AF0000E0B6E000E0C6E200E1D
:103428000D6E410E0E6E5AEC3BF007C094F008C0CA
:1034380095F009C096F00AC097F000018A4B8B2BD3
:1034480072518A5D8B51800A416E7351800A4158CE
:10345800D8A031EF1AF033EF1AF0A9EF19F094C0A1
:1034680015F095C016F096C017F097C018F0000E2A
:10347800196E000E1A6EA00E1B6E400E1C6E45ECE7
:1034880039F015C086F016C087F017C088F018C04C
:1034980089F082C02EF083C02FF084C030F085C040
:1034A80031F086C032F087C033F088C034F089C06C
:1034B80035F0CAEC58F0D8B064EF1AF066EF1AF09D
:1034C80071EF1AF0000E0001866F000E876F000E74
:1034D800886F000E896F9AEF1AF082C007F083C0D8
:1034E80008F084C009F085C00AF086C00BF087C0D8
:1034F8000CF088C00DF089C00EF040EC61F0D8A047
:1035080088EF1AF08AEF1AF09AEF1AF0000178B1F2
:1035180090EF1AF092EF1AF09AEF1AF0000E866FF9
:10352800000E876F000E886F000E896F8CC015F033
:103538008DC016F08EC017F08FC018F086C019F035
:1035480087C01AF088C01BF089C01CF088EC34F0E2
:1035580015C082F016C083F017C084F018C085F03B
:1035680082C02EF083C02FF084C030F085C031F0C7
:10357800000E196E000E1A6E200E1B6E410E1C6E88
:1035880074C015F075C016F076C017F077C018F043
:1035980045EC39F015C032F016C033F017C034F0DE
:1035A80018C035F0CAEC58F0D8A0DDEF1AF0DFEFFC
:1035B8001AF008EF1BF00001904B912B74C015F026
:1035C80075C016F076C017F077C018F0000E196EA7
:1035D800000E1A6E200E1B6E410E1C6E45EC39F063
:1035E80015C074F016C075F017C076F018C077F0E3
:1035F800660E00018019D8A404EF1BF006EF1BF03B
:1036080008EF1BF0724B732B74C094F075C095F0E3
:1036180076C096F077C097F0650E00018019D8B48F
:1036280018EF1BF01AEF1BF020EF1BF090C070F0A2
:1036380091C071F024EF1BF0000E716F000E706FD7
:10364800000E6F6F000E6E6F000E6D6F000E6C6FC8
:10365800000E8B6F000E8A6F20EF1CF082C007F0FF
:1036680083C008F084C009F085C00AF094C00BF04C
:1036780095C00CF096C00DF097C00EF05AEC3BF0D8
:1036880007C020F008C021F009C022F00AC023F0CA
:10369800FBEC44F020C086F021C087F022C088F0FF
:1036A80023C089F086C007F087C008F088C009F0F9
:1036B80089C00AF047EC58F007C078F008C079F0E4
:1036C80053B869EF1BF06BEF1BF089EF1BF000019B
:1036D80078517911D8A473EF1BF075EF1BF089EFBF
:1036E8001BF0670E8119D8A47CEF1BF07EEF1BF04E
:1036F80089EF1BF071BF85EF1BF083EF1BF089EF9B
:103708001BF06C4B6D2BD4EF1BF000016E516F1149
:10371800D8A491EF1BF093EF1BF0BDEF1BF071BF26
:103728009AEF1BF098EF1BF0BDEF1BF0060E9225E9
:10373800D96E030E9321DA6E2E0EDF6E924B932B09
:103748007E07D8A07F07000E6F6F010E6E6FBDEF6A
:103758001BF0060E9225D96E030E9321DA6E300EF9
:10376800DF6E924B932B7E07D8A07F076C07D8A0FB
:103778006D076C516D11D8A4C4EF1BF0C6EF1BF098
:10378800ADEF1BF0060E9225D96E030E9321DA6E6B
:103798007851300FDF6E924B932B7E07D8A07F07AE
:1037A80082C02EF083C02FF084C030F085C031F085
:1037B80094C019F095C01AF096C01BF097C01CF081
:1037C80086C015F087C016F088C017F089C018F0B9
:1037D80045EC39F015C032F016C033F017C034F09C
:1037E80018C035F0F6EC69F02EC082F02FC083F0D7
:1037F80030C084F031C085F094C007F095C008F05F
:1038080096C009F097C00AF0000E0B6E000E0C6E01
:10381800200E0D6E410E0E6E5AEC3BF007C094F070
:1038280008C095F009C096F00AC097F0000170072B
:10383800D8A071078A4B8B2B72518A5D8B51800AF5
:10384800416E7351800A4158D8B02DEF1CF02FEF0C
:103858001CF03DEF1CF093BF3BEF1CF0935109E1C6
:103868004B0E925DD8A03BEF1CF03DEF1CF032EF01
:103878001BF06E516F11D8A444EF1CF046EF1CF0FA
:1038880057EF1CF053A84BEF1CF04DEF1CF057EF0F
:103898001CF0060E9225D96E030E9321DA6E2E0EB9
:1038A800DF6E924B932B060E9225D96E030E932151
:1038B800DA6E000EDF6E650E8019D8A466EF1CF074
:1038C80068EF1CF0BDEF17F0000E8B6F4F0E8A6F7C
:1038D800060E8A25D96E030E8B21DA6E000EDF6E76
:1038E800000E7B6F000E7A6F91BF7FEF1CF07DEFAB
:1038F8001CF087EF1CF0000E7B6F010E7A6F906D45
:10390800911FD8B0912B000E7D6F020E7C6FB8EF1F
:103918001CF08A07D8A08B07060E8A25D96E030EDD
:103928008B21DA6E90C007F091C008F0000E0A6E85
:103938000A0E096EE8EC60F00750300FDF6E90C099
:1039480007F091C008F0000E0A6E0A0E096EB0EC7E
:103958005EF007C090F008C091F000017C07D8A085
:103968007D077E07D8A07F0790519111D8A4BFEF9B
:103978001CF0C1EF1CF08DEF1CF07DBFCEEF1CF0EA
:103988007D5106E17C05D8B0CCEF1CF0CEEF1CF0E1
:103998008DEF1CF08A07D8A08B077A517B11D8A429
:1039A800D8EF1CF0DAEF1CF0E0EF1CF0000E676FA8
:1039B8002B0E666FE4EF1CF0000E676F2D0E666F1E
:1039C800060E8A25D96E030E8B21DA6E66C0DFFFDC
:1039D8007E07D8A07F078A07D8A08B07BF0E416E45
:1039E800FF0E426E4050436E446A41504326425097
:1039F800442244500AE11A0E435CD8A006EF1DF099
:103A080009EF1DF0010E0AEF1DF0000E6A6F6B6BD7
:103A18006A516B11D8A413EF1DF015EF1DF01BEFC1
:103A28001DF0000E696F650E686F1FEF1DF0000E28
:103A3800696F450E686F060E8A25D96E030E8B21B5
:103A4800DA6E68C0DFFF7E07D8A07F07060E9225D2
:103A5800076E030E9321086E060E8A25096E030E63
:103A68008B210A6ECFEC67F0BDEF17F01200000E45
:103A78000001836F000E826F3CC092F03DC093F04E
:103A88003EC094F03FC095F095BF4FEF1DF04DEF4D
:103A98001DF065EF1DF0000E836F010E826F92C05E
:103AA80007F093C008F094C009F095C00AF03EEC06
:103AB8006CF007C092F008C093F009C094F00AC0F7
:103AC80095F0000E00019D6F000E9C6FD7C184F029
:103AD800D8C185F082518311D8A475EF1DF077EF16
:103AE8001DF07EEF1DF053A47CEF1DF07EEF1DF05E
:103AF80098EF1DF082518311D8A485EF1DF087EF50
:103B08001DF08DEF1DF0000E656F2B0E646F91EFA9
:103B18001DF0000E656F2D0E646F64C006F39C4B9C
:103B28009D2B8407D8A08507060E9C25D96E030E09
:103B38009D21DA6E300EDF6E9C4B9D2BBF0E416EC1
:103B4800FF0E426E4050436E446A41504326425035
:103B5800442244500AE11A0E435CD8A0B6EF1DF087
:103B6800B9EF1DF0010EBAEF1DF0000E686F696B1A
:103B780068516911D8A4C3EF1DF0C5EF1DF0CBEF54
:103B88001DF0000E676F780E666FCFEF1DF0000E08
:103B9800676F580E666F060E9C25D96E030E9D2121
:103BA800DA6E66C0DFFF9C4B9D2B92C007F093C076
:103BB80008F094C009F095C00AF04CEC59F00704DD
:103BC8000810D8A4EAEF1DF0ECEF1DF043EF1EF04B
:103BD800BF0E416EFF0E426E4050436E446A415024
:103BE80043264250442244500AE11A0E435CD8A0AE
:103BF80000EF1EF003EF1EF0010E04EF1EF0000EA2
:103C080000016A6F6B6B6A516B11D8B40EEF1EF02E
:103C180010EF1EF01EEF1EF0060E9C25076E030E19
:103C28009D21086ECA0E096EFF0E0A6ECFEC67F072
:103C38002AEF1EF0060E9C25076E030E9D21086EC6
:103C4800D20E096EFF0E0A6ECFEC67F00001FD0E72
:103C58008427FF0E85233AC017F03BC018F0060EE4
:103C6800196E030E1A6E84C01BF085C01CF073EC2D
:103C78005FF017C03AF018C03BF0FAEF22F092C09C
:103C880007F093C008F094C009F095C00AF04CEC16
:103C980059F007500810D8A454EF1EF056EF1EF044
:103CA80096EF1EF0BF0E416EFF0E426E4050436EFF
:103CB800446A415043264250442244500AE11A0EB5
:103CC800435CD8A06AEF1EF06DEF1EF0010E6EEF98
:103CD8001EF0000E00016C6F6D6B6C516D11D8B445
:103CE80078EF1EF07AEF1EF088EF1EF0060E9C2586
:103CF800076E030E9D21086ECE0E096EFF0E0A6E2A
:103D0800CFEC67F02AEF1EF0060E9C25076E030E17
:103D18009D21086ED60E096EFF0E0A6ECFEC67F075
:103D28002AEF1EF0000E0001986F000E996F800EAA
:103D38009A6F3F0E9B6F000E876F000E866F92C0C2
:103D480007F093C008F094C009F095C00AF0000E7F
:103D58000B6E000E0C6E000E0D6E000E0E6E40EC1B
:103D680061F0D8B0BAEF1EF0BCEF1EF03FEF1FF0C5
:103D7800DBEF1EF098C015F099C016F09AC017F046
:103D88009BC018F0000E196E000E1A6E000E1B6E06
:103D9800400E1C6E45EC39F015C098F016C099F02D
:103DA80017C09AF018C09BF00001864B872B92C071
:103DB8002EF093C02FF094C030F095C031F0000E73
:103DC800196E000E1A6E000E1B6E400E1C6E98C007
:103DD80015F099C016F09AC017F09BC018F045EC82
:103DE80039F015C032F016C033F017C034F018C0DF
:103DF80035F0CAEC58F0D8B004EF1FF006EF1FF00A
:103E0800BEEF1EF026EF1FF098C007F099C008F02B
:103E18009AC009F09BC00AF0000E0B6E000E0C6EE3
:103E2800000E0D6E400E0E6E5AEC3BF007C098F077
:103E380008C099F009C09AF00AC09BF000018607F3
:103E4800D8A0870792C02EF093C02FF094C030F00E
:103E580095C031F098C032F099C033F09AC034F070
:103E68009BC035F0CAEC58F0D8A03DEF1FF03FEFEB
:103E78001FF008EF1FF00101DABF45EF1FF047EF11
:103E88001FF04DEF1FF0D9C180F0DAC181F052EF79
:103E98001FF0000E0001816F060E806F010E0001F9
:103EA80080257A6F000E81217B6F000E916F000EC6
:103EB800906F92C088F093C089F094C08AF095C042
:103EC8008BF098C060F099C061F09AC062F09BC016
:103ED80063F0EAEF1FF088C007F089C008F08AC0D5
:103EE80009F08BC00AF098C00BF099C00CF09AC08A
:103EF8000DF09BC00EF05AEC3BF007C020F008C054
:103F080021F009C022F00AC023F0FBEC44F020C0E5
:103F18008CF021C08DF022C08EF023C08FF08CC0B1
:103F280007F08DC008F08EC009F08FC00AF047EC8A
:103F380058F007C096F008C097F088C02EF089C0E6
:103F48002FF08AC030F08BC031F098C019F099C0BA
:103F58001AF09AC01BF09BC01CF08CC015F08DC0E5
:103F680016F08EC017F08FC018F045EC39F015C068
:103F780032F016C033F017C034F018C035F0F6EC44
:103F880069F02EC088F02FC089F030C08AF031C0A7
:103F98008BF098C007F099C008F09AC009F09BC050
:103FA8000AF0000E0B6E000E0C6E800E0D6E410EA8
:103FB8000E6E5AEC3BF007C098F008C099F009C0A3
:103FC8009AF00AC09BF00001904B912B7A51905DBA
:103FD8009151800A416E7B51800A4158D8A0F7EF71
:103FE8001FF0F9EF1FF06FEF1FF098C015F099C0A0
:103FF80016F09AC017F09BC018F0000E196E000E4C
:104008001A6E000E1B6E410E1C6E45EC39F015C081
:104018008CF016C08DF017C08EF018C08FF088C0D5
:104028002EF089C02FF08AC030F08BC031F08CC0E0
:1040380032F08DC033F08EC034F08FC035F0CAEC4A
:1040480058F0D8B02AEF20F02CEF20F037EF20F00E
:10405800000E00018C6F000E8D6F000E8E6F000E2B
:104068008F6F60EF20F088C007F089C008F08AC021
:1040780009F08BC00AF08CC00BF08DC00CF08EC01C
:104088000DF08FC00EF040EC61F0D8A04EEF20F09C
:1040980050EF20F060EF20F0000196B156EF20F0CD
:1040A80058EF20F060EF20F0000E8C6F000E8D6F3F
:1040B800000E8E6F000E8F6F92C015F093C016F031
:1040C80094C017F095C018F08CC019F08DC01AF084
:1040D8008EC01BF08FC01CF088EC34F015C088F03F
:1040E80016C089F017C08AF018C08BF060C098F02D
:1040F80061C099F062C09AF063C09BF0000E0001A5
:104108007D6F000E7C6F000E7F6F000E7E6F000EBD
:10411800796F000E786F000E916F000E906FE9EFC7
:1041280021F088C007F089C008F08AC009F08BC068
:104138000AF098C00BF099C00CF09AC00DF09BC023
:104148000EF05AEC3BF007C020F008C021F009C07F
:1041580022F00AC023F0FBEC44F020C08CF021C010
:104168008DF022C08EF023C08FF08CC007F08DC078
:1041780008F08EC009F08FC00AF047EC58F007C06D
:1041880096F008C097F053B8CCEF20F0CEEF20F0AF
:10419800E3EF20F0000196519711D8A4D6EF20F054
:1041A800D8EF20F0E3EF20F07DBFDFEF20F0DDEF68
:1041B80020F0E3EF20F0784B792B9DEF21F0000100
:1041C8007E517F11D8A4EBEF20F0EDEF20F017EF30
:1041D80021F07DBFF4EF20F0F2EF20F017EF21F08F
:1041E800060E9C25D96E030E9D21DA6E2E0EDF6E0B
:1041F8009C4B9D2B8407D8A08507000E7F6F010E6E
:104208007E6F17EF21F0060E9C25D96E030E9D21B7
:10421800DA6E300EDF6E9C4B9D2B8407D8A0850785
:104228007807D8A0790778517911D8A41EEF21F022
:1042380020EF21F007EF21F097BF2CEF21F09751E5
:1042480009E10A0E965DD8A02CEF21F02EEF21F09F
:1042580036EF21F0570E9625966F000E9721976F2F
:104268003CEF21F0300E9625966F000E9721976F40
:10427800BF0E416EFF0E426E4050436E446A41507D
:1042880043264250442244500AE11A0E435CD8A007
:1042980050EF21F053EF21F0010E54EF21F0000E02
:1042A8006E6F6F6B6E516F11D8B45DEF21F05FEFD9
:1042B80021F08FEF21F09F0E416EFF0E426E200E0F
:1042C8009611436E000E9711446E4150432642509A
:1042D800442244500AE11A0E435CD8A076EF21F03C
:1042E80079EF21F0010E7AEF21F0000E706F716BFB
:1042F80070517111D8B483EF21F085EF21F08FEF61
:1043080021F096C00DF097C00EF0A0EC67F00DC03C
:1043180096F00EC097F0060E00019C25D96E030E8C
:104328009D21DA6E96C0DFFF9C4B9D2B8407D8A099
:10433800850788C02EF089C02FF08AC030F08BC066
:1043480031F098C019F099C01AF09AC01BF09BC0C0
:104358001CF08CC015F08DC016F08EC017F08FC001
:1043680018F045EC39F015C032F016C033F017C01C
:1043780034F018C035F0F6EC69F02EC088F02FC084
:1043880089F030C08AF031C08BF098C007F099C02E
:1043980008F09AC009F09BC00AF0000E0B6E000EE0
:1043A8000C6E800E0D6E410E0E6E5AEC3BF007C07F
:1043B80098F008C099F009C09AF00AC09BF0000173
:1043C8007C07D8A07D07904B912B7A51905D915135
:1043D800800A416E7B51800A4158D8B0F6EF21F02F
:1043E800F8EF21F006EF22F09DBF04EF22F09D5177
:1043F80009E14B0E9C5DD8A004EF22F006EF22F0F5
:1044080095EF20F07E517F11D8A40DEF22F00FEF29
:1044180022F020EF22F053A814EF22F016EF22F03A
:1044280020EF22F0060E9C25D96E030E9D21DA6E30
:104438002E0EDF6E9C4B9D2B060E9C25D96E030E0F
:104448009D21DA6E000EDF6E000E916F4F0E906F99
:10445800060E9025D96E030E9121DA6E000EDF6EDE
:10446800000E836F000E826F87BF3FEF22F03DEF93
:1044780022F047EF22F0000E836F010E826F866DE7
:10448800871FD8B0872B000E816F010E806F78EFE1
:1044980022F09007D8A09107060E9025D96E030E3A
:1044A8009121DA6E86C007F087C008F0000E0A6E08
:1044B8000A0E096EE8EC60F00750300FDF6E86C018
:1044C80007F087C008F0000E0A6E0A0E096EB0ECFD
:1044D8005EF007C086F008C087F000018007D8A00A
:1044E80081078407D8A0850786518711D8A47FEF54
:1044F80022F081EF22F04DEF22F081BF8EEF22F003
:10450800815106E18005D8B08CEF22F08EEF22F0C1
:104518004DEF22F09007D8A0910782518311D8A4BB
:1045280098EF22F09AEF22F0A0EF22F0000E736FBE
:104538002B0E726FA4EF22F0000E736F2D0E726FA8
:10454800060E9025D96E030E9121DA6E72C0DFFF38
:104558008407D8A085079007D8A09107BF0E416EA1
:10456800FF0E426E4050436E446A4150432642500B
:10457800442244500AE11A0E435CD8A0C6EF22F048
:10458800C9EF22F0010ECAEF22F0000E766F776BAA
:1045980076517711D8A4D3EF22F0D5EF22F0DBEFD4
:1045A80022F0000E756F700E746FDFEF22F0000EB0
:1045B800756F500E746F060E9025D96E030E9121FB
:1045C800DA6E74C0DFFF8407D8A08507060E9C2525
:1045D800076E030E9D21086E060E9025096E030EC8
:1045E80091210A6ECFEC67F02FEF1EF01200560EE5
:1045F8000E6E030E0F6EAAEC6CF001012A6F73EFBA
:1046080027F00101E905D8A40CEF23F00EEF23F001
:1046180014EF23F09B0E086EFE0E096E78EC6BF01B
:10462800560E0E6E030E0F6E82EC54F00101E90572
:10463800D8A421EF23F023EF23F029EF23F0680E0D
:10464800086EFE0E096E78EC6BF0560E0E6E030EB9
:104658000F6E000E116E500E106E0FEC6DF0560EB0
:104668000E6E030E0F6E960E106E0C0E116E010E6E
:10467800136EF40E126E95EC61F0560E0001EB6F9E
:10468800030EEC6F2EEC63F095EF27F00101E905BE
:10469800D8A451EF23F053EF23F095EF27F0AB0E9A
:1046A800086EFE0E096E78EC6BF095EF27F095EF2B
:1046B80027F00101E905D8A464EF23F066EF23F0A1
:1046C8006CEF23F0D70E086EFE0E096E78EC6BF0D7
:1046D800560E0E6E030E0F6E3CEC6AF00009D8B44D
:1046E80078EF23F07AEF23F095EF27F0560E0E6E51
:1046F800030E0F6E1DEC65F00EC043F10FC044F1C0
:10470800010143514411D8B48CEF23F08EEF23F00C
:1047180095EF27F0560E0E6E030E0F6E35EC60F017
:104728000EC043F10FC044F1000E0101466F000EA8
:10473800456FB3EF23F0960E4525D96E0C0E462132
:10474800DA6EA20E4525E16E0A0E4621E26EDFCF33
:10475800E7FFE75007EC6FF00101454B462B43514B
:10476800455D44514659D8A0BCEF23F0BEEF23F075
:104778009FEF23F0560E0E6E030E0F6E960E106E00
:104788000C0E116E010E136EF40E126E95EC61F0A4
:10479800E80E136E050E146EF70E156E030E166EE8
:1047A80008EC5DF013C037F114C038F1E80E136E51
:1047B800050E146EEC0E156E030E166E08EC5DF009
:1047C80013C039F114C03AF1E80E136E050E146ED9
:1047D800EE0E156E020E166E08EC5DF013C03BF17E
:1047E80014C03CF1E80E136E050E146EE00E156E43
:1047F800030E166E08EC5DF013C03DF114C03EF1D7
:10480800E80E136E050E146ED40E156E030E166E9A
:1048180008EC5DF013C03FF114C040F1E80E136ED0
:10482800050E146EC80E156E030E166E08EC5DF0BC
:1048380013C041F114C042F1010137513811D8B405
:1048480028EF24F02AEF24F095EF27F039513A1198
:10485800D8B431EF24F033EF24F095EF27F03B5133
:104868003C11D8B43AEF24F03CEF24F095EF27F050
:104878003D513E11D8B443EF24F045EF24F095EFB5
:1048880027F03F514011D8B44CEF24F04EEF24F0FC
:1048980095EF27F041514211D8B455EF24F057EF66
:1048A80024F095EF27F022EED9F000EE0AF0060E7C
:1048B800DBCFEBFFE806FCE2200E116E010E126E54
:1048C8007BEC66F022EED9F000EE0AF0060EDBCFA4
:1048D800EBFFE806FCE2000E116E010E126E9AEC78
:1048E80064F0D3EC69F008C047F109C048F147C14A
:1048F800F0F048C1F1F0060E0001F26FD890F133E4
:10490800F033F22F82EF24F0030EF017000EF117A8
:10491800F0C007F0F1C008F0096A0A6A000ECFEC8F
:104928004BF007C015F008C016F009C017F00AC010
:1049380018F0000E196E000E1A6E800E1B6E3E0ED9
:104948001C6E45EC39F015C033F116C034F117C0B0
:1049580035F118C036F133C115F034C116F035C140
:1049680017F036C118F047C1F0F048C1F1F0F1C0B6
:10497800F0F00001F16B7F0EF017000EF117F0C098
:1049880007F0F1C008F0096A0A6A000ECFEC4BF094
:1049980007C019F008C01AF009C01BF00AC01CF0C3
:1049A80088EC34F015C033F116C034F117C035F176
:1049B80018C036F1010148BFE4EF24F0E6EF24F017
:1049C800ECEF24F0AE0E2B6FFF0E2C6FF0EF24F0FF
:1049D800B40E2B6FFF0E2C6F0C0E0001DC6F010E56
:1049E800DD6F2BC1DEF02CC1DFF033C1E0F034C144
:1049F800E1F035C1E2F036C1E3F00AEC69F0000EEF
:104A08000101496F31EF25F037C1F6FF38C1F7FFD3
:104A1800000EF86E200E01014925D96EDA6A010EE2
:104A2800DA22F70E4925E16EE26A030EE222DFCFB1
:104A3800E7FFE7500001F06F0F0EF76404D0F0C0F5
:104A4800F5FF0C0006D0F6CFE9FFF7CFEAFFF0C07C
:104A5800EFFF0101374B382B492B200E076E010E53
:104A6800086E5CEC69F0010149510001F06FF16BCF
:104A78000750F05D0850F159D8A045EF25F047EFF1
:104A880025F008EF25F0F70E01014925D96EDA6AFD
:104A9800030EDA22000EDF6E000E496F7DEF25F05F
:104AA80039C1F6FF3AC1F7FF000EF86E000E01019A
:104AB8004925D96EDA6A010EDA22EC0E4925E16E33
:104AC800E26A030EE222DFCFE7FFE7500001F06F52
:104AD8000F0EF76404D0F0C0F5FF0C0006D0F6CF37
:104AE800E9FFF7CFEAFFF0C0EFFF0101394B3A2B9E
:104AF800492B000E076E010E086E5CEC69F001018F
:104B080049510001F06FF16B0750F05D0850F15901
:104B1800D8A091EF25F093EF25F054EF25F0EC0E97
:104B280001014925D96EDA6A030EDA22000EDF6E1A
:104B3800000E496FC9EF25F03BC1F6FF3CC1F7FFF6
:104B4800000EF86E0C0E01014925D96EDA6A010EC5
:104B5800DA22EE0E4925E16EE26A020EE222DFCF8A
:104B6800E7FFE7500001F06F0F0EF76404D0F0C0C4
:104B7800F5FF0C0006D0F6CFE9FFF7CFEAFFF0C04B
:104B8800EFFF01013B4B3C2B492BEE0E076E020E4B
:104B9800086E5CEC69F0010149510001F06FF16B9E
:104BA8000750F05D0850F159D8A0DDEF25F0DFEF90
:104BB80025F0A0EF25F0EE0E01014925D96EDA6A3D
:104BC800020EDA22000EDF6E81B0EDEF25F0EFEF76
:104BD80025F0F5EF25F0220E2D6FFF0E2E6FF9EF61
:104BE80025F0FE0E2D6FFE0E2E6F0C0E076E010EB9
:104BF800086E2DC109F02EC10AF0CFEC67F0000E47
:104C08000101496F31EF26F03DC1F6FF3EC1F7FFC4
:104C1800000EF86E0C0E01014925D96EDA6A010EF4
:104C2800DA22E00E4925E16EE26A030EE222DFCFC6
:104C3800E7FFE7500001F06F0F0EF76404D0F0C0F3
:104C4800F5FF0C0006D0F6CFE9FFF7CFEAFFF0C07A
:104C5800EFFF01013D4B3E2B492BE00E076E030E83
:104C6800086E5CEC69F0010149510001F06FF16BCD
:104C78000750F05D0850F159D8A045EF26F047EFEE
:104C880026F008EF26F0E00E01014925D96EDA6A10
:104C9800030EDA22000EDF6E83B455EF26F057EFCD
:104CA80026F05DEF26F02E0E2F6FFF0E306F61EFAE
:104CB80026F00A0E2F6FFF0E306F0C0E076E010ED6
:104CC800086E2FC109F030C10AF0CFEC67F0000E72
:104CD8000101496F99EF26F03FC1F6FF40C1F7FF88
:104CE800000EF86E0C0E01014925D96EDA6A010E24
:104CF800DA22D40E4925E16EE26A030EE222DFCF02
:104D0800E7FFE7500001F06F0F0EF76404D0F0C022
:104D1800F5FF0C0006D0F6CFE9FFF7CFEAFFF0C0A9
:104D2800EFFF01013F4B402B492BD40E076E030EBA
:104D3800086E5CEC69F0010149510001F06FF16BFC
:104D48000750F05D0850F159D8A0ADEF26F0AFEF4D
:104D580026F070EF26F0D40E01014925D96EDA6AE3
:104D6800030EDA22000EDF6E84B0BDEF26F0BFEF2F
:104D780026F0C5EF26F03A0E316FFF0E326FC9EFFD
:104D880026F0160E316FFF0E326F0C0E076E010EF5
:104D9800086E31C109F032C10AF0CFEC67F0000E9D
:104DA8000101496F01EF27F041C1F6FF42C1F7FF4A
:104DB800000EF86E0C0E01014925D96EDA6A010E53
:104DC800DA22C80E4925E16EE26A030EE222DFCF3D
:104DD800E7FFE7500001F06F0F0EF76404D0F0C052
:104DE800F5FF0C0006D0F6CFE9FFF7CFEAFFF0C0D9
:104DF800EFFF0101414B422B492BC80E076E030EF2
:104E0800086E5CEC69F0010149510001F06FF16B2B
:104E18000750F05D0850F159D8A015EF27F017EFAB
:104E280027F0D8EF26F0C80E01014925D96EDA6AB5
:104E3800030EDA22000EDF6E560E0001C56F030E58
:104E4800C66FE80EC76F050EC86FE80E076E050E31
:104E5800086E5CEC69F007C0C9F008C0CAF013EC32
:104E680055F0E806D8A43BEF27F03DEF27F05BEFBD
:104E780023F0010E0201B66F560E116E030E126E6C
:104E880090EC6CF0E806D8A44CEF27F04EEF27F032
:104E980054EF27F0170E086EFD0E096EDFEC66F072
:104EA800350E086EFD0E096EDFEC66F095EF27F003
:104EB8000101E905D8A463EF27F065EF27F06BEF50
:104EC80027F0440E086EFE0E096E78EC6BF0560E55
:104ED800116E030E126E90EC6CF095EF27F02A51CC
:104EE8000001F06FF16BF151000AD8B47EEF27F0A2
:104EF80095EF27F0F051000AD8B405EF23F0010A26
:104F0800D8B41AEF23F0030AD8B44AEF23F0010A01
:104F1800D8B45DEF23F0070AD8B45CEF27F095EF1B
:104F280027F012006A0E086E000E096E000E0B6E56
:104F38001C0E0A6E5CEC65F008C060F009C061F0F8
:104F48001C0E000160196111D8A4ADEF27F0AFEF76
:104F580027F03CEF2BF0000E626F170E686F040EFF
:104F6800696F6A51236E226A6AC024F06BC025F00B
:104F780025C024F0256AFF0E2416000E251622509F
:104F880024122350251224042510D8B4CEEF27F07C
:104F9800D0EF27F0D4EF27F03CEF2BF03CEF2BF0CD
:104FA8006C51236E226A20EE6CF0DECF24F0DDCF48
:104FB80025F025C024F0256AFF0E2416000E2516BC
:104FC8002250241223502512080E25182410D8B474
:104FD800F0EF27F0F2EF27F0F4EF27F03CEF2BF09B
:104FE800060E6E19D8B4FBEF27F0FDEF27F0FFEFA0
:104FF80027F03CEF2BF0040E6F19D8B406EF28F019
:1050080008EF28F00AEF28F03CEF2BF0080E666F47
:1050180020EE06F06851D9266951DA22FF0E78157C
:10502800266E000E7915276E000E7A15286E000E72
:105038007B15296E26C029F0286A276A266A10EE91
:1050480078F0000EE6142A6EFF0EE6142B6E000EA2
:10505800E6142C6E000EE6142D6E2CC02DF02BC01D
:105068002CF02AC02BF02A6A78C02EF079C02FF0D5
:105078007AC030F07BC031F02FC02EF030C02FF056
:1050880031C030F0316A000E2E14326EFF0E2F142C
:10509800336E000E3014346E000E3114356E78C045
:1050A80036F079C037F07AC038F07BC039F0190E85
:1050B80063EF28F0D8903932383237323632E82E5A
:1050C8005EEF28F0FF0E36143A6E000E37143B6E72
:1050D800000E38143C6E000E39143D6E32503A10F2
:1050E8003E6E33503B103F6E34503C10406E35508E
:1050F8003D10416E2A503E10426E2B503F10436EB9
:105108002C504010446E2D504110456E26504210D0
:10511800466E27504310476E28504410486E295059
:105128004510496EDE5046180DE1DE5047180AE179
:10513800DE50481807E1DE504918D8A4A6EF28F039
:10514800A8EF28F0D1EF28F020EE0AF06851D92610
:105158006951DA22DE506C1907E1DE506D19D8A4C6
:10516800B8EF28F0BAEF28F0D1EF28F020EE0CF0D5
:105178006851D9266951DA22000EDF6E20EE72F0EE
:1051880068C0E1FF69C0E2FF050EDBCFE3FFE80678
:10519800FCE2010E626FDEEF28F00D0E6827000EAC
:1051A800692366076651D8A4DCEF28F0DEEF28F003
:1051B8000CEF28F002010051011102110311D8B4BB
:1051C800E8EF28F0EAEF28F03CEF2BF0FF0E0001A3
:1051D8008215226E000E8315236E000E8415246E30
:1051E800000E8515256E22C025F0246A236A226ADE
:1051F80020EE82F0000EDE14266EFF0EDE14276EFF
:10520800000EDE14286E000EDE14296E28C029F068
:1052180027C028F026C027F0266A82C02AF083C05B
:105228002BF084C02CF085C02DF02BC02AF02CC0A8
:105238002BF02DC02CF02D6A000E2A142E6EFF0EB6
:105248002B142F6E000E2C14306E000E2D14316EA0
:1052580082C032F083C033F084C034F085C035F0AA
:10526800190E3CEF29F0D8903532343233323232CD
:10527800E82E37EF29F0FF0E3214366E000E331485
:10528800376E000E3414386E000E3514396E2E50F9
:1052980036103A6E2F5037103B6E305038103C6E37
:1052A800315039103D6E26503A103E6E27503B1053
:1052B8003F6E28503C10406E29503D10416E2250E0
:1052C8003E10426E23503F10436E24504010446EEF
:1052D80025504110456E0201005142180DE101515F
:1052E80043180AE10251441807E103514518D8A4AC
:1052F80080EF29F082EF29F03CEF2BF0000162519A
:10530800D8A489EF29F08BEF29F06AEF2AF0170E5D
:10531800686F040E696F170E646F040E656F080ED0
:10532800676F20EE0CF06451D9266551DA2210EE31
:105338000CF06851E1266951E222DE50E65CD8B0F3
:10534800A8EF29F0AAEF29F0AEEF29F064C068F0C1
:1053580065C069F00D0E6427000E65236707675165
:10536800D8A4B9EF29F0BBEF29F095EF29F020EE8A
:105378000CF06851D9266951DA22000EDF6E20EE52
:1053880072F068C0E1FF69C0E2FF050EDBCFE3FF02
:10539800E806FCE2FF0E7815226E000E7915236EE2
:1053A800000E7A15246E000E7B15256E22C025F09E
:1053B800246A236A226A20EE78F0000EDE14266E34
:1053C800FF0EDE14276E000EDE14286E000EDE14AB
:1053D800296E28C029F027C028F026C027F0266AA1
:1053E80078C02AF079C02BF07AC02CF07BC02DF061
:1053F8002BC02AF02CC02BF02DC02CF02D6A000EEB
:105408002A142E6EFF0E2B142F6E000E2C14306EE5
:10541800000E2D14316E78C032F079C033F07AC0A6
:1054280034F07BC035F0190E1FEF2AF0D8903532D2
:10543800343233323232E82E1AEF2AF0FF0E3214A9
:10544800366E000E3314376E000E3414386E000EAC
:105458003514396E2E5036103A6E2F5037103B6E79
:10546800305038103C6E315039103D6E26503A108D
:105478003E6E27503B103F6E28503C10406E29501E
:105488003D10416E22503E10426E23503F10436E35
:1054980024504010446E25504110456E20EE06F011
:1054A8006851D9266951DA2242C0DEFF43C0DEFFC7
:1054B80044C0DEFF45C0DEFF20EE0AF06851D92661
:1054C8006951DA226CC0DEFF6DC0DDFF7105701115
:1054D800D8A471EF2AF073EF2AF03CEF2BF0720E8C
:1054E8001A6E000E1B6E080E1D6E060E1C6E62EC08
:1054F80041F00001636F6305D8A485EF2AF087EFB8
:105508002AF0D2EF27F020EE72F010EE7CF0050EB4
:10551800DBCFE3FFE806FCE2720E076E000E086EB2
:10552800E00E096E020E0A6E000E0C6E060E0B6E71
:1055380084EC69F078C082F079C083F07AC084F096
:105548007BC085F0FF0E02010015226E000E0115CA
:10555800236E000E0215246E000E0315256E22C060
:1055680025F0246A236A226A000E0015266EFF0EB3
:105578000115276E000E0215286E000E0315296E00
:1055880028C029F027C028F026C027F0266A00C2C4
:105598002AF001C22BF002C22CF003C22DF02BC05E
:1055A8002AF02CC02BF02DC02CF02D6A000E2A14E6
:1055B8002E6EFF0E2B142F6E000E2C14306E000E64
:1055C8002D14316E00C232F001C233F002C234F041
:1055D80003C235F0190EF6EF2AF0D890353234327E
:1055E80033323232E82EF1EF2AF0FF0E3214366EE3
:1055F800000E3314376E000E3414386E000E351456
:10560800396E2E5036103A6E2F5037103B6E305090
:1056180038103C6E315039103D6E26503A103E6EAF
:1056280027503B103F6E28503C10406E29503D10CB
:10563800416E22503E100001786F23503F10796F61
:10564800245040107A6F255041107B6F020E716F05
:10565800000E706F6A0E086E000E096E000E0B6E5B
:105668001C0E0A6EACEC69F044EC5AF03CEF2BF0DF
:10567800120084C0D9FF85C0DAFFDECF86F0DDCF07
:1056880087F000018651896F886B84C0D9FF85C077
:10569800DAFFDECF8AF0DDCF8BF08BC08AF08B6B20
:1056A800FF0E8A17000E8B1788518A11B16F895126
:1056B8008B11B26F20EE06F08451D9268551DA227B
:1056C800DECF86F0DDCF87F08651896F886B20EEBC
:1056D80006F08451D9268551DA22DECF8AF0DDCF53
:1056E8008BF08BC08AF08B6BFF0E8A17000E8B171E
:1056F80088518A11B36F89518B11B46F20EE10F065
:105708008451D9268551DA22DECF86F0DECF87F0A4
:10571800DECF88F0DECF89F0FF0E86158A6F000E87
:1057280087158B6F000E88158C6F000E89158D6F8D
:105738008AC08DF08C6B8B6B8A6B20EE10F08451D5
:10574800D9268551DA22000EDE148E6FFF0EDE1484
:105758008F6F000EDE14906F000EDE14916F90C0F4
:1057680091F08FC090F08EC08FF08E6B20EE10F00D
:105778008451D9268551DA22DECF92F0DECF93F01C
:10578800DECF94F0DECF95F093C092F094C093F002
:1057980095C094F0956B000E9215966FFF0E9315B9
:1057A800976F000E9415986F000E9515996F20EE5F
:1057B80010F08451D9268551DA22DECF9AF0DECF57
:1057C8009BF0DECF9CF0DECF9DF0190EF1EF2BF0B1
:1057D800D8909D339C339B339A33E82EECEF2BF013
:1057E800FF0E9A159E6F000E9B159F6F000E9C155D
:1057F800A06F000E9D15A16F96519E11A26F975133
:105808009F11A36F9851A011A46F9951A111A56F71
:105818008E51A211A66F8F51A311A76F9051A41199
:10582800A86F9151A511A96F8A51A611B56F8B5117
:10583800A711B66F8C51A811B76F8D51A911B86F08
:1058480020EE0CF08451D9268551DA22DECF86F07D
:10585800DECF87F0DECF88F0DECF89F0FF0E861529
:105868008A6F000E87158B6F000E88158C6F000EDF
:1058780089158D6F8AC08DF08C6B8B6B8A6B20EECF
:105888000CF08451D9268551DA22000EDE148E6F71
:10589800FF0EDE148F6F000EDE14906F000EDE1404
:1058A800916F90C091F08FC090F08EC08FF08E6B8A
:1058B80020EE0CF08451D9268551DA22DECF92F001
:1058C800DECF93F0DECF94F0DECF95F093C092F068
:1058D80094C093F095C094F0956B000E9215966F56
:1058E800FF0E9315976F000E9415986F000E95157F
:1058F800996F20EE0CF08451D9268551DA22DECF3B
:105908009AF0DECF9BF0DECF9CF0DECF9DF0190E33
:1059180093EF2CF0D8909D339C339B339A33E82E29
:105928008EEF2CF0FF0E9A159E6F000E9B159F6F41
:10593800000E9C15A06F000E9D15A16F96519E112B
:10594800A26F97519F11A36F9851A011A46F9951FD
:10595800A111A56F8E51A211A66F8F51A311A76F28
:105968009051A411A86F9151A511A96F8A51A61140
:10597800B96F8B51A711BA6F8C51A811BB6F8D519C
:10598800A911BC6FBD91F10EBD17BD510F0B500988
:10599800BD6F20EE1AF08451D9268551DA22DECF68
:1059A80086F0DDCF87F08651896F886B20EE1AF07C
:1059B8008451D9268551DA22DECF8AF0DDCF8BF0EB
:1059C8008BC08AF08B6BFF0E8A17000E8B178851DD
:1059D8008A11BF6F89518B11C06F000EC26F000E04
:1059E800C16F000EC46F000EC36F20EE38F08451F3
:1059F800D9268551DA22DF50866F060E8617D8B46D
:105A080008EF2DF00AEF2DF011EF2DF0000E010137
:105A1800DE6F000EDD6FEDEF2DF020EE2CF08451DF
:105A2800D9268551DA22DE04D8A41DEF2DF01FEF08
:105A38002DF021EF2DF00AEF2DF020EE2AF0845101
:105A4800D9268551DA22DECFDDF1DDCFDEF1010185
:105A5800DD51DE11D8B433EF2DF035EF2DF0EDEF39
:105A68002DF0000120EE18F08451D9268551DA2254
:105A7800DE50DE10D8A443EF2DF045EF2DF04FEFA8
:105A88002DF020EE18F08451D9268551DA22010E26
:105A9800DE6E000EDD6E20EE18F08451D926855199
:105AA800DA220101DD51DE5CDE51DE58D8B05FEF4D
:105AB8002DF061EF2DF06CEF2DF0000120EE18F0C5
:105AC8008451D9268551DA22DECFDDF1DDCFDEF132
:105AD800000120EE1CF08451D9268551DA220101FB
