:040000005FEF00F0BE
:100008005982FACF03F0FBCF04F0D9CF05F0DACF4D
:1000180006F0F2AA12EF00F014EF00F01FEF00F064
:10002800F2A419EF00F01BEF00F01FEF00F0F6EC60
:1000380047F055EF00F0F2AC24EF00F026EF00F0A7
:1000480055EF00F0A3AA2BEF00F02DEF00F043EFDF
:1000580000F0A4AA32EF00F034EF00F043EF00F014
:1000680002D841EF00F00500FA6E02019E51FD6EC4
:100078009F51FE6EFF6AFA50120055EF00F09DA0E6
:1000880048EF00F04AEF00F055EF00F09EA04FEF68
:1000980000F051EF00F055EF00F0ABEC48F055EFF1
:1000A80000F006C0DAFF05C0D9FF04C0FBFF03C09B
:1000B800FAFF5992110053EF3CF0000E0001E66F71
:1000C80020EE2DF05350D9265450DA22DF50EA6F33
:1000D80020EE2EF05350D9265450DA22DF50E96F23
:1000E80053C0D9FF54C0DAFFDECF07F0DDCF08F0E8
:1000F80034EC4BF00009D8B484EF00F086EF00F040
:1001080073EF0DF0090E0001E96F9AEC4CF073EFF4
:100118000DF020EE02F05350D9265450DA22DEC1F9
:10012800DEFFDFC1DEFFE0C1DEFFE1C1DEFF20EE62
:1001380006F05350D9265450DA22C7C2DEFFC8C28F
:10014800DDFF20EE14F05350D9265450DA22DE6A2F
:10015800DE6ADE6ADD6A22EECBF010EE08F053505C
:10016800E1265450E222DECFE6FFDECFE6FFDECF07
:10017800E6FFDECFE6FF20EE08F05350D9265450B4
:10018800DA22DECFD1F0DECFD2F0DECFD3F0DECF71
:10019800D4F0010ED125D56F000ED221D66F000EF6
:1001A800D321D76F000ED421D86F20EE0CF0535016
:1001B800D9265450DA22D5C0DEFFD6C0DEFFD7C01C
:1001C800DEFFD8C0DEFF0201D5510001D26FD16B2E
:1001D80022EED5F0DECFD3F0DDCFD4F0D4C0D3F00B
:1001E800D46BFF0ED317000ED417D151D313D251AD
:1001F800D41320EE18F05350D9265450DA22D3C025
:10020800DEFFD4C0DDFF20EE1CF05350D926545039
:10021800DA22FBC1DEFFFCC1DDFF20EE38F05350CF
:10022800D9265450DA22120EDF6E20EE33F05350E6
:10023800D9265450DA22020EDE6E000EDD6E20EE54
:1002480035F05350D9265450DA22020EDE6E000ED5
:10025800DD6E20EE37F05350D9265450DA22030EC3
:10026800DF6E53C084F054C085F00EEC16F0030E18
:100278000001EA6FB3EF0DF0000E0001EA6F53C002
:1002880007F054C008F058EC37F0B3EF0DF0E9511F
:10029800D16FD26BD251000AD8B455EF01F0B3EF49
:1002A8000DF0D151000AD8B440EF01F0030AD8B4D8
:1002B8008DEF00F0B3EF0DF0B3EF0DF022EECBF0C1
:1002C80010EE08F05350E1265450E222DECFE6FF4C
:1002D800DECFE6FFDECFE6FFDECFE6FF010E02014E
:1002E800CB250001D16F000E0201CC210001D26F95
:1002F800000E0201CD210001D36F000E0201CE21B4
:100308000001D46F20EE0CF05350D9265450DA2255
:10031800D1C0DEFFD2C0DEFFD3C0DEFFD4C0DEFF17
:100328000201D5510001D26FD16B22EED5F0DECF9C
:10033800D3F0DDCFD4F0D4C0D3F0D46BFF0ED317F5
:10034800000ED417D151D313D251D41320EE18F084
:100358005350D9265450DA22D3C0DEFFD4C0DDFF73
:1003680020EE1CF05350D9265450DA22FBC1DEFF90
:10037800FCC1DDFF20EE33F05350D9265450DA2269
:10038800020EDE6E000EDD6E20EE35F05350D926DB
:100398005450DA22020EDE6E000EDD6E20EE37F0CB
:1003A8005350D9265450DA22030EDF6E20EE38F06F
:1003B8005350D9265450DA22120EDF6E35EF01F071
:1003C80020EE33F05350D9265450DA22000EDE6E58
:1003D800000EDD6E20EE10F05350D9265450DA226C
:1003E800DECFD1F0DECFD2F0DECFD3F0DECFD4F047
:1003F800010ED125D56F000ED221D66F000ED32164
:10040800D76F000ED421D86F0201CF510001D51942
:1004180013E10201D0510001D6190EE10201D151B8
:100428000001D71909E10201D2510001D819D8A455
:1004380020EF02F022EF02F0CBEF02F020EE10F0F6
:100448005350D9265450DA22DECFD1F0DECFD2F085
:10045800DECFD3F0DECFD4F0010ED125D56F000E5C
:10046800D221D66F000ED321D76F000ED421D86FBA
:1004780020EE10F05350D9265450DA22D5C0DEFFB2
:10048800D6C0DEFFD7C0DEFFD8C0DEFF20EE38F0D2
:100498005350D9265450DA22100EDF6E22EECBF0DC
:1004A80010EE08F05350E1265450E222DECFE6FF6A
:1004B800DECFE6FFDECFE6FFDECFE6FF010E02016C
:1004C800CB250001D16F000E0201CC210001D26FB3
:1004D800000E0201CD210001D36F000E0201CE21D2
:1004E8000001D46F20EE0CF05350D9265450DA2274
:1004F800D1C0DEFFD2C0DEFFD3C0DEFFD4C0DEFF36
:100508000201D5510001D26FD16B22EED5F0DECFBA
:10051800D3F0DDCFD4F0D4C0D3F0D46BFF0ED31713
:10052800000ED417D151D313D251D41320EE18F0A2
:100538005350D9265450DA22D3C0DEFFD4C0DDFF91
:1005480020EE1CF05350D9265450DA22FBC1DEFFAE
:10055800FCC1DDFF010ED96F53C084F054C085F093
:100568000EEC16F00001D919D8A4BDEF02F0BFEFC8
:1005780002F0B3EF0DF0040EEA6F20EE39F053509D
:10058800D9265450DA22030EDF6EB3EF0DF022EEB7
:10059800CFF010EE10F05350E1265450E222DECF97
:1005A800E6FFDECFE6FFDECFE6FFDECFE6FF20EE9A
:1005B80038F05350D9265450DA22140EDF6E010E4B
:1005C800DA6F53C084F054C085F00EEC16F00001C9
:1005D800DA19D8A4F2EF02F0F4EF02F0B3EF0DF05D
:1005E80040EF01F020EE33F05350D9265450DA2270
:1005F800000EDE6E000EDD6E20EE10F05350D92690
:100608005450DA22DECFD1F0DECFD2F0DECFD3F0F5
:10061800DECFD4F0010ED125D56F000ED221D66FD2
:10062800000ED321D76F000ED421D86F0201CF510D
:100638000001D51913E10201D0510001D6190EE1CC
:100648000201D1510001D71909E10201D25100017B
:10065800D819D8A432EF03F034EF03F0CCEF03F04D
:1006680020EE10F05350D9265450DA22DECFD1F0C4
:10067800DECFD2F0DECFD3F0DECFD4F0010ED1251D
:10068800D56F000ED221D66F000ED321D76F000E82
:10069800D421D86F20EE10F05350D9265450DA22C6
:1006A800D5C0DEFFD6C0DEFFD7C0DEFFD8C0DEFF74
:1006B80020EE38F05350D9265450DA22100EDF6E4F
:1006C80022EECBF010EE08F05350E1265450E2220F
:1006D800DECFE6FFDECFE6FFDECFE6FFDECFE6FFCA
:1006E800010E0201CB250001D16F000E0201CC21C1
:1006F8000001D26F000E0201CD210001D36F000E60
:100708000201CE210001D46F20EE0CF05350D926FF
:100718005450DA22D1C0DEFFD2C0DEFFD3C0DEFFE4
:10072800D4C0DEFF0201D5510001D26FD16B22EE99
:10073800D5F0DECFD3F0DDCFD4F0D4C0D3F0D46B76
:10074800FF0ED317000ED417D151D313D251D4139F
:1007580020EE18F05350D9265450DA22D3C0DEFFC9
:10076800D4C0DDFF20EE1CF05350D9265450DA22B5
:10077800FBC1DEFFFCC1DDFF040EEA6F20EE39F09D
:100788005350D9265450DA22030EDF6EB3EF0DF022
:1007980022EECFF010EE10F05350E1265450E22232
:1007A800DECFE6FFDECFE6FFDECFE6FFDECFE6FFF9
:1007B80020EE38F05350D9265450DA22040EDF6E5A
:1007C800010EDB6F53C084F054C085F00EEC16F0B8
:1007D8000001DB19D8A4F3EF03F0F5EF03F0B3EF52
:1007E8000DF040EF01F020EE37F05350D926545069
:1007F800DA22DF50D8B403EF04F005EF04F03EEF3F
:1008080004F0010EDC6F53C084F054C085F00EEC88
:1008180016F00001DC19D8A414EF04F016EF04F068
:10082800B3EF0DF020EE38F05350D9265450DA22A9
:10083800DFA421EF04F023EF04F025EF04F040EFEC
:1008480001F020EE38F05350D9265450DA22DFA8B0
:1008580030EF04F032EF04F060EF01F0040EEA6FBD
:1008680020EE39F05350D9265450DA22030EDF6EA9
:10087800B3EF0DF020EE38F05350D9265450DA2259
:10088800040EDF6E010EDD6F53C084F054C085F096
:100898000EEC16F00001DD19D8A455EF04F057EF5F
:1008A80004F0B3EF0DF040EF01F0E951D16FD26BD6
:1008B800D251000AD8B463EF04F0B3EF0DF0D15170
:1008C800000AD8B440EF01F0030AD8B462EF01F08F
:1008D800070AD8B4F6EF02F0010AD8B4E4EF01F041
:1008E8000C0AD8B440EF01F0030AD8B440EF01F085
:1008F800060AD8B4F7EF03F0B3EF0DF053C0D9FFF1
:1009080054C0DAFF0201C951DE1807E1CA51DE18E6
:10091800D8A491EF04F093EF04F0B3EF0DF020EEBC
:1009280033F05350D9265450DA22000EDE6E000EF2
:10093800DD6E20EE02F05350D9265450DA22010120
:10094800DE51DE180DE1DF51DE180AE1E051DE1854
:1009580007E1E151DE18D8A4B4EF04F0B6EF04F0D3
:1009680000EF05F020EE06F05350D9265450DA2255
:100978000201C751DE1807E1C851DE18D8A4C7EF35
:1009880004F0C9EF04F000EF05F020EE10F053502A
:10099800D9265450DA22DECFD1F0DECFD2F0DECF26
:1009A800D3F0DECFD4F0010E0001D125D56F000EB3
:1009B800D221D66F000ED321D76F000ED421D86F65
:1009C8000201CF510001D51913E10201D0510001F4
:1009D800D6190EE10201D1510001D71909E102012E
:1009E800D2510001D819D8A4FCEF04F0FEEF04F0AE
:1009F80000EF05F0040EEA6F20EE39F05350D926C7
:100A08005450DA22030EDF6EB3EF0DF020EE02F041
:100A18005350D9265450DA220101DE51DE180DE177
:100A2800DF51DE180AE1E051DE1807E1E151DE1876
:100A3800D8A421EF05F023EF05F0B3EF0DF020EE79
:100A480006F05350D9265450DA220201C751DE1855
:100A580007E1C851DE18D8A434EF05F036EF05F0E9
:100A6800B3EF0DF020EE0CF05350D9265450DA2293
:100A7800CB51DE180DE1CC51DE180AE1CD51DE185C
:100A880007E1CE51DE18D8A44CEF05F04EEF05F083
:100A9800B3EF0DF020EE10F05350D9265450DA225F
:100AA800DECFD1F0DECFD2F0DECFD3F0DECFD4F080
:100AB800010E0001D125D56F000ED221D66F000E90
:100AC800D321D76F000ED421D86F0201CF51000176
:100AD800D51913E10201D0510001D6190EE1020126
:100AE800D1510001D71909E10201D2510001D819E9
:100AF800D8A481EF05F083EF05F0B3EF0DF020EEF9
:100B080010F05350D9265450DA22DECFD1F0DECF80
:100B1800D2F0DECFD3F0DECFD4F0010ED125D56FE1
:100B2800000ED221D66F000ED321D76F000ED4212C
:100B3800D86F20EE10F05350D9265450DA22D5C081
:100B4800DEFFD6C0DEFFD7C0DEFFD8C0DEFF20EE56
:100B580033F05350D9265450DA22000EDE6E000EC0
:100B6800DD6E040EEA6F20EE39F05350D92654504A
:100B7800DA22030EDF6EB3EF0DF020EE33F05350A0
:100B8800D9265450DA22000EDE6E000EDD6E20EEFD
:100B980038F05350D9265450DA22010EDF6E20EE79
:100BA80033F05350D9265450DA22020EDE6E000E6E
:100BB800DD6E20EE35F05350D9265450DA22020E5D
:100BC800DE6E000EDD6E20EE37F05350D9265450FD
:100BD800DA22050EDF6E050EEA6F53C084F054C0AA
:100BE80085F00EEC16F0B3EF0DF053C0D9FF54C0EA
:100BF800DAFF0201C951DE1807E1CA51DE18D8A48C
:100C080008EF06F00AEF06F0B3EF0DF020EE0CF057
:100C18005350D9265450DA22CB51DE180DE1CC516D
:100C2800DE180AE1CD51DE1807E1CE51DE18D8A44E
:100C380020EF06F022EF06F0B3EF0DF020EE02F001
:100C48005350D9265450DA22DE6ADE6ADE6ADD6A3B
:100C580020EE06F05350D9265450DA22000EDE6EEC
:100C6800000EDD6E20EE10F05350D9265450DA22D3
:100C7800DE6ADE6ADE6ADD6A20EE14F05350D92699
:100C88005450DA22DE6ADE6ADE6ADD6A20EE08F097
:100C98005350D9265450DA22DE6ADE6ADE6ADD6AEB
:100CA80020EE0CF05350D9265450DA22DE6ADE6A60
:100CB800DE6ADD6A20EE18F05350D9265450DA2245
:100CC800000EDE6E000EDD6E20EE1CF05350D926AD
:100CD8005450DA22B40EDE6E050EDD6E010E0001F0
:100CE800EA6FB3EF0DF020EE37F05350D926545089
:100CF800DA22DF50D8B483EF06F085EF06F087EFED
:100D080006F0F1EF05F020EE38F05350D926545094
:100D1800DA22040EDF6E010EDE6F53C084F054C079
:100D280085F00EEC16F00001DE19D8A49EEF06F04F
:100D3800A0EF06F0B3EF0DF020EE02F05350D926E5
:100D48005450DA22DE6ADE6ADE6ADD6A20EE06F0D8
:100D58005350D9265450DA22000EDE6E000EDD6E96
:100D680020EE10F05350D9265450DA22DE6ADE6A9B
:100D7800DE6ADD6A20EE14F05350D9265450DA2288
:100D8800DE6ADE6ADE6ADD6A20EE08F05350D92694
:100D98005450DA22DE6ADE6ADE6ADD6A20EE0CF082
:100DA8005350D9265450DA22DE6ADE6ADE6ADD6ADA
:100DB80020EE18F05350D9265450DA22000EDE6E79
:100DC800000EDD6E20EE1CF05350D9265450DA2266
:100DD800B40EDE6E050EDD6E72EF06F0E951D16FCE
:100DE800D26BD251000AD8B4FCEF06F0B3EF0DF085
:100DF800D151000AD8B4C1EF05F0040AD8B40AEFFB
:100E080005F0010AD8B482EF04F00C0AD8B4F9EF5F
:100E180005F0030AD8B4F9EF05F0060AD8B477EF5D
:100E280006F0B3EF0DF020EE02F05350D9265450DF
:100E3800DA220101DE51DE180DE1DF51DE180AE188
:100E4800E051DE1807E1E151DE18D8A42EEF07F0D3
:100E580030EF07F0B3EF0DF020EE0CF05350D92629
:100E68005450DA220201CB51DE180DE1CC51DE18C4
:100E78000AE1CD51DE1807E1CE51DE18D8A447EFBC
:100E880007F049EF07F0B3EF0DF020EE14F05350E0
:100E9800D9265450DA22CF51DE5CD051DE58D151D8
:100EA800DE58D251DE58D8B05CEF07F05EEF07F09D
:100EB800B3EF0DF020EE10F05350D9265450DA223B
:100EC800DECFD1F0DECFD2F0DECFD3F0DECFD4F05C
:100ED800010E0001D125D56F000ED221D66F000E6C
:100EE800D321D76F000ED421D86F0201CF51000152
:100EF800D55D0201D0510001D6590201D15100013E
:100F0800D7590201D2510001D859D8A08EEF07F065
:100F180090EF07F060EF01F020EE10F05350D92663
:100F28005450DA22DECFD1F0DDCFD2F00201CF511A
:100F38000001D15DE76F0201D0510001D259E86F7D
:100F480020EE25F05350D9265450DA22DECFD1F0C6
:100F5800DDCFD2F0E751D15FE851D25B20EE25F02A
:100F68005350D9265450DA22D1C0DEFFD2C0DDFF5B
:100F780020EE27F05350D9265450DA22DECFD1F094
:100F8800DDCFD2F0E751D127E851D22320EE27F068
:100F98005350D9265450DA22D1C0DEFFD2C0DDFF2B
:100FA80022EECFF0FF0EDE24D16FFF0EDE20D26FCF
:100FB800FF0EDE20D36FFF0EDE20D46F20EE14F07C
:100FC8005350D9265450DA22D1C0DEFFD2C0DEFFFA
:100FD800D3C0DEFFD4C0DEFF22EECFF010EE10F05B
:100FE8005350E1265450E222DECFE6FFDECFE6FF83
:100FF800DECFE6FFDECFE6FF0201A251A311D8A49F
:1010080008EF08F00AEF08F018EF08F020EE10F0EB
:101018005350D9265450DA22DECF6CF2DECF6DF26F
:10102800DECF6EF2DECF6FF220EE27F05350D926D6
:101038005450DA22DE50DE10D8A425EF08F027EF4E
:1010480008F04AEF08F020EE29F05350D926545002
:10105800DA22020EDE18D8A434EF08F036EF08F0D2
:10106800BFEF08F020EE29F05350D9265450DA2269
:10107800000EDF6E20EE33F05350D9265450DA229A
:10108800000EDE6E000EDD6EBFEF08F0A251A31158
:10109800D8B451EF08F053EF08F077EF08F020EEDE
:1010A80025F05350D9265450DA22A0C2DEFFA1C23F
:1010B800DDFF20EE2AF05350D9265450DA22A2C27E
:1010C800DEFFA3C2DDFF20EE10F05350D9265450A6
:1010D800DA226CC2DEFF6DC2DEFF6EC2DEFF6FC2B7
:1010E800DEFF87EF08F020EE27F05350D926545042
:1010F800DA2210EE2AF05350E1265450E222DECFD5
:10110800E6FFDDCFE5FF20EE35F05350D9265450E9
:10111800DA22020EDE6E000EDD6E20EE37F053503E
:10112800D9265450DA22050EDF6E53C084F054C01D
:1011380085F00EEC16F00201A251A311D8B4A7EF66
:1011480008F0A9EF08F0BFEF08F06851CF190FE1D8
:101158006951D0190CE16A51D11909E16B51D219C1
:10116800D8B4B9EF08F0BBEF08F0BFEF08F0000EF5
:10117800A36F000EA26F0101EC51ED11D8B4C7EFB7
:1011880008F0C9EF08F060EF01F022EECBF010EEA6
:1011980008F05350E1265450E222DECFE6FFDECFBE
:1011A800E6FFDECFE6FFDECFE6FFECC1C5F0EDC11E
:1011B800C6F052EC32F0B3EF0DF020EE38F0535099
:1011C800D9265450DA22110EDF6E050EEA6F20EE92
:1011D80033F05350D9265450DA22000EDE6E000E3A
:1011E800DD6E20EE33F05350D9265450DA22020E29
:1011F800DE6E000EDD6E20EE35F05350D9265450C9
:10120800DA22020EDE6E000EDD6E20EE37F053504D
:10121800D9265450DA22050EDF6EF1EF05F020EEE4
:1012280002F05350D9265450DA220101DE51DE185B
:101238000DE1DF51DE180AE1E051DE1807E1E15166
:10124800DE18D8A42AEF09F02CEF09F0B3EF0DF05F
:1012580020EE0CF05350D9265450DA220201CB511B
:10126800DE180DE1CC51DE180AE1CD51DE1807E198
:10127800CE51DE18D8A443EF09F045EF09F0B3EFDB
:101288000DF020EE2AF05350D9265450DA22000EE1
:10129800DE6E000EDD6E22EECFF010EE10F0535031
:1012A800E1265450E222DECFE6FFDECFE6FFDECFB6
:1012B800E6FFDECFE6FF20EE0CF05350D92654505F
:1012C800DA22DECFD1F0DECFD2F0DECFD3F0DECF20
:1012D800D4F0010E0001D125D56F000ED221D66FB2
:1012E800000ED321D76F000ED421D86F20EE0CF05A
:1012F8005350D9265450DA22D5C0DEFFD6C0DEFFBF
:10130800D7C0DEFFD8C0DEFF0101EC51ED11D8B423
:1013180090EF09F092EF09F0A8EF09F022EECBF078
:1013280010EE08F05350E1265450E222DECFE6FFDB
:10133800DECFE6FFDECFE6FFDECFE6FFECC1C5F08D
:10134800EDC1C6F052EC32F020EE39F05350D926F8
:101358005450DA22040EDF6E20EE33F05350D926B3
:101368005450DA22020EDE6E000EDD6E20EE35F0ED
:101378005350D9265450DA22020EDE6E000EDD6E6E
:1013880020EE37F05350D9265450DA22050EDF6E7E
:1013980020EE38F05350D9265450DA22110EDF6E61
:1013A800090E0001EA6FF1EF05F020EE38F0535016
:1013B800D9265450DA22040EDF6E53C084F054C08C
:1013C80085F00EEC16F040EF01F020EE37F05350A8
:1013D800D9265450DA22DF50D8B4F5EF09F0F7EFE8
:1013E80009F0FBEF09F03CEC44F0B3EF0DF020EE10
:1013F80038F05350D9265450DA22040EDF6E010E0D
:10140800DF6F53C084F054C085F00EEC16F0000175
:10141800DF19D8A412EF0AF014EF0AF0B3EF0DF0B9
:1014280040EF01F0E951D16FD26BD251000AD8B424
:1014380020EF0AF0B3EF0DF0D151000AD8B4E1EF74
:1014480008F0040AD8B417EF07F0020AD8B4B3EFCB
:101458000DF0010AD8B413EF09F00E0AD8B4D9EF89
:1014680009F0030AD8B4D9EF09F0060AD8B4E9EFAD
:1014780009F0B3EF0DF020EE38F05350D926545050
:10148800DA22100EDF6E20EE0CF05350D92654509D
:10149800DA220201CB51DE180DE1CC51DE180AE147
:1014A800CD51DE1807E1CE51DE18D8A45EEF0AF060
:1014B80060EF0AF0B3EF0DF020EE2AF05350D92672
:1014C8005450DA22000EDE6E000EDD6E20EE10F0B3
:1014D8005350D9265450DA22DECFD1F0DECFD2F0E5
:1014E800DECFD3F0DECFD4F0010E0001D125D56FC9
:1014F800000ED221D66F000ED321D76F000ED42153
:10150800D86F20EE10F05350D9265450DA22D5C0A7
:10151800DEFFD6C0DEFFD7C0DEFFD8C0DEFF20EE7C
:101528000CF05350D9265450DA22DECFD1F0DECF5A
:10153800D2F0DECFD3F0DECFD4F0010ED125D56FB7
:10154800000ED221D66F000ED321D76F000ED42102
:10155800D86F20EE0CF05350D9265450DA22D5C05B
:10156800DEFFD6C0DEFFD7C0DEFFD8C0DEFF010E2B
:10157800E06F53C084F054C085F00EEC16F0000103
:10158800E019D8A4CAEF0AF0CCEF0AF0B3EF0DF0D7
:10159800080EEA6FB3EF0DF020EE33F05350D92662
:1015A8005450DA22020EDE6E000EDD6E20EE37F0A9
:1015B8005350D9265450DA22010EDF6E060EEA6F18
:1015C800B3EF0DF020EE38F05350D9265450DA22FC
:1015D800100EDF6E20EE0CF05350D9265450DA224C
:1015E8000201CB51DE180DE1CC51DE180AE1CD51D4
:1015F800DE1807E1CE51DE18D8A405EF0BF007EF8F
:101608000BF0B3EF0DF020EE2AF05350D9265450CA
:10161800DA22000EDE6E000EDD6E20EE10F0535062
:10162800D9265450DA22DECFD1F0DECFD2F0DECF89
:10163800D3F0DECFD4F0010E0001D125D56F000E16
:10164800D221D66F000ED321D76F000ED421D86FC8
:1016580020EE10F05350D9265450DA22D5C0DEFFC0
:10166800D6C0DEFFD7C0DEFFD8C0DEFF20EE0CF00C
:101678005350D9265450DA22DECFD1F0DECFD2F043
:10168800DECFD3F0DECFD4F0010ED125D56F000E1A
:10169800D221D66F000ED321D76F000ED421D86F78
:1016A80020EE0CF05350D9265450DA22D5C0DEFF74
:1016B800D6C0DEFFD7C0DEFFD8C0DEFF010EE16F67
:1016C80053C084F054C085F00EEC16F00001E11907
:1016D800D8A471EF0BF073EF0BF0B3EF0DF00A0E17
:1016E800EA6FB3EF0DF020EE37F05350D92654507F
:1016F800DA22DF50D8B483EF0BF085EF0BF087EFD9
:101708000BF0F1EF05F020EE38F05350D926545085
:10171800DA22040EDF6E010EE26F53C084F054C06B
:1017280085F00EEC16F00001E219D8A49EEF0BF03C
:10173800A0EF0BF0B3EF0DF040EF01F0E951D16FDE
:10174800D26BD251000AD8B4ACEF0BF0B3EF0DF066
:10175800D151040AD8B4D0EF0AF0020AD8B43FEF46
:101768000AF0010AD8B4E6EF0AF00B0AD8B477EF0A
:101778000BF0B3EF0DF020EE38F05350D92654504B
:10178800DA22100EDF6E20EE0CF05350D92654509A
:10179800DA220201CB51DE180DE1CC51DE180AE144
:1017A800CD51DE1807E1CE51DE18D8A4DEEF0BF0DC
:1017B800E0EF0BF0B3EF0DF020EE2AF05350D926EE
:1017C8005450DA22000EDE6E000EDD6E20EE10F0B0
:1017D8005350D9265450DA22DECFD1F0DECFD2F0E2
:1017E800DECFD3F0DECFD4F0010E0001D125D56FC6
:1017F800000ED221D66F000ED321D76F000ED42150
:10180800D86F20EE10F05350D9265450DA22D5C0A4
:10181800DEFFD6C0DEFFD7C0DEFFD8C0DEFF20EE79
:101828000CF05350D9265450DA22DECFD1F0DECF57
:10183800D2F0DECFD3F0DECFD4F0010ED125D56FB4
:10184800000ED221D66F000ED321D76F000ED421FF
:10185800D86F20EE0CF05350D9265450DA22D5C058
:10186800DEFFD6C0DEFFD7C0DEFFD8C0DEFF010E28
:10187800E36F53C084F054C085F00EEC16F00001FD
:10188800E319D8A44AEF0CF04CEF0CF0B3EF0DF0CD
:1018980073EF0BF020EE37F05350D9265450DA226C
:1018A800DF50D8B45AEF0CF05CEF0CF05EEF0CF0A0
:1018B800F1EF05F020EE38F05350D9265450DA22D3
:1018C800040EDF6E010EE46F53C084F054C085F03F
:1018D8000EEC16F00001E419D8A475EF0CF077EFC0
:1018E8000CF0B3EF0DF040EF01F0E951D16FD26B7E
:1018F800D251000AD8B483EF0CF0B3EF0DF0D151F8
:10190800060AD8B4BFEF0BF0010AD8B4BFEF0BF04A
:101918000B0AD8B44EEF0CF0B3EF0DF0E951D16FCC
:10192800D26BD251000AD8B49CEF0CF0B3EF0DF093
:10193800D151040AD8B473EF0BF0B3EF0DF020EED9
:1019480002F05350D9265450DA220101DE51DE1834
:101958000DE1DF51DE180AE1E051DE1807E1E1513F
:10196800DE18D8A4BAEF0CF0BCEF0CF0B3EF0DF012
:1019780020EE06F05350D9265450DA220201C751FE
:10198800DE1807E1C851DE18D8A4CDEF0CF0CFEF70
:101998000CF0B3EF0DF040EF01F020EE37F05350AC
:1019A800D9265450DA22DF50D8B4DDEF0CF0DFEF3F
:1019B8000CF0E1EF0CF0F1EF05F020EE38F05350A9
:1019C800D9265450DA22040EDF6E010EE56F53C09B
:1019D80084F054C085F00EEC16F00001E519D8A487
:1019E800F8EF0CF0FAEF0CF0B3EF0DF040EF01F068
:1019F800E951D16FD26BD251000AD8B406EF0DF07D
:101A0800B3EF0DF0D151040AD8B4A3EF0CF0030AD8
:101A1800D8B4A3EF0CF00B0AD8B4D1EF0CF0B3EFA5
:101A28000DF020EE33F05350D9265450DA22020E2E
:101A3800DE6E000EDD6E20EE35F05350D926545080
:101A4800DA22020EDE6E000EDD6E20EE37F0535005
:101A5800D9265450DA22030EDF6E20EE38F05350A8
:101A6800D9265450DA22020EDF6E53C084F054C0D7
:101A780085F00EEC16F0020E0001EA6F010EE66F1B
:101A8800B3EF0DF020EE02F05350D9265450DA226D
:101A9800DE6ADE6ADE6ADD6A20EE06F05350D92679
:101AA8005450DA22000EDE6E000EDD6E010EEA6F73
:101AB80042EF0DF0E951D16FD26BD251000AD8B480
:101AC80068EF0DF0B3EF0DF0D151010AD8B415EF5E
:101AD8000DF0030AD8B446EF0DF0B3EF0DF020EE89
:101AE8002DF05350D9265450DA22DF500001D16F1F
:101AF800D26BD251000AD8B484EF0DF0B3EF0DF0D9
:101B0800D151000AD8B45EEF0DF0010AD8B44BEFFA
:101B180001F0030AD8B459EF04F0010AD8B4F2EF7F
:101B280006F0070AD8B416EF0AF0010AD8B4A2EFF3
:101B38000BF0030AD8B479EF0CF0010AD8B4B3EF6C
:101B48000DF00F0AD8B492EF0CF0010AD8B4FCEFEC
:101B58000CF0030AD8B440EF01F0B3EF0DF020EE1B
:101B68002EF05350D9265450DA220D0EDF6E20EE97
:101B78002DF05350D9265450DA22EAC0DFFF000175
:101B8800E65112004BC0D9FF4CC0DAFFDECFF6FF9A
:101B9800DDCFF7FFF86A0800F550250AD8A4D7EF7B
:101BA8000DF0D9EF0DF04AEF12F04BC0D9FF4CC041
:101BB800DAFFDE2A000EDD22000E0101E36F000EBF
:101BC800E26FE2C1E6F1E3C1E7F1E469E569000E1D
:101BD8000001716F000E706F3EEF0EF00101E6819B
:101BE8004BC0D9FF4CC0DAFFDE2A000EDD223EEFE3
:101BF8000EF00101E683F4EF0DF00101E685F4EF44
:101C08000DF00101E687F4EF0DF00101E689F4EF2C
:101C18000DF0000E716F010E706F3EEF0EF04BC0AD
:101C2800D9FF4CC0DAFFDECFF6FFDDCFF7FFF86A49
:101C38000800F550606F616B6151000AD8B427EF56
:101C48000EF00DEF0EF06051200AD8B405EF0EF03B
:101C5800030AD8B409EF0EF0080AD8B401EF0EF061
:101C6800060AD8B4F2EF0DF01D0AD8B4FDEF0DF056
:101C78000DEF0EF0000170517111D8B446EF0EF05F
:101C880048EF0EF013EF0EF00101E6A14EEF0EF053
:101C980050EF0EF051EF0EF0E6934BC0D9FF4CC059
:101CA800DAFFDECFF6FFDDCFF7FFF86A0800F55060
:101CB8002A0AD8A462EF0EF064EF0EF08DEF0EF052
:101CC8004BC0D9FF4CC0DAFFDE2A000EDD224DC022
:101CD800D9FF4EC0DAFFDFCF60F0020EDE26DFCF7D
:101CE80061F0000EDD2260C0D9FF61C0DAFFDECFEF
:101CF800E2F1DDCFE3F1E3BF86EF0EF084EF0EF003
:101D0800D2EF0EF0E681E26DE31FD8B0E32BD2EFFD
:101D18000EF04BC0D9FF4CC0DAFFDECF0EF0DDCF9E
:101D28000FF04CEC2FF00EC0E2F10FC0E3F1A4EF7E
:101D38000EF04BC0D9FF4CC0DAFFDE2A000EDD22C0
:101D4800D00E0001606FFF0E616F4BC0D9FF4CC011
:101D5800DAFFDECFF6FFDDCFF7FFF86A0800F550AF
:101D6800626F636B605162276151632363510AE1BB
:101D78000A0E625DD8A0C3EF0EF0C6EF0EF0010E9A
:101D8800C7EF0EF0000E726F736B72517311D8A407
:101D9800D0EF0EF0D2EF0EF09DEF0EF04BC0D9FF52
:101DA8004CC0DAFFDECFF6FFDDCFF7FFF86A080098
:101DB800F5502E0AD8A4E3EF0EF0E5EF0EF066EF2B
:101DC8000FF0000E0101E56F000EE46F4BC0D9FF64
:101DD8004CC0DAFFDE2A000EDD224BC0D9FF4CC012
:101DE800DAFFDECFF6FFDDCFF7FFF86A0800F5501F
:101DF8002A0AD8A402EF0FF004EF0FF021EF0FF03A
:101E08004BC0D9FF4CC0DAFFDE2A000EDD224DC0E0
:101E1800D9FF4EC0DAFFDFCF60F0020EDE26DFCF3B
:101E280061F0000EDD2260C0D9FF61C0DAFFDECFAD
:101E3800E4F1DDCFE5F166EF0FF04BC0D9FF4CC000
:101E4800DAFFDECF0EF0DDCF0FF04CEC2FF00EC036
:101E5800E4F10FC0E5F138EF0FF04BC0D9FF4CC0EB
:101E6800DAFFDE2A000EDD22D00E0001606FFF0EC1
:101E7800616F4BC0D9FF4CC0DAFFDECFF6FFDDCF74
:101E8800F7FFF86A0800F550626F636B60516227CC
:101E98006151632363510AE10A0E625DD8A057EFCE
:101EA8000FF05AEF0FF0010E5BEF0FF0000E746F9A
:101EB800756B74517511D8A464EF0FF066EF0FF0CD
:101EC80031EF0FF04BC0D9FF4CC0DAFFDECFF6FF81
:101ED800DDCFF7FFF86A0800F550640AD8B477EF49
:101EE8000FF079EF0FF08CEF0FF04BC0D9FF4CC01B
:101EF800DAFFDECFF6FFDDCFF7FFF86A0800F5500E
:101F0800690AD8A48AEF0FF08CEF0FF0CDEF0FF02D
:101F18004BC0D9FF4CC0DAFFDE2A000EDD224DC0CF
:101F2800D9FF4EC0DAFFDFCF60F0020EDE26DFCF2A
:101F380061F0000EDD2260C0D9FF61C0DAFFDECF9C
:101F480076F0DDCF77F00001000E77BFFF0E786FD7
:101F5800796F7A6F7B6F7C6F7D6F49C022F04AC0C2
:101F680023F076C024F077C025F078C026F079C039
:101F780027F07AC028F07BC029F07CC02AF07DC009
:101F88002BF07EEC1FF022C049F023C04AF066EF28
:101F980012F04BC0D9FF4CC0DAFFDECF07F0DDCF1F
:101FA80008F0ED0E096EFF0E0A6E000E0C6E020EA2
:101FB8000B6EA5EC35F007500810D8B4E6EF0FF01B
:101FC800E8EF0FF003EF10F04BC0D9FF4CC0DAFF79
:101FD800DECF07F0DDCF08F0F00E096EFF0E0A6EB7
:101FE800000E0C6E020E0B6EA5EC35F007500810B3
:101FF800D8A401EF10F003EF10F047EF10F0020E35
:102008004BC0D9FF4CC0DAFFDE26000EDD224DC0E2
:10201800D9FF4EC0DAFFDFCF60F0040EDE26DFCF37
:1020280061F0000EDD2260C0D9FF61C0DAFFDECFAB
:1020380062F0DECF63F0DECF64F0DECF65F062C021
:1020480066F063C067F064C068F065C069F00001BD
:102058006A6B69BF6A696AC06BF06AC06CF06AC073
:102068006DF066C076F067C077F068C078F069C038
:1020780079F06AC07AF06BC07BF06CC07CF06DC000
:102088007DF0B1EF0FF04BC0D9FF4CC0DAFFDECFC7
:10209800F6FFDDCFF7FFF86A0800F550730AD8A4F9
:1020A80058EF10F05AEF10F085EF10F04BC0D9FF41
:1020B8004CC0DAFFDE2A000EDD224DC0D9FF4EC02B
:1020C800DAFFDFCF60F0020EDE26DFCF61F0000E10
:1020D800DD2260C0D9FF61C0DAFFDECF6EF0DDCF50
:1020E8006FF049C010F04AC011F06EC012F06FC016
:1020F80013F07DEC2EF010C049F011C04AF066EFE5
:1021080012F04BC0D9FF4CC0DAFFDECFF6FFDDCFAF
:10211800F7FFF86A0800F550750AD8A496EF10F092
:1021280098EF10F0DAEF10F04BC0D9FF4CC0DAFF8F
:10213800DE2A000EDD224DC0D9FF4EC0DAFFDFCF08
:1021480060F0020EDE26DFCF61F0000EDD2260C0F7
:10215800D9FF61C0DAFFDECF62F0DDCF63F062C085
:102168007FF063C080F00001816B826B836B846BAE
:10217800856B866B49C022F04AC023F07FC024F0EB
:1021880080C025F081C026F082C027F083C028F0E7
:1021980084C029F085C02AF086C02BF0BCEC2AF058
:1021A80022C049F023C04AF066EF12F04BC0D9FFB5
:1021B8004CC0DAFFDECF07F0DDCF08F0F30E096E72
:1021C800FF0E0A6E000E0C6E020E0B6EA5EC35F0BB
:1021D80007500810D8A4F3EF10F0F5EF10F024EF33
:1021E80011F0020E4BC0D9FF4CC0DAFFDE26000EFC
:1021F800DD224DC0D9FF4EC0DAFFDFCF60F0040EFC
:10220800DE26DFCF61F0000EDD2260C0D9FF61C09D
:10221800DAFFDECF62F0DECF63F0DECF64F0DECF30
:1022280065F0000162517F6F6351806F6451816F67
:102238006551826F836B846B856B866BBEEF10F084
:102248004BC0D9FF4CC0DAFFDECFF6FFDDCFF7FF7A
:10225800F86A0800F550780AD8B435EF11F037EF6E
:1022680011F04AEF11F04BC0D9FF4CC0DAFFDECFB6
:10227800F6FFDDCFF7FFF86A0800F550580AD8A432
:1022880048EF11F04AEF11F09AEF11F04BC0D9FF67
:102298004CC0DAFFDECFF6FFDDCFF7FFF86A0800A3
:1022A800F5CF7EF04BC0D9FF4CC0DAFFDE2A000E16
:1022B800DD224DC0D9FF4EC0DAFFDFCF60F0020E3D
:1022C800DE26DFCF61F0000EDD2260C0D9FF61C0DD
:1022D800DAFFDECF62F0DDCF63F062C07FF063C06B
:1022E80080F00001816B826B836B846B856B866BDE
:1022F80049C022F04AC023F07FC024F080C025F0F6
:1023080081C026F082C027F083C028F084C029F05D
:1023180085C02AF086C02BF07EC02CF0F0EC20F0AF
:1023280022C049F023C04AF066EF12F04BC0D9FF33
:102338004CC0DAFFDECF07F0DDCF08F0F60E096EED
:10234800FF0E0A6E000E0C6E020E0B6EA5EC35F039
:1023580007500810D8B4B3EF11F0B5EF11F0D0EF73
:1023680011F04BC0D9FF4CC0DAFFDECF07F0DDCF4C
:1023780008F0B40E096EFE0E0A6E000E0C6E020E08
:102388000B6EA5EC35F007500810D8A4CEEF11F06D
:10239800D0EF11F013EF12F04BC0D9FF4CC0DAFFA9
:1023A800DECF60F0DDCF61F0010E00016027000E86
:1023B800612360C0F6FF61C0F7FFF86A0800F5CF37
:1023C8007EF0020E4BC0D9FF4CC0DAFFDE26000EAD
:1023D800DD224DC0D9FF4EC0DAFFDFCF60F0040E1A
:1023E800DE26DFCF61F0000EDD2260C0D9FF61C0BC
:1023F800DAFFDECF62F0DECF63F0DECF64F0DECF4F
:1024080065F062517F6F6351806F6451816F6551D0
:10241800826F836B846B856B866B7CEF11F04BC08E
:10242800D9FF4CC0DAFFDECFF6FFDDCFF7FFF86A41
:102438000800F550250AD8A424EF12F026EF12F070
:102448003DEF12F04BC0D9FF4CC0DAFFDE2A000E78
:10245800DD22000E086E250E076E49C009F04AC03D
:102468000AF00DEC3EF0000E4A6E010E496E66EF62
:1024780012F04BC0D9FF4CC0DAFFDE2A000EDD2275
:10248800000E4A6E000E496E66EF12F04BC0D9FF7F
:102498004CC0DAFFDECFF6FFDDCFF7FFF86A0800A1
:1024A800F550076E086A49C009F04AC00AF00DECF9
:1024B8003EF04BC0D9FF4CC0DAFFDE2A000EDD2209
:1024C80037EF12F012006A0E086E000E096E000E49
:1024D8000B6E1C0E0A6E89EC43F008C060F009C050
:1024E80061F01C0E000160196111D8A47EEF12F092
:1024F80080EF12F00DEF16F0000E626F000E686F9D
:10250800050E696F6A51236E226A6AC024F06BC097
:1025180025F025C024F0256AFF0E2416000E251686
:10252800225024122350251224042510D8B49FEFDA
:1025380012F0A1EF12F0A5EF12F00DEF16F00DEF6B
:1025480016F06C51236E226A20EE6CF0DECF24F078
:10255800DDCF25F025C024F0256AFF0E2416000ED5
:1025680025162250241223502512080E251824104F
:10257800D8B4C1EF12F0C3EF12F0C5EF12F00DEFAF
:1025880016F0060E6E19D8B4CCEF12F0CEEF12F09A
:10259800D0EF12F00DEF16F0040E6F19D8B4D7EF84
:1025A80012F0D9EF12F0DBEF12F00DEF16F0080E73
:1025B800666F20EE06F06851D9266951DA22FF0EBF
:1025C8007815266E000E7915276E000E7A15286E7E
:1025D800000E7B15296E26C029F0286A276A266A0C
:1025E80010EE78F0000EE6142A6EFF0EE6142B6E3D
:1025F800000EE6142C6E000EE6142D6E2CC02DF085
:102608002BC02CF02AC02BF02A6A78C02EF079C093
:102618002FF07AC030F07BC031F02FC02EF030C0E0
:102628002FF031C030F0316A000E2E14326EFF0EDA
:102638002F14336E000E3014346E000E3114356EC4
:1026480078C036F079C037F07AC038F07BC039F0FE
:10265800190E34EF13F0D890393238323732363217
:10266800E82E2FEF13F0FF0E36143A6E000E3714D3
:102678003B6E000E38143C6E000E39143D6E32501D
:102688003A103E6E33503B103F6E34503C10406E53
:1026980035503D10416E2A503E10426E2B503F106F
:1026A800436E2C504010446E2D504110456E2650FC
:1026B8004210466E27504310476E28504410486E0B
:1026C80029504510496EDE5046180DE1DE50471876
:1026D8000AE1DE50481807E1DE504918D8A477EF20
:1026E80013F079EF13F0A2EF13F020EE0AF068511F
:1026F800D9266951DA22DE506C1907E1DE506D19CE
:10270800D8A489EF13F08BEF13F0A2EF13F020EEAB
:102718000CF06851D9266951DA22000EDF6E20EEDE
:1027280072F068C0E1FF69C0E2FF050EDBCFE3FF8E
:10273800E806FCE2010E626FAFEF13F00D0E68279A
:10274800000E692366076651D8A4ADEF13F0AFEF0A
:1027580013F0DDEF12F00201005101110211031113
:10276800D8B4B9EF13F0BBEF13F00DEF16F0FF0E6E
:1027780000018215226E000E8315236E000E84154B
:10278800246E000E8515256E22C025F0246A236A62
:10279800226A20EE82F0000EDE14266EFF0EDE1492
:1027A800276E000EDE14286E000EDE14296E28C077
:1027B80029F027C028F026C027F0266A82C02AF010
:1027C80083C02BF084C02CF085C02DF02BC02AF0DC
:1027D8002CC02BF02DC02CF02D6A000E2A142E6E62
:1027E800FF0E2B142F6E000E2C14306E000E2D14BD
:1027F800316E82C032F083C033F084C034F085C0BB
:1028080035F0190E0DEF14F0D890353234323332DA
:102818003232E82E08EF14F0FF0E3214366E000E36
:102828003314376E000E3414386E000E3514396EBA
:102838002E5036103A6E2F5037103B6E30503810ED
:102848003C6E315039103D6E26503A103E6E27507E
:102858003B103F6E28503C10406E29503D10416E91
:1028680022503E10426E23503F10436E24504010B9
:10287800446E25504110456E0201005142180DE189
:10288800015143180AE10251441807E10351451860
:10289800D8A451EF14F053EF14F00DEF16F0000127
:1028A8006251D8A45AEF14F05CEF14F03BEF15F026
:1028B800000E686F050E696F000E646F050E656F78
:1028C800080E676F20EE0CF06451D9266551DA22A4
:1028D80010EE0CF06851E1266951E222DE50E65C08
:1028E800D8B079EF14F07BEF14F07FEF14F064C0E8
:1028F80068F065C069F00D0E6427000E6523670750
:102908006751D8A48AEF14F08CEF14F066EF14F036
:1029180020EE0CF06851D9266951DA22000EDF6EDC
:1029280020EE72F068C0E1FF69C0E2FF050EDBCF60
:10293800E3FFE806FCE2FF0E7815226E000E79151B
:10294800236E000E7A15246E000E7B15256E22C0AC
:1029580025F0246A236A226A20EE78F0000EDE143D
:10296800266EFF0EDE14276E000EDE14286E000E93
:10297800DE14296E28C029F027C028F026C027F0C9
:10298800266A78C02AF079C02BF07AC02CF07BC078
:102998002DF02BC02AF02CC02BF02DC02CF02D6A66
:1029A800000E2A142E6EFF0E2B142F6E000E2C1400
:1029B800306E000E2D14316E78C032F079C033F0CD
:1029C8007AC034F07BC035F0190EF0EF14F0D890CF
:1029D8003532343233323232E82EEBEF14F0FF0E58
:1029E8003214366E000E3314376E000E3414386EFF
:1029F800000E3514396E2E5036103A6E2F5037109F
:102A08003B6E305038103C6E315039103D6E2650B8
:102A18003A103E6E27503B103F6E28503C10406ED7
:102A280029503D10416E22503E10426E23503F10F7
:102A3800436E24504010446E25504110456E20EEE0
:102A480006F06851D9266951DA2242C0DEFF43C038
:102A5800DEFF44C0DEFF45C0DEFF20EE0AF068510D
:102A6800D9266951DA226CC0DEFF6DC0DDFF710521
:102A78007011D8A442EF15F044EF15F00DEF16F0E1
:102A8800720E1A6E000E1B6E080E1D6E060E1C6E60
:102A980017EC25F00001636F6305D8A456EF15F015
:102AA80058EF15F0A3EF12F020EE72F010EE7CF064
:102AB800050EDBCFE3FFE806FCE2720E076E000EA0
:102AC800086EE30E096E020E0A6E000E0C6E060EFC
:102AD8000B6E26EC47F078C082F079C083F07AC09C
:102AE80084F07BC085F0FF0E02010015226E000EF7
:102AF8000115236E000E0215246E000E0315256EB7
:102B080022C025F0246A236A226A000E0015266E68
:102B1800FF0E0115276E000E0215286E000E031514
:102B2800296E28C029F027C028F026C027F0266A79
:102B380000C22AF001C22BF002C22CF003C22DF011
:102B48002BC02AF02CC02BF02DC02CF02D6A000EC3
:102B58002A142E6EFF0E2B142F6E000E2C14306EBE
:102B6800000E2D14316E00C232F001C233F002C2E1
:102B780034F003C235F0190EC7EF15F0D89035328E
:102B8800343233323232E82EC2EF15F0FF0E3214EF
:102B9800366E000E3314376E000E3414386E000E85
:102BA8003514396E2E5036103A6E2F5037103B6E52
:102BB800305038103C6E315039103D6E26503A1066
:102BC8003E6E27503B103F6E28503C10406E2950F7
:102BD8003D10416E22503E100001786F23503F1087
:102BE800796F245040107A6F255041107B6F020E88
:102BF800716F000E706F6A0E086E000E096E000E7F
:102C08000B6E1C0E0A6EA8EC44F076EC3AF00DEF51
:102C180016F0120084C0D9FF85C0DAFFDECF86F037
:102C2800DDCF87F000018651896F886B84C0D9FF9A
:102C380085C0DAFFDECF8AF0DDCF8BF08BC08AF05B
:102C48008B6BFF0E8A17000E8B1788518A11B16F94
:102C580089518B11B26F20EE06F08451D926855127
:102C6800DA22DECF86F0DDCF87F08651896F886B58
:102C780020EE06F08451D9268551DA22DECF8AF07B
:102C8800DDCF8BF08BC08AF08B6BFF0E8A17000E9E
:102C98008B1788518A11B36F89518B11B46F20EE4D
:102CA80010F08451D9268551DA22DECF86F0DECFA6
:102CB80087F0DECF88F0DECF89F0FF0E86158A6FA9
:102CC800000E87158B6F000E88158C6F000E891506
:102CD8008D6F8AC08DF08C6B8B6B8A6B20EE10F039
:102CE8008451D9268551DA22000EDE148E6FFF0E2C
:102CF800DE148F6F000EDE14906F000EDE14916FDD
:102D080090C091F08FC090F08EC08FF08E6B20EE47
:102D180010F08451D9268551DA22DECF92F0DECF29
:102D280093F0DECF94F0DECF95F093C092F094C08C
:102D380093F095C094F0956B000E9215966FFF0E68
:102D48009315976F000E9415986F000E9515996F4F
:102D580020EE10F08451D9268551DA22DECF9AF080
:102D6800DECF9BF0DECF9CF0DECF9DF0190EC2EFD8
:102D780016F0D8909D339C339B339A33E82EBDEFE1
:102D880016F0FF0E9A159E6F000E9B159F6F000E92
:102D98009C15A06F000E9D15A16F96519E11A26FF4
:102DA80097519F11A36F9851A011A46F9951A11128
:102DB800A56F8E51A211A66F8F51A311A76F9051C5
:102DC800A411A86F9151A511A96F8A51A611B56FC9
:102DD8008B51A711B66F8C51A811B76F8D51A911DE
:102DE800B86F20EE0CF08451D9268551DA22DECF57
:102DF80086F0DECF87F0DECF88F0DECF89F0FF0ED9
:102E080086158A6F000E87158B6F000E88158C6FDC
:102E1800000E89158D6F8AC08DF08C6B8B6B8A6B59
:102E280020EE0CF08451D9268551DA22000EDE14EA
:102E38008E6FFF0EDE148F6F000EDE14906F000E83
:102E4800DE14916F90C091F08FC090F08EC08FF01B
:102E58008E6B20EE0CF08451D9268551DA22DECF14
:102E680092F0DECF93F0DECF94F0DECF95F093C0F2
:102E780092F094C093F095C094F0956B000E921563
:102E8800966FFF0E9315976F000E9415986F000EAE
:102E98009515996F20EE0CF08451D9268551DA22C8
:102EA800DECF9AF0DECF9BF0DECF9CF0DECF9DF038
:102EB800190E64EF17F0D8909D339C339B339A33E7
:102EC800E82E5FEF17F0FF0E9A159E6F000E9B1508
:102ED8009F6F000E9C15A06F000E9D15A16F965157
:102EE8009E11A26F97519F11A36F9851A011A46FC3
:102EF8009951A111A56F8E51A211A66F8F51A311DF
:102F0800A76F9051A411A86F9151A511A96F8A516B
:102F1800A611B96F8B51A711BA6F8C51A811BB6F4D
:102F28008D51A911BC6FBD91F10EBD17BD510F0B8D
:102F38005009BD6F20EE1AF08451D9268551DA2246
:102F4800DECF86F0DDCF87F08651896F886B20EE63
:102F58001AF08451D9268551DA22DECF8AF0DDCFE6
:102F68008BF08BC08AF08B6BFF0E8A17000E8B17C5
:102F780088518A11BF6F89518B11C06F000EC26FC3
:102F8800000EC16F000EC46F000EC36F20EE38F044
:102F98008451D9268551DA22DF50866F060E8617AE
:102FA800D8B4D9EF17F0DBEF17F0E2EF17F0000E07
:102FB8000101EB6F000EEA6FBEEF18F020EE2CF067
:102FC8008451D9268551DA22DE04D8A4EEEF17F011
:102FD800F0EF17F0F2EF17F0DBEF17F020EE2AF022
:102FE8008451D9268551DA22DECFEAF1DDCFEBF123
:102FF8000101EA51EB11D8B404EF18F006EF18F00C
:10300800BEEF18F0000120EE18F08451D926855142
:10301800DA22DE50DE10D8A414EF18F016EF18F0FC
:1030280020EF18F020EE18F08451D9268551DA22C5
:10303800010EDE6E000EDD6E20EE18F08451D926EA
:103048008551DA220101EA51DE5CEB51DE58D8B035
:1030580030EF18F032EF18F03DEF18F0000120EED5
:1030680018F08451D9268551DA22DECFEAF1DDCF76
:10307800EBF1000120EE1CF08451D9268551DA22AB
:103088000101EA51DE5CEB51DE58D8B04EEF18F082
:1030980050EF18F05BEF18F0000120EE1CF084519F
:1030A800D9268551DA22DECFEAF1DDCFEBF1000136
:1030B80020EE25F08451D9268551DA22DECFAAF0F8
:1030C800DDCFABF020EE25F08451D9268551DA22E8
:1030D800DECF86F0DDCF87F00101EA5100018627B7
:1030E8000101EB510001872320EE25F08451D926F8
:1030F8008551DA2286C0DEFF87C0DDFF20EE2AF088
:103108008451D9268551DA22DECF86F0DDCF87F0CB
:103118000101EA510001865F0101EB510001875B63
:1031280020EE27F08451D9268551DA2286C0DEFFA9
:1031380087C0DDFF20EE27F08451D9268551DA2299
:10314800DE50DE10D8A4ABEF18F0ADEF18F0BEEFEC
:1031580018F020EE38F08451D9268551DA2210EE85
:1031680038F08451E1268551E222E7500809DF6EE4
:10317800BEEF18F0000120EE38F08451D9268551B1
:10318800DA22DF50BE6F140E0101EA250001AE6F8E
:10319800000E0101EB210001AF6F20EE02F0845117
:1031A800D9268551DA22DECF46F0DECF47F0DECFD2
:1031B80048F0DECF49F0060E4A6E5EEC26F00001BC
:1031C800B06FB005D8A4EBEF18F0EDEF18F03CEFB6
:1031D80019F0B10E086E000E096E000E0B6E140E7B
:1031E8000A6EA8EC44F00101EA51EB11D8B4FFEFE4
:1031F80018F001EF19F00BEF19F0AAC008F0ABC0F6
:1032080009F0EAC10AF0EBC10BF0A8EC44F0060E95
:103218000001AE25AC6F000EAF21AD6F000E106E31
:103228001A0E0F6E080EAE25116E000EAF21126E2B
:10323800ACC013F0ADC014F09EEC2DF00FC0ACF094
:1032480010C0ADF0AC0E0F6E000E106E000E126EB8
:10325800020E116E000E146E320E136E09EC43F05E
:10326800AEC021F0AFC022F093EC41F00001B06F86
:10327800B005D8B442EF19F044EF19F078EF19F01F
:10328800120EB019D8B44BEF19F04DEF19F078EFD2
:1032980019F020EE37F08451D9268551DA2210EE44
:1032A80037F08451E1268551E222E750866F860582
:1032B800DF6E20EE33F08451D9268551DA22DE50B4
:1032C800DE10D8A46AEF19F06CEF19F0A4EF19F02A
:1032D80020EE33F08451D9268551DA22020EDE6EB3
:1032E800000EDD6EA4EF19F020EE10F08451D926FF
:1032F8008551DA22DECF86F0DECF87F0DECF88F088
:10330800DECF89F00101EA51000186258A6F0101AB
:10331800EB51000187218B6F000E88218C6F000E06
:1033280089218D6F20EE10F08451D9268551DA223B
:103338008AC0DEFF8BC0DEFF8CC0DEFF8DC0DEFFE3
:10334800B0511200000E01016A6F000E696F53EC54
:1033580048F00101686F68C11BF01C6A000E1E6E00
:10336800000E1D6EFAEC45F01BC06BF11CC06CF131
:1033780001016B516C11D8B4C4EF19F0C6EF19F004
:10338800C8EF19F0E6EF1CF0B30E086E020E096ED6
:10339800000E0B6E140E0A6E89EC43F00201B3396D
:1033A8000F0B040AD8B4DBEF19F0DDEF19F0DFEFEB
:1033B80019F0E6EF1CF0FF0EC3150101206F000E97
:1033C8000201C4150101216F000E0201C51501019A
:1033D800226F000E0201C6150101236F20C123F1DF
:1033E800226B216B206B22EEC3F0000EDE14246FDB
:1033F800FF0EDE14256F000EDE14266F000EDE149D
:10340800276F26C127F125C126F124C125F1246B98
:10341800C3C228F1C4C229F1C5C22AF1C6C22BF120
:1034280029C128F12AC129F12BC12AF12B6B000EE1
:1034380028152C6FFF0E29152D6F000E2A152E6FDB
:10344800000E2B152F6FC3C230F1C4C231F1C5C2B3
:1034580032F1C6C233F1190E37EF1AF0D890333370
:10346800323331333033E82E32EF1AF0FF0E301595
:10347800346F000E3115356F000E3215366F000EA1
:103488003315376F2C513411386F2D513511396F71
:103498002E5136113A6F2F5137113B6F2451381185
:1034A8003C6F255139113D6F26513A113E6F275116
:1034B8003B113F6F20513C110201C36F01012151A3
:1034C8003D110201C46F010122513E110201C56F75
:1034D800010123513F110201C66FFF0EBF15010103
:1034E800206F000E0201C0150101216F000E0201BC
:1034F800C1150101226F000E0201C2150101236FDF
:1035080020C123F1226B216B206B22EEBFF0000E4D
:10351800DE14246FFF0EDE14256F000EDE14266FF6
:10352800000EDE14276F26C127F125C126F124C11C
:1035380025F1246BBFC228F1C0C229F1C1C22AF10A
:10354800C2C22BF129C128F12AC129F12BC12AF1C4
:103558002B6B000E28152C6FFF0E29152D6F000EF2
:103568002A152E6F000E2B152F6FBFC230F1C0C267
:1035780031F1C1C232F1C2C233F1190EC9EF1AF0EA
:10358800D8903333323331333033E82EC4EF1AF066
:10359800FF0E3015346F000E3115356F000E3215E1
:1035A800366F000E3315376F2C513411386F2D518B
:1035B8003511396F2E5136113A6F2F5137113B6F34
:1035C800245138113C6F255139113D6F26513A115C
:1035D8003E6F27513B113F6F20513C110201BF6FD5
:1035E800010121513D110201C06F010122513E111B
:1035F8000201C16F010123513F110201C26FBF29AE
:103608000AE1C02908E1C12906E1C229D8A40FEFBF
:103618001BF011EF1BF013EF1BF0E6EF1CF000514D
:10362800C3190FE10151C4190CE10251C51909E18F
:103638000351C619D8B423EF1BF025EF1BF0D2EFC6
:103648001BF0C351C411C511C611D8B42EEF1BF01D
:1036580030EF1BF0D2EF1BF0C3290CE1C4290AE1BB
:10366800C52908E1C629D8B43CEF1BF03EEF1BF092
:10367800D2EF1BF0FF0E00110101206FFF0E0201B7
:1036880001110101216FFF0E020102110101226FD8
:10369800000E020103110101236F0201C351010150
:1036A800201915E10201C4510101211910E102019B
:1036B800C551010122190BE10201C651010123196B
:1036C800D8B469EF1BF06BEF1BF0D2EF1BF0FF0EC5
:1036D800020100110101206FFF0E02010111010119
:1036E800216F000E020102110101226F000E02017A
:1036F80003110101236F0201C3510101201915E1D2
:103708000201C4510101211910E10201C551010151
:1037180022190BE10201C65101012319D8B497EF10
:103728001BF099EF1BF0D2EF1BF0FF0E0201001106
:103738000101206F020101510101216F02010251B3
:103748000101226F020103510101236F0201C351DC
:103758000101201915E10201C4510101211910E1EB
:103768000201C551010122190BE10201C6510101F3
:103778002319D8B4C2EF1BF0C4EF1BF0D2EF1BF033
:103788000201C30509E1E00EC619C411C511D8A488
:10379800D0EF1BF0D2EF1BF0E6EF1CF00201B551A1
:1037A8000101216F206B22EEB5F0DECF22F1DDCFD3
:1037B80023F123C122F1236BFF0E2217000E2317DA
:1037C800205122110201B56F01012151231102017B
:1037D800B66FB3510F0B0101206FD8902037D890E6
:1037E8002035686F0201B3510F0B0101206F050EE0
:1037F800206101EF1CF003EF1CF005EF1CF0E6EF71
:103808001CF00201B3510F0B0101206F050E20655A
:1038180010EF1CF012EF1CF0CFEF1CF0EC0E682537
:103828000F6E106AFF0E102205EC44F0CFEF1CF06B
:103838000201C351C411C511C611D8A426EF1CF04A
:1038480028EF1CF02AEF1CF0E6EF1CF0010168518C
:103858000201B55D0101696F0201B651D8A0B60534
:1038680001016A6F69C11BF06AC11CF0000E1E6E6F
:10387800000E1D6EFAEC45F01BC06BF11CC06CF11C
:1038880001016B516C11D8A44CEF1CF04EEF1CF0E9
:1038980057EF1CF0B30E0001956F020E966FF5EC12
:1038A80038F0E6EF1CF0400E00018D6F010E8E6FB0
:1038B800CA0E8F6FFD0E906F6BC191F06CC192F0C4
:1038C800ACEC46F0E6EF1CF068510201B55D010171
:1038D800696F0201B651D8A0B60501016A6F69C1C6
:1038E80007F06AC108F067EC3BF007C06BF108C04D
:1038F8006CF169C11BF06AC11CF06BC11DF06CC191
:103908001EF0FAEC45F01BC06BF11CC06CF1010114
:103918006B516C11D8A493EF1CF095EF1CF0E6EFF7
:103928001CF00201C3290CE1C4290AE1C52908E1F8
:10393800C629D8B4A2EF1CF0A4EF1CF0E6EF1CF0E7
:10394800C351C411C511C611D8B4ADEF1CF0AFEF07
:103958001CF0E6EF1CF0BFC264F2C0C265F2C1C23F
:1039680066F2C2C267F264C2EBF065C2ECF066C2EE
:10397800EDF067C2EEF069C1EFF06AC1F0F0E7EC74
:103988001CF0E6EF1CF0B5C20FF0B6C210F005EC63
:1039980044F0E6EF1CF00201BC510101206F216BDD
:1039A8002151000AD8B4DBEF1CF0C7EF1CF02051FE
:1039B800010AD8B41CEF1CF0070AD8B468EF1CF051
:1039C800C7EF1CF01200000E0001F16F000E01019C
:1039D800DE6F000EDF6F000EE06F000EE16F000E6D
:1039E800ED6F000EEC6FC70E086E020E096E000E2A
:1039F8000B6E140E0A6E89EC43F0000E536E000E27
:103A0800546E0201C951CA11D8B40DEF1DF00FEF61
:103A18001DF07DEF1FF0C751C811D8B416EF1DF087
:103A280018EF1DF07DEF1FF0C7510101016F006B0A
:103A3800C7C202F1C8C203F103C102F1036BFF0E52
:103A48000217000E0317005102110201C76F01018E
:103A5800015103110201C86FC9510101016F006BC7
:103A680022EEC9F0DECF02F1DDCF03F103C102F18E
:103A7800036BFF0E0217000E03170051021102011B
:103A8800C96F0101015103110201CA6FEEC1F2F0C1
:103A9800EFC1F3F073EF1DF0F2C0D9FFF3C0DAFF06
:103AA800DE500201C91907E1DE50CA19D8A45FEF38
:103AB8001DF061EF1DF067EF1DF0F2C053F0F3C089
:103AC80054F08BEF1DF0000120EE2FF0F251D926B3
:103AD800F351DA22DECFF2F0DDCFF3F0F12B000163
:103AE800F251F311D8B47BEF1DF07DEF1DF08BEF91
:103AF8001DF0F151800A0101006FF851800A005D44
:103B0800D8A089EF1DF08BEF1DF050EF1DF053503A
:103B18005410D8B492EF1DF094EF1DF07DEF1FF014
:103B280020EE06F05350D9265450DA220201C7512C
:103B3800DE1809E1C851DE18D8B4A5EF1DF0A7EFCB
:103B48001DF0B8EF1DF020EE02F05350D926545066
:103B5800DA22DE50DE10DE10DE10D8A4B6EF1DF03B
:103B6800B8EF1DF07DEF1FF0EBC0DEF1ECC0DFF128
:103B7800EDC0E0F1EEC0E1F1D3390F0B0101006FA8
:103B8800016BD89000370137D890003701370051C2
:103B98000001EF5D0101EC6F01510001F0590101D5
:103BA800ED6FBBEC2CF0E806D8A4DDEF1DF0DFEFDD
:103BB8001DF07DEF1FF00201D4A3E5EF1DF0E7EF44
:103BC8001DF002EF1EF0D4A9ECEF1DF0EEEF1DF092
:103BD800F8EF1DF020EE2EF05350D9265450DA227B
:103BE800050EDF6E55EF1EF020EE2EF05350D9264D
:103BF8005450DA22030EDF6E55EF1EF0D4A107EF02
:103C08001EF009EF1EF024EF1EF0D4A90EEF1EF0EF
:103C180010EF1EF01AEF1EF020EE2EF05350D926AA
:103C28005450DA22070EDF6E55EF1EF020EE2EF00C
:103C38005350D9265450DA22060EDF6E55EF1EF087
:103C4800D4A529EF1EF02BEF1EF046EF1EF0D4A9E5
:103C580030EF1EF032EF1EF03CEF1EF020EE2EF09B
:103C68005350D9265450DA220A0EDF6E55EF1EF053
:103C780020EE2EF05350D9265450DA22090EDF6E6A
:103C880055EF1EF0D4A94BEF1EF04DEF1EF055EF87
:103C98001EF020EE2EF05350D9265450DA22040E8E
:103CA800DF6EFF0ECF150101006F000E0201D01567
:103CB8000101016F000E0201D1150101026F000E12
:103CC8000201D2150101036F00C103F1026B016B00
:103CD800006B22EECFF0000EDE14046FFF0EDE1430
:103CE800056F000EDE14066F000EDE14076F06C1A6
:103CF80007F105C106F104C105F1046BCFC208F153
:103D0800D0C209F1D1C20AF1D2C20BF109C108F13E
:103D18000AC109F10BC10AF10B6B000E08150C6FF3
:103D2800FF0E09150D6F000E0A150E6F000E0B150C
:103D38000F6FCFC210F1D0C211F1D1C212F1D2C2AD
:103D480013F1190EADEF1EF0D8901333123311335F
:103D58001033E82EA8EF1EF0FF0E1015146F000E9A
:103D68001115156F000E1215166F000E1315176F2B
:103D78000C511411186F0D511511196F0E511611A0
:103D88001A6F0F5117111B6F045118111C6F055131
:103D980019111D6F06511A111E6F07511B111F6F44
:103DA80000511C110201CF6F010101511D110201C7
:103DB800D06F010102511E110201D16F010103519F
:103DC8001F110201D26FFF0ECB150101006F000E0B
:103DD8000201CC150101016F000E0201CD15010190
:103DE800026F000E0201CE150101036F00C103F13D
:103DF800026B016B006B22EECBF0000EDE14046F39
:103E0800FF0EDE14056F000EDE14066F000EDE14C2
:103E1800076F06C107F105C106F104C105F1046B7E
:103E2800CBC208F1CCC209F1CDC20AF1CEC20BF166
:103E380009C108F10AC109F10BC10AF10B6B000EA7
:103E480008150C6FFF0E09150D6F000E0A150E6F81
:103E5800000E0B150F6FCBC210F1CCC211F1CDC201
:103E680012F1CEC213F1190E3FEF1FF0D8901333A1
:103E7800123311331033E82E3AEF1FF0FF0E1015EE
:103E8800146F000E1115156F000E1215166F000E27
:103E98001315176F0C511411186F0D511511196F57
:103EA8000E5116111A6F0F5117111B6F045118116B
:103EB8001C6F055119111D6F06511A111E6F0751FC
:103EC8001B111F6F00511C110201CB6F0101015121
:103ED8001D110201CC6F010102511E110201CD6FAB
:103EE800010103511F110201CE6F61EC00F07DEF5B
:103EF8001FF0120024C03CF025C03DF026C03EF063
:103F080027C03FF028C040F029C041F02AC042F045
:103F18002BC043F043BE93EF1FF096EF1FF0010E46
:103F280097EF1FF0000E3A6E3B6A3A503B10D8B438
:103F3800A0EF1FF0A2EF1FF0B2EF1FF0431E421ECA
:103F4800411E401E3F1E3E1E3D1E3C6C000E3D2283
:103F58003E223F2240224122422243220101E5BF64
:103F6800B8EF1FF0BAEF1FF0BBEF1FF0E693E5BF05
:103F7800C8EF1FF0E55106E1E405D8B0C6EF1FF021
:103F8800C8EF1FF0CEEF1FF0000E376E010E366E31
:103F9800D2EF1FF0E4C136F0E5C137F0E2C138F0E6
:103FA800E3C139F03A503B10D8A4DDEF1FF0DFEF42
:103FB8001FF0E6EF1FF0E6A5E4EF1FF0E6EF1FF0B5
:103FC800E9EF1FF03806D8A03906000E456E1F0E1F
:103FD800446E000E0301706F6EEF20F04406D8A007
:103FE8004506510E4424D96E030E4520DA6E3CC0B6
:103FF80007F03DC008F03EC009F03FC00AF040C0DD
:104008000BF041C00CF042C00DF043C00EF00A0E98
:104018000F6E000E106E000E116E000E126E000E66
:10402800136E000E146E000E156E000E166E0AEC5E
:1040380033F007C02CF008C02DF009C02EF00AC0DC
:104048002FF00BC030F00CC031F00DC032F00EC0B4
:1040580033F02CC019F02EC01AF0D6EC47F01950E6
:10406800300FDF6E3606D8A037063806D8A03906D6
:104078003CC007F03DC008F03EC009F03FC00AF060
:1040880040C00BF041C00CF042C00DF043C00EF030
:104098000A0E0F6E000E106E000E116E000E126EDC
:1040A800000E136E000E146E000E156E000E166EC6
:1040B80019EC30F007C03CF008C03DF009C03EF0F4
:1040C8000AC03FF00BC040F00CC041F00DC042F0F8
:1040D8000EC043F045BE79EF20F0455008E1440496
:1040E800D8A079EF20F07BEF20F0ACEF20F03C5027
:1040F8003D103E103F104010411042104310D8A40C
:1041080088EF20F08AEF20F0F2EF1FF037BE97EF2C
:1041180020F0375006E13604D8B095EF20F097EF3D
:1041280020F0F2EF1FF039BEA2EF20F0395008E17D
:104138003804D8A0A2EF20F0A4EF20F0ACEF20F0D4
:104148000101E6B3AAEF20F0ACEF20F0F2EF1FF088
:104158003A503B10D8A4B3EF20F0B5EF20F0BDEFF4
:1041680020F00101E6A5BBEF20F0BDEF20F0DBEF6A
:1041780020F04406D8A045063A503B10D8A4C7EF13
:1041880020F0C9EF20F0CFEF20F0000E356E2B0E97
:10419800346ED3EF20F0000E356E2D0E346E510EB6
:1041A8004424D96E030E4520DA6E34C0DFFF22C0E6
:1041B80017F023C018F0510E4424196E030E452041
:1041C8001A6E38C01BF039C01CF072EC3EF017C0F4
:1041D80022F018C023F012000101E5BFF6EF20F02D
:1041E800F8EF20F0F9EF20F0E693E5BF06EF21F0B5
:1041F800E55106E1E405D8B004EF21F006EF21F01F
:104208000CEF21F0000E3A6E010E396E10EF21F01E
:10421800E4C139F0E5C13AF0E2C13BF0E3C13CF05A
:10422800E6A919EF21F01BEF21F01FEF21F0FE0E98
:104238003B26FF0E3C2224C03DF025C03EF026C0A0
:104248003FF027C040F028C041F029C042F02AC002
:1042580043F02BC044F0000E466E1F0E456E000E54
:104268000301706FEBEF21F04506D8A046060F0E4C
:104278003D14476E486A48BE4BEF21F0485009E1AB
:104288000A0E475CD8A04BEF21F04DEF21F055EF17
:1042980021F0570E4724476E000E4820486E5BEF0A
:1042A80021F0300E4724476E000E4820486EBF0E9E
:1042B8002D6EFF0E2E6E2C502F6E306A2D502F262D
:1042C8002E50302230500AE11A0E2F5CD8A06FEF22
:1042D80021F072EF21F0010E73EF21F0000E356E20
:1042E800366A35503610D8B47CEF21F07EEF21F0D5
:1042F800AEEF21F09F0E2D6EFF0E2E6E200E471092
:104308002F6E000E4810306E2D502F262E50302262
:1043180030500AE11A0E2F5CD8A095EF21F098EFE3
:1043280021F0010E99EF21F0000E376E386A3750F0
:104338003810D8B4A2EF21F0A4EF21F0AEEF21F0AD
:1043480047C00DF048C00EF09DEC45F00DC047F099
:104358000EC048F0510E4524D96E030E4620DA6E81
:1043680047C0DFFF3906D8A03A063B06D8A03C066E
:104378003DC02DF03EC02EF03FC02FF040C030F0C1
:1043880041C031F042C032F043C033F044C034F091
:10439800050ED8EF21F0D890343233323232313230
:1043A80030322F322E322D32E82ECFEF21F02DC0B1
:1043B8003DF02EC03EF02FC03FF030C040F031C07D
:1043C80041F032C042F033C043F034C044F046BE3E
:1043D800F7EF21F0465009E1020E455CD8A0F7EF4F
:1043E80021F0F9EF21F02AEF22F03D503E103F1066
:1043F80040104110421043104410D8A406EF22F098
:1044080008EF22F038EF21F03ABE15EF22F03A50CB
:1044180006E13904D8B013EF22F015EF22F038EF97
:1044280021F03CBE20EF22F03C5008E13B04D8A02C
:1044380020EF22F022EF22F02AEF22F00101E6B36A
:1044480028EF22F02AEF22F038EF21F00101E6A947
:1044580030EF22F032EF22F048EF22F04506D8A0E4
:104468004606510E4524D96E030E4620DA6E2CC03E
:10447800DFFF4506D8A04606510E4524D96E030E27
:104488004620DA6E300EDF6E22C017F023C018F017
:10449800510E4524196E030E46201A6E3BC01BF0C0
:1044A8003CC01CF072EC3EF017C022F018C023F09C
:1044B8001200010E0001626F000E616F000E646F42
:1044C800080E636F060E656F040E666F010E686F47
:1044D800000E676F690E076E000E086EE30E096E18
:1044E800020E0A6E000E0C6E060E0B6E26EC47F0DE
:1044F800FF0E02010015266E000E0115276E000E34
:104508000215286E000E0315296E26C029F0286AA8
:10451800276A266A000E00152A6EFF0E01152B6EFB
:10452800000E02152C6E000E03152D6E2CC02DF0FA
:104538002BC02CF02AC02BF02A6A00C22EF001C230
:104548002FF002C230F003C231F02FC02EF030C07D
:104558002FF031C030F0316A000E2E14326EFF0E8B
:104568002F14336E000E3014346E000E3114356E75
:1045780000C236F001C237F002C238F003C239F087
:10458800190ECCEF22F0D890393238323732363221
:10459800E82EC7EF22F0FF0E36143A6E000E3714DD
:1045A8003B6E000E38143C6E000E39143D6E3250CE
:1045B8003A103E6E33503B103F6E34503C10406E04
:1045C80035503D10416E2A503E10426E2B503F1020
:1045D800436E2C504010446E2D504110456E2650AD
:1045E800421000016F6F27504310706F285044101D
:1045F800716F29504510726FFF0E2214266E000E3F
:104608002314276E000E2414286E000E2514296E1C
:1046180026C029F0286A276A266A000E22142A6E04
:10462800FF0E23142B6E000E24142C6E000E25147E
:104638002D6E2CC02DF02BC02CF02AC02BF02A6A2E
:1046480022C02EF023C02FF024C030F025C031F056
:104658002FC02EF030C02FF031C030F0316A000E7C
:104668002E14326EFF0E2F14336E000E3014346E7B
:10467800000E3114356E22C036F023C037F024C046
:1046880038F025C039F0190E4FEF23F0D8903932A1
:10469800383237323632E82E4AEF23F0FF0E36141E
:1046A8003A6E000E37143B6E000E38143C6E000E46
:1046B80039143D6E32503A103E6E33503B103F6E07
:1046C80034503C10406E35503D10416E2A503E101B
:1046D800426E2B503F10436E2C504010446E2D50AC
:1046E8004110456E26504210796F275043107A6F5B
:1046F800285044107B6F295045107C6F000E736F53
:10470800000E746F000E756F000E766F000E776FD7
:10471800000E786F190E1A6EF80E1B6E080E1D6EBD
:10472800060E1C6E17EC25F00001606F6005D8A41A
:10473800A0EF23F0A2EF23F0BBEF23F0610E086E89
:10474800000E096E000E0B6E1C0E0A6EA8EC44F0EB
:1047580076EC3AF00001606F6005D8A4B6EF23F05C
:10476800B8EF23F0BBEF23F0050EBCEF23F0605148
:104778001200170E0E6E030E0F6EBFEC49F001010A
:10478800326FF4EF24F00101F705D8A4CEEF23F03F
:10479800D0EF23F0D6EF23F00E0E086EFF0E096E51
:1047A8008EEC48F0170E0E6E030E0F6E38EC36F0D6
:1047B8000101F705D8A4E3EF23F0E5EF23F0EBEFD1
:1047C80023F0DB0E086EFE0E096E8EEC48F0170E15
:1047D8000E6E030E0F6E000E116E500E106E24EC4E
:1047E8004AF0170E0E6E030E0F6E880E106E070E2F
:1047F800116E020E136E000E126E47EC40F0170E8B
:104808000001EB6F030EEC6FE0EC41F016EF25F0C2
:104818000101F705D8A413EF24F015EF24F016EFE3
:1048280025F01E0E086EFF0E096E8EEC48F016EF8E
:1048380025F00101F705D8A424EF24F026EF24F091
:104848002CEF24F04A0E086EFF0E096E8EEC48F02D
:10485800170E0E6E030E0F6E71EC47F00009D8B4F8
:1048680038EF24F03AEF24F016EF25F0170E0E6E0D
:10487800030E0F6E4AEC43F00EC035F10FC036F14F
:10488800010135513611D8B44CEF24F04EEF24F025
:1048980016EF25F0170E0E6E030E0F6E94EC3FF018
:1048A8000EC035F10FC036F1000E0101346F000E55
:1048B800336F73EF24F0880E3325D96E070E342139
:1048C800DA6E880E3325E16E050E3421E26EDFCFF5
:1048D800E7FFE7502BEC4CF00101334B342B3551FB
:1048E800335D36513459D8A07CEF24F07EEF24F0A4
:1048F8005FEF24F0000E00018D6F010E8E6F450EE4
:104908008F6FFE0E906F35C191F036C192F0ACEC0E
:1049180046F0000E086E010E096E0DEC45F0170EFC
:104928000E6E030E0F6E880E106E070E116E020EBD
:10493800136E000E126E47EC40F0170E0001C56FA3
:10494800030EC66F230EC76FF80EC86F230E076ECF
:10495800F80E086EFEEC46F007C0C9F008C0CAF0B1
:10496800C9EC36F0E806D8A4BCEF24F0BEEF24F07A
:1049780016EF25F0010E0201AE6F170E116E030E31
:10498800126EA5EC49F0E806D8A4CDEF24F0CFEFDD
:1049980024F0D5EF24F0770E086EFD0E096E0DECAD
:1049A80045F0950E086EFD0E096E0DEC45F016EFFC
:1049B80025F00101F705D8A4E4EF24F0E6EF24F090
:1049C800ECEF24F0B70E086EFE0E096E8EEC48F080
:1049D800170E116E030E126EA5EC49F016EF25F0B6
:1049E80032510001EF6FF06BF051000AD8B4FFEFBD
:1049F80024F016EF25F0EF51000AD8B4C7EF23F0E2
:104A0800010AD8B4DCEF23F0030AD8B40CEF24F081
:104A1800010AD8B41DEF24F0070AD8B4DDEF24F05A
:104A280016EF25F01200020E16EC48F00B0E0A5C89
:104A38001A0E0B58D8A023EF25F025EF25F046EFE6
:104A480025F0FF0E89EC4BF01E6E1EA62EEF25F00A
:104A580030EF25F033EF25F0040E5DEF26F0A0ECE3
:104A680027F0020E16EC48F00B0E0A5C1A0E0B58D3
:104A7800D8A041EF25F043EF25F046EF25F0030ECF
:104A88005DEF26F0BEEC2BF007C020F008C021F047
:104A980020502110D8A453EF25F055EF25F057EFFB
:104AA80025F043EF25F020C0D9FF21C0DAFFDECF83
:104AB8001EF0DDCF1FF0010E1E12000E1F1220C0C7
:104AC800D9FF21C0DAFF1EC0DEFF1FC0DDFF20EEC8
:104AD80002F02050D9262150DA22DECF0AF0DDCFAD
:104AE8000BF0020E6FEC49F07FEC4CF0000E020167
:104AF800A96F000EA86F8C967A0EEFEC4BF00101AF
:104B0800FA51EFEC4BF01AC0F6FF1BC0F7FF000E8E
:104B1800F86E0F0EF76403D00800F55005D0F6CFF5
:104B2800E9FFF7CFEAFFEF50EFEC4BF0010E1A2444
:104B38001E6E000E1B201F6E1EC0F6FF1FC0F7FF63
:104B4800000EF86E0F0EF76403D00800F55005D07C
:104B5800F6CFE9FFF7CFEAFFEF50EFEC4BF0020E8C
:104B68001A241E6E000E1B201F6E1EC0F6FF1FC0EB
:104B7800F7FF000EF86E0F0EF76403D00800F5502B
:104B880005D0F6CFE9FFF7CFEAFFEF50EFEC4BF097
:104B9800030E1A241E6E000E1B201F6E1EC0F6FF89
:104BA8001FC0F7FF000EF86E0F0EF76403D0080061
:104BB800F55005D0F6CFE9FFF7CFEAFFEF50EFEC5D
:104BC8004BF0040E1A241E6E000E1B201F6E1EC012
:104BD800F6FF1FC0F7FF000EF86E0F0EF76403D044
:104BE8000800F55005D0F6CFE9FFF7CFEAFFEF5000
:104BF800EFEC4BF0050E1A241E6E000E1B201F6EE4
:104C08001EC0F6FF1FC0F7FF000EF86E0F0EF76408
:104C180003D00800F55005D0F6CFE9FFF7CFEAFF3B
:104C2800EF50EFEC4BF0F4C1D9FFF5C1DAFFDF50DC
:104C3800EFEC4BF0010120EE01F0F451D926F551CB
:104C4800DA22DF50EFEC4BF0010120EE02F0F451D4
:104C5800D926F551DA22DF50EFEC4BF0010120EEB6
:104C680003F0F451D926F551DA22DF50EFEC4BF07E
:104C7800010120EE04F0F451D926F551DA22DF5073
:104C8800EFEC4BF0010120EE05F0F451D926F55177
:104C9800DA22DF50EFEC4BF01D50EFEC4BF01C50DC
:104CA800EFEC4BF08C860F0E0201A827000EA9230B
:104CB800010E1200000E0001836F02010051011164
:104CC80002110311D8A46BEF26F06DEF26F076EFF2
:104CD80026F0110E4A18D8A474EF26F076EF26F0C5
:104CE80038EF27F000050BE17F0E031901110211BF
:104CF800D8B481EF26F083EF26F038EF27F0462866
:104D08000CE147280AE1482808E14928D8B48FEF80
:104D180026F091EF26F03CEF27F0000E46104B6E80
:104D2800000E47104C6E000E48104D6EFF0E4910D5
:104D38004E6E4B280CE14C280AE14D2808E14E281C
:104D4800D8B4A9EF26F0ABEF26F03CEF27F0000E21
:104D580046104B6E000E47104C6EFF0E48104D6EFD
:104D6800FF0E49104E6E4B280CE14C280AE14D28E5
:104D780008E14E28D8B4C3EF26F0C5EF26F03CEF83
:104D880027F0000E46104B6EFF0E47104C6EFF0EBC
:104D980048104D6EFF0E49104E6E4B280CE14C2802
:104DA8000AE14D2808E14E28D8B4DDEF26F0DFEF00
:104DB80026F03CEF27F0465000194B6E475001197A
:104DC8004C6E485002194D6E495003194E6E0C51E5
:104DD8004B144F6E0D514C14506E0E514D14516EB4
:104DE8000F514E14526E4F50501051105210D8A4FB
:104DF80000EF27F002EF27F00CEF27F046C07DF018
:104E080047C07EF048C07FF049C080F014EF27F01B
:104E180010C27DF011C27EF012C27FF013C280F082
:104E28007DC007F07EC008F07FC009F080C00AF09E
:104E380072EC44F007C081F008C082F00001815193
:104E48008211D8A42AEF27F02CEF27F041EF27F0A2
:104E58007DC022F07EC023F07FC024F080C025F002
:104E68005DEC22F00001836F000183519FEF27F072
:104E7800190E0001816FF80E826F81C01AF082C08E
:104E88001BF0080E1D6E000E1C6E17EC25F00001BD
:104E9800836F8305D8A453EF27F055EF27F038EF39
:104EA80027F0450E096E000E086E68EC4BF0000EF8
:104EB800096E000E086E68EC4BF0000E086E400E8E
:104EC800096E550E0A6EAA0E0B6E3BEC4AF0400EA8
:104ED800E2EC4BF04A50E2EC4BF0000E096E000E8B
:104EE800086E68EC4BF000C208F001C209F002C27B
:104EF8000AF003C20BF03BEC4AF046C008F047C08A
:104F080009F048C00AF049C00BF03BEC4AF000C277
:104F1800BFF201C2C0F202C2C1F203C2C2F246C06D
:104F2800C3F247C0C4F248C0C5F249C0C6F24AC07D
:104F3800BCF238EF27F01200010120EE02F0F05128
:104F4800D926F151DA22DECF0DF0DDCF0EF020EEBA
:104F580004F05550D9265650DA22DECF0FF0DDCFB7
:104F680010F00D500F5C166E0E501058176ED8903A
:104F78001634136E1734146EC3EF27F000F0FF0ECB
:104F880089EC4BF00D6E0DAACCEF27F0CEEF27F091
:104F9800DAEF27F01306D8A0140613501410D8A47B
:104FA800D8EF27F0DAEF27F0C2EF27F0FF0E89ECF1
:104FB8004BF00D6E0DBAE3EF27F0E5EF27F0AEEFFB
:104FC80028F0140E0B6E150E0A6E140E6FEC49F0D5
:104FD800010120EE02F0F051D926F151DA22DECF9C
:104FE8000AF0DDCF0BF0100E6FEC49F0010120EE56
:104FF80002F0F051D926F151DA22DECF0AF0DDCFE6
:105008000BF0120E6FEC49F0FF0E89EC4BF0156EA9
:10501800155010090A6EFF0E99EC4BF0FF0E89EC43
:105028004BF0156E155020090A6EFF0E99EC4BF0E7
:1050380016C007F017C008F0000E0A6E280E096E99
:105048000FEC4BF007C013F008C014F02DEF28F058
:1050580000F0FF0E89EC4BF00D6E0DAA36EF28F02C
:1050680038EF28F044EF28F01306D8A014061350A0
:105078001410D8A442EF28F044EF28F02CEF28F0C1
:10508800FF0E89EC4BF00D6E0DBA4DEF28F04FEF87
:1050980028F0AEEF28F055C018F056C019F00101FD
:1050A80020EE02F0F051D926F151DA22DECF11F0CC
:1050B800DDCF12F09AEF28F020EE02F01850D92632
:1050C8001950DA22DECF0DF0DDCF0EF011500D5E53
:1050D80012500E5A20EE02F01850D9261950DA2232
:1050E8000DC0DEFF0EC0DDFF20EE04F01850D926FB
:1050F8001950DA22DECF0DF0DDCF0EF011500D5E23
:1051080012500E5A20EE04F01850D9261950DA22FF
:105118000DC0DEFF0EC0DDFF20EE08F01850D926C6
:105128001950DA22DECF18F0DDCF19F01850191017
:10513800D8A4A1EF28F0A3EF28F060EF28F0150E0F
:1051480016240A6E140E17200B6E020E6FEC49F02F
:10515800AFEF28F0FF001200FCEC4BF0000E01014D
:10516800FA6F02014A914A954A9956EC46F0000EA8
:1051780002014D6F000E4C6F000EB26FE40E00D0AE
:1051880000D0E82EFCD700D000D08EEC4CF0D00E2A
:10519800156ECA0EE82EFED7152EFCD7FD0E89EC2B
:1051A8004BF0156E15A0DBEF28F0DDEF28F0D2EFFD
:1051B80028F0000E0101F36F000EF26F800E0A6EE8
:1051C800FE0EA8EC4BF0140E0B6E150E0A6E040EB4
:1051D8006FEC49F01F0E0B6E0A68060E6FEC49F073
:1051E800000E0B6E000E0A6E080E6FEC49F0140EDE
:1051F8000B6E130E0A6E0A0E6FEC49F0F2C10AF03C
:10520800F3C10BF0000E6FEC49F0000E0B6E000EB0
:105218000A6E000E6FEC49F0140E0B6E150E0A6E36
:10522800020E6FEC49F0A90E0A6E580E99EC4BF07D
:10523800AAEC4CF007C0F4F108C0F5F10D0E0A6EA7
:10524800800E99EC4BF0230E0A6E820E99EC4BF00F
:10525800400E0A6E830E99EC4BF00C0E0B6E120E7C
:105268000A6E860E6FEC49F0120E0A6E840E99ECE7
:105278004BF0050E0B6EEE0E0A6E8A0E6FEC49F0BF
:10528800F4C1D9FFF5C1DAFFDF500A6EC40E99ECFC
:105298004BF000F0010120EE01F0F451D926F55150
:1052A800DA22DF500A6EC50E99EC4BF000F00101CE
:1052B80020EE02F0F451D926F551DA22DF500A6EB9
:1052C800C20E99EC4BF000F0010120EE03F0F4510E
:1052D800D926F551DA22DF500A6EC30E99EC4BF04D
:1052E80000F0010120EE04F0F451D926F551DA223C
:1052F800DF500A6EC00E99EC4BF000F0010120EE71
:1053080005F0F451D926F551DA22DF500A6EC10EA4
:1053180099EC4BF000F0040E0A6EFF0E99EC4BF07E
:10532800010E0E6E000E0D6E000E71EC48F0010EAF
:105338000E6E000E0D6E100E71EC48F0040E0E6E1F
:10534800720E0D6E140E71EC48F0DB0E0A6EFB0E39
:1053580099EC4BF0000E0B6E120E0A6E120E6FECEB
:1053680049F0BEEC4AF01200000E0001F06F000E8A
:10537800EF6F010E02017027000E71237223732351
:10538800010EA425A46F000EA521A56F040EA55D2E
:10539800D8B0D1EF29F0D3EF29F0D7EF29F0040ED8
:1053A800A56F000EA46FEEC1F3F0EFC1F4F09DEF0E
:1053B8002AF020EE33F0F351D926F451DA22DE50E8
:1053C800DE10D8B4EAEF29F0ECEF29F090EF2AF0DC
:1053D800FF0EEB6FFF0EEC6F20EE33F0F351D92682
:1053E800F451DA22DECFEDF0DDCFEEF0EB51ED2710
:1053F800EC51EE2320EE33F0F351D926F451DA22A2
:10540800EDC0DEFFEEC0DDFF20EE33F0F351D9260C
:10541800F451DA22DE50DE10D8A415EF2AF017EF87
:105428002AF090EF2AF020EE2EF0F351D926F4510D
:10543800DA220D0EDE18D8A424EF2AF026EF2AF07F
:1054480090EF2AF0050EEB6F000EEC6F20EE37F0B0
:10545800F351D926F451DA22DF50ED6FED51EB5DAF
:10546800F16FEC51D8A0EC05F26FF2BF40EF2AF0D3
:105478003EEF2AF044EF2AF0000EF26F000EF16FB3
:10548800F1C0EBF020EE35F0F351D926F451DA22D1
:10549800DECFECF0DDCFEDF0EB2B56EF2AF0D89015
:1054A800EC37ED37EB2F53EF2AF0000120EE33F005
:1054B800F351D926F451DA22ECC0DEFFEDC0DDFF4E
:1054C80020EE37F0F351D926F451DA22DF50D8B460
:1054D80070EF2AF072EF2AF082EF2AF020EE37F010
:1054E800F351D926F451DA2210EE37F0F351E126C0
:1054F800F451E222E750EB6FEB05DF6E20EE2EF061
:10550800F351D926F451DA220C0EDF6EF3C053F0B2
:10551800F4C054F061EC00F0000120EE2FF0F351DC
:10552800D926F451DA22DECFF3F0DDCFF4F0EF4BD9
:10553800F02B0001F351F411D8B4A5EF2AF0A7EF2E
:105548002AF0BBEF2AF0F8C1EBF0EC6BEBBFEC07ED
:10555800EB51EF5DF051800AED6FEC51800AED5987
:10556800D8A0B9EF2AF0BBEF2AF0DDEF29F012003E
:105578000101E5BFC2EF2AF0C4EF2AF0C5EF2AF017
:10558800E693E5BFD2EF2AF0E55106E1E405D8B08D
:10559800D0EF2AF0D2EF2AF0D8EF2AF0000E356EBD
:1055A800010E346EDCEF2AF0E4C134F0E5C135F0C9
:1055B800E2C136F0E3C137F024C038F025C039F035
:1055C80026C03AF027C03BF028C03CF029C03DF087
:1055D8002AC03EF02BC03FF0000E416E1F0E406EF9
:1055E800000E0301706F6FEF2BF04006D8A0410644
:1055F800510E4024D96E030E4120DA6E38C007F0F0
:1056080039C008F03AC009F03BC00AF03CC00BF0C2
:105618003DC00CF03EC00DF03FC00EF00A0E0F6EFC
:10562800000E106E000E116E000E126E000E136E3C
:10563800000E146E000E156E000E166EA5EC3DF0F1
:1056480007C02CF008C02DF009C02EF00AC02FF0BA
:105658000BC030F00CC031F00DC032F00EC033F08A
:105668002C50300FDF6E3406D8A035063606D8A089
:10567800370638C007F039C008F03AC009F03BC017
:105688000AF03CC00BF03DC00CF03EC00DF03FC02E
:105698000EF00A0E0F6E000E106E000E116E000E48
:1056A800126E000E136E000E146E000E156E000EB4
:1056B800166EEFEC3AF007C038F008C039F009C0B0
:1056C8003AF00AC03BF00BC03CF00CC03DF00DC0F6
:1056D8003EF00EC03FF040504110D8B476EF2BF0AA
:1056E80078EF2BF0A9EF2BF0385039103A103B1017
:1056F8003C103D103E103F10D8A485EF2BF087EFEB
:105708002BF0F9EF2AF035BE94EF2BF0355006E177
:105718003404D8B092EF2BF094EF2BF0F9EF2AF085
:1057280037BE9FEF2BF0375008E13604D8A09FEF23
:105738002BF0A1EF2BF0A9EF2BF00101E6B3A7EFB7
:105748002BF0A9EF2BF0F9EF2AF022C017F023C0B5
:1057580018F0510E4024196E030E41201A6E36C0FF
:105768001BF037C01CF072EC3EF017C022F018C0D6
:1057780023F01200000E0B6E140E0101F919D8A4C3
:10578800C8EF2BF0CAEF2BF0B0EF2CF0000E076E2D
:10579800000E086EBAEF2CF00B500A0D000EF32421
:1057A800D96E040EF420DA6EDECF09F0DDCF0AF0F0
:1057B80009B4E1EF2BF0E3EF2BF0AFEF2CF00B5037
:1057C8000A0D000EF324D96E040EF420DA6E000ED2
:1057D800DE6E000EDD6E0B500A0D000EF324D96E3E
:1057E800040EF420DA6EDECF09F0DDCF0AF0040EE5
:1057F8000912000E0A120B500A0D000EF324D96E7E
:10580800040EF420DA6E09C0DEFF0AC0DDFF0B507B
:105818000A0D040EF324D96E040EF420DA6EFF0E7E
:10582800DE6E1F0EDD6E0B500A0D060EF324D96EC8
:10583800040EF420DA6E000EDE6E000EDD6E0B50E4
:105848000A0D080EF324D96E040EF420DA6E55C042
:10585800DEFF56C0DDFF55505610D8B436EF2CF099
:1058680038EF2CF086EF2CF00B500A0D000E096E65
:10587800040E0A6EF3500926F4500A2220EE06F0B0
:105888005550D9265650DA2209C0DEFF0AC0DDFF7E
:1058980020EE04F05550D9265650DA22DECF09F012
:1058A800DDCF0AF0070E0926000E0A220B500A0D5A
:1058B800020EF324D96E040EF420DA6E09C0DEFF5E
:1058C8000AC0DDFF0B500A0D020EF324D96E040E38
:1058D800F420DA6EDECF09F0DDCF0AF009A077EF09
:1058E8002CF079EF2CF09BEF2CF00B500A0D020EE8
:1058F800F324D96E040EF420DA6EDE2A000EDD22BF
:105908009BEF2CF00B500A0D020EF324D96E040EF7
:10591800F420DA6E150EDE6E140EDD6E0B500A0DD5
:10592800000EF3240101F06F040EF420F16F0B5008
:105938000A0D000EF324556E040EF420566E010174
:10594800F92B0B500A0D000EF324076E040EF420F9
:10595800086EBAEF2CF00B2A130E0B64B6EF2CF07E
:10596800B8EF2CF0D0EF2BF0CAEF2BF01200000E9E
:10597800156E0201D3390F0B136E146AD8901336C3
:105988001436D89013361436EC0E1324176EFF0E07
:105998001420186E17501810D8B4D5EF2CF0D7EF84
:1059A8002CF09AEF2DF0020E0101FC6F180EFB6F20
:1059B8000201D4A3E2EF2CF0E4EF2CF094EF2DF0E9
:1059C80085EF2DF020EC4CF0166E6CEF2DF0175093
:1059D8001810D8B4F2EF2CF0F4EF2CF0FEEF2CF006
:1059E80017C00FF018C010F005EC44F0000E186E48
:1059F800000E176E010E156E85EF2DF0185009E197
:105A0800030E175CD8A00BEF2DF00DEF2DF037EF3C
:105A18002DF020EC4CF0166E040E1618D8A417EFD3
:105A28002DF019EF2DF037EF2DF0A9EC4AF008C052
:105A3800FBF109C0FCF1FD0E1724176EFF0E1820AC
:105A4800186EB50E0101FB5D050EFC59D8A02FEFAD
:105A58002DF031EF2DF0FEEF2CF0050EFC6FB40E9B
:105A6800FB6FFEEF2CF0000E186E000E176E000E86
:105A7800156E85EF2DF020EC4CF0166E1706D8A0A9
:105A88001806010E16644BEF2DF04DEF2DF037EF91
:105A98002DF01650FE0F166E1650136E146A135022
:105AA800175C14501858D8A05CEF2DF05EEF2DF05D
:105AB80037EF2DF016C00FF0106A05EC44F01650C1
:105AC800175C176E1850D8A01804186EFEEF2CF04B
:105AD8001650136E146A1450000AD8B476EF2DF0DD
