:040000005FEF00F0BE
:100008005982FACF03F0FBCF04F0D9CF05F0DACF4D
:1000180006F0F2AA12EF00F014EF00F01FEF00F064
:10002800F2A419EF00F01BEF00F01FEF00F0EEEC68
:1000380044F055EF00F0F2AC24EF00F026EF00F0AA
:1000480055EF00F0A3AA2BEF00F02DEF00F043EFDF
:1000580000F0A4AA32EF00F034EF00F043EF00F014
:1000680002D841EF00F00500FA6E02019251FD6ED0
:100078009351FE6EFF6AFA50120055EF00F09DA0F2
:1000880048EF00F04AEF00F055EF00F09EA04FEF68
:1000980000F051EF00F055EF00F083EC45F055EF1C
:1000A80000F006C0DAFF05C0D9FF04C0FBFF03C09B
:1000B800FAFF59921100C4EF3CF0000E0001E66F00
:1000C80020EE2DF05350D9265450DA22DF50EA6F33
:1000D80020EE2EF05350D9265450DA22DF50E96F23
:1000E80053C0D9FF54C0DAFFDECF07F0DDCF08F0E8
:1000F800D8EC47F00009D8B484EF00F086EF00F0A0
:100108007BEF0DF0090E0001E96F16EC49F07BEF6B
:100118000DF020EE02F05350D9265450DA225CC27A
:10012800DEFF5DC2DEFF5EC2DEFF5FC2DEFF20EEE5
:1001380006F05350D9265450DA22ECC1DEFFEDC147
:10014800DDFF20EE14F05350D9265450DA22DE6A2F
:10015800DE6ADE6ADD6A21EEF0F010EE08F0535038
:10016800E1265450E222DECFE6FFDECFE6FFDECF07
:10017800E6FFDECFE6FF20EE08F05350D9265450B4
:10018800DA22DECFD1F0DECFD2F0DECFD3F0DECF71
:10019800D4F0010ED125D56F000ED221D66F000EF6
:1001A800D321D76F000ED421D86F20EE0CF0535016
:1001B800D9265450DA22D5C0DEFFD6C0DEFFD7C01C
:1001C800DEFFD8C0DEFF0101FA510001D26FD16B0A
:1001D80021EEFAF0DECFD3F0DDCFD4F0D4C0D3F0E7
:1001E800D46BFF0ED317000ED417D151D313D251AD
:1001F800D41320EE18F05350D9265450DA22D3C025
:10020800DEFFD4C0DDFF20EE1CF05350D926545039
:10021800DA22F4C2DEFFF5C2DDFF20EE38F05350DB
:10022800D9265450DA22120EDF6E20EE33F05350E6
:10023800D9265450DA22020EDE6E000EDD6E20EE54
:1002480035F05350D9265450DA22020EDE6E000ED5
:10025800DD6E20EE37F05350D9265450DA22030EC3
:10026800DF6E53C084F054C085F016EC16F0030E10
:100278000001EA6FBBEF0DF0000E0001EA6F53C0FA
:1002880007F054C008F0DBEC35F0BBEF0DF0E95196
:10029800D16FD26BD251000AD8B455EF01F0BBEF41
:1002A8000DF0D151000AD8B440EF01F0030AD8B4D8
:1002B8008DEF00F0BBEF0DF0BBEF0DF021EEF0F08D
:1002C80010EE08F05350E1265450E222DECFE6FF4C
:1002D800DECFE6FFDECFE6FFDECFE6FF010E01014F
:1002E800F0250001D16F000E0101F1210001D26F4C
:1002F800000E0101F2210001D36F000E0101F3216C
:100308000001D46F20EE0CF05350D9265450DA2255
:10031800D1C0DEFFD2C0DEFFD3C0DEFFD4C0DEFF17
:100328000101FA510001D26FD16B21EEFAF0DECF54
:10033800D3F0DDCFD4F0D4C0D3F0D46BFF0ED317F5
:10034800000ED417D151D313D251D41320EE18F084
:100358005350D9265450DA22D3C0DEFFD4C0DDFF73
:1003680020EE1CF05350D9265450DA22F4C2DEFF96
:10037800F5C2DDFF20EE33F05350D9265450DA226F
:10038800020EDE6E000EDD6E20EE35F05350D926DB
:100398005450DA22020EDE6E000EDD6E20EE37F0CB
:1003A8005350D9265450DA22030EDF6E20EE38F06F
:1003B8005350D9265450DA22120EDF6E35EF01F071
:1003C80020EE33F05350D9265450DA22000EDE6E58
:1003D800000EDD6E20EE10F05350D9265450DA226C
:1003E800DECFD1F0DECFD2F0DECFD3F0DECFD4F047
:1003F800010ED125D56F000ED221D66F000ED32164
:10040800D76F000ED421D86F0101F4510001D5191E
:1004180013E10101F5510001D6190EE10101F65170
:100428000001D71909E10101F7510001D819D8A431
:1004380020EF02F022EF02F0CBEF02F020EE10F0F6
:100448005350D9265450DA22DECFD1F0DECFD2F085
:10045800DECFD3F0DECFD4F0010ED125D56F000E5C
:10046800D221D66F000ED321D76F000ED421D86FBA
:1004780020EE10F05350D9265450DA22D5C0DEFFB2
:10048800D6C0DEFFD7C0DEFFD8C0DEFF20EE38F0D2
:100498005350D9265450DA22100EDF6E21EEF0F0B8
:1004A80010EE08F05350E1265450E222DECFE6FF6A
:1004B800DECFE6FFDECFE6FFDECFE6FF010E01016D
:1004C800F0250001D16F000E0101F1210001D26F6A
:1004D800000E0101F2210001D36F000E0101F3218A
:1004E8000001D46F20EE0CF05350D9265450DA2274
:1004F800D1C0DEFFD2C0DEFFD3C0DEFFD4C0DEFF36
:100508000101FA510001D26FD16B21EEFAF0DECF72
:10051800D3F0DDCFD4F0D4C0D3F0D46BFF0ED31713
:10052800000ED417D151D313D251D41320EE18F0A2
:100538005350D9265450DA22D3C0DEFFD4C0DDFF91
:1005480020EE1CF05350D9265450DA22F4C2DEFFB4
:10055800F5C2DDFF010ED96F53C084F054C085F099
:1005680016EC16F00001D919D8A4BDEF02F0BFEFC0
:1005780002F0BBEF0DF0040EEA6F20EE39F0535095
:10058800D9265450DA22030EDF6EBBEF0DF021EEB0
:10059800F4F010EE10F05350E1265450E222DECF72
:1005A800E6FFDECFE6FFDECFE6FFDECFE6FF20EE9A
:1005B80038F05350D9265450DA22140EDF6E010E4B
:1005C800DA6F53C084F054C085F016EC16F00001C1
:1005D800DA19D8A4F2EF02F0F4EF02F0BBEF0DF055
:1005E80040EF01F020EE33F05350D9265450DA2270
:1005F800000EDE6E000EDD6E20EE10F05350D92690
:100608005450DA22DECFD1F0DECFD2F0DECFD3F0F5
:10061800DECFD4F0010ED125D56F000ED221D66FD2
:10062800000ED321D76F000ED421D86F0101F451E9
:100638000001D51913E10101F5510001D6190EE1A8
:100648000101F6510001D71909E10101F751000133
:10065800D819D8A432EF03F034EF03F0CCEF03F04D
:1006680020EE10F05350D9265450DA22DECFD1F0C4
:10067800DECFD2F0DECFD3F0DECFD4F0010ED1251D
:10068800D56F000ED221D66F000ED321D76F000E82
:10069800D421D86F20EE10F05350D9265450DA22C6
:1006A800D5C0DEFFD6C0DEFFD7C0DEFFD8C0DEFF74
:1006B80020EE38F05350D9265450DA22100EDF6E4F
:1006C80021EEF0F010EE08F05350E1265450E222EB
:1006D800DECFE6FFDECFE6FFDECFE6FFDECFE6FFCA
:1006E800010E0101F0250001D16F000E0101F12179
:1006F8000001D26F000E0101F2210001D36F000E3C
:100708000101F3210001D46F20EE0CF05350D926DB
:100718005450DA22D1C0DEFFD2C0DEFFD3C0DEFFE4
:10072800D4C0DEFF0101FA510001D26FD16B21EE76
:10073800FAF0DECFD3F0DDCFD4F0D4C0D3F0D46B51
:10074800FF0ED317000ED417D151D313D251D4139F
:1007580020EE18F05350D9265450DA22D3C0DEFFC9
:10076800D4C0DDFF20EE1CF05350D9265450DA22B5
:10077800F4C2DEFFF5C2DDFF040EEA6F20EE39F0A9
:100788005350D9265450DA22030EDF6EBBEF0DF01A
:1007980021EEF4F010EE10F05350E1265450E2220E
:1007A800DECFE6FFDECFE6FFDECFE6FFDECFE6FFF9
:1007B80020EE38F05350D9265450DA22040EDF6E5A
:1007C800010EDB6F53C084F054C085F016EC16F0B0
:1007D8000001DB19D8A4F3EF03F0F5EF03F0BBEF4A
:1007E8000DF040EF01F020EE37F05350D926545069
:1007F800DA22DF50D8B403EF04F005EF04F03EEF3F
:1008080004F0010EDC6F53C084F054C085F016EC80
:1008180016F00001DC19D8A414EF04F016EF04F068
:10082800BBEF0DF020EE38F05350D9265450DA22A1
:10083800DFA421EF04F023EF04F025EF04F040EFEC
:1008480001F020EE38F05350D9265450DA22DFA8B0
:1008580030EF04F032EF04F060EF01F0040EEA6FBD
:1008680020EE39F05350D9265450DA22030EDF6EA9
:10087800BBEF0DF020EE38F05350D9265450DA2251
:10088800040EDF6E010EDD6F53C084F054C085F096
:1008980016EC16F00001DD19D8A455EF04F057EF57
:1008A80004F0BBEF0DF040EF01F0E951D16FD26BCE
:1008B800D251000AD8B463EF04F0BBEF0DF0D15168
:1008C800000AD8B440EF01F0030AD8B462EF01F08F
:1008D800070AD8B4F6EF02F0010AD8B4E4EF01F041
:1008E8000C0AD8B440EF01F0030AD8B440EF01F085
:1008F800060AD8B4F7EF03F0BBEF0DF053C0D9FFE9
:1009080054C0DAFF0101EE51DE1807E1EF51DE189D
:10091800D8A491EF04F093EF04F0BBEF0DF020EEB4
:1009280033F05350D9265450DA22000EDE6E000EF2
:10093800DD6E20EE02F05350D9265450DA2202011F
:100948005C51DE180DE15D51DE180AE15E51DE18DA
:1009580007E15F51DE18D8A4B4EF04F0B6EF04F055
:1009680000EF05F020EE06F05350D9265450DA2255
:100978000101EC51DE1807E1ED51DE18D8A4C7EFEC
:1009880004F0C9EF04F000EF05F020EE10F053502A
:10099800D9265450DA22DECFD1F0DECFD2F0DECF26
:1009A800D3F0DECFD4F0010E0001D125D56F000EB3
:1009B800D221D66F000ED321D76F000ED421D86F65
:1009C8000101F4510001D51913E10101F5510001AC
:1009D800D6190EE10101F6510001D71909E101010B
:1009E800F7510001D819D8A4FCEF04F0FEEF04F089
:1009F80000EF05F0040EEA6F20EE39F05350D926C7
:100A08005450DA22030EDF6EBBEF0DF020EE02F039
:100A18005350D9265450DA2202015C51DE180DE1F8
:100A28005D51DE180AE15E51DE1807E15F51DE18FC
:100A3800D8A421EF05F023EF05F0BBEF0DF020EE71
:100A480006F05350D9265450DA220101EC51DE1831
:100A580007E1ED51DE18D8A434EF05F036EF05F0C4
:100A6800BBEF0DF020EE0CF05350D9265450DA228B
:100A7800F051DE180DE1F151DE180AE1F251DE18ED
:100A880007E1F351DE18D8A44CEF05F04EEF05F05E
:100A9800BBEF0DF020EE10F05350D9265450DA2257
:100AA800DECFD1F0DECFD2F0DECFD3F0DECFD4F080
:100AB800010E0001D125D56F000ED221D66F000E90
:100AC800D321D76F000ED421D86F0101F451000152
:100AD800D51913E10101F5510001D6190EE1010103
:100AE800F6510001D71909E10101F7510001D819A0
:100AF800D8A481EF05F083EF05F0BBEF0DF020EEF1
:100B080010F05350D9265450DA22DECFD1F0DECF80
:100B1800D2F0DECFD3F0DECFD4F0010ED125D56FE1
:100B2800000ED221D66F000ED321D76F000ED4212C
:100B3800D86F20EE10F05350D9265450DA22D5C081
:100B4800DEFFD6C0DEFFD7C0DEFFD8C0DEFF20EE56
:100B580033F05350D9265450DA22000EDE6E000EC0
:100B6800DD6E040EEA6F20EE39F05350D92654504A
:100B7800DA22030EDF6EBBEF0DF020EE33F0535098
:100B8800D9265450DA22000EDE6E000EDD6E20EEFD
:100B980038F05350D9265450DA22010EDF6E20EE79
:100BA80033F05350D9265450DA22020EDE6E000E6E
:100BB800DD6E20EE35F05350D9265450DA22020E5D
:100BC800DE6E000EDD6E20EE37F05350D9265450FD
:100BD800DA22050EDF6E050EEA6F53C084F054C0AA
:100BE80085F016EC16F0BBEF0DF053C0D9FF54C0DA
:100BF800DAFF0101EE51DE1807E1EF51DE18D8A443
:100C080008EF06F00AEF06F0BBEF0DF020EE0CF04F
:100C18005350D9265450DA22F051DE180DE1F15123
:100C2800DE180AE1F251DE1807E1F351DE18D8A404
:100C380020EF06F022EF06F0BBEF0DF020EE02F0F9
:100C48005350D9265450DA22DE6ADE6ADE6ADD6A3B
:100C580020EE06F05350D9265450DA22000EDE6EEC
:100C6800000EDD6E20EE10F05350D9265450DA22D3
:100C7800DE6ADE6ADE6ADD6A20EE14F05350D92699
:100C88005450DA22DE6ADE6ADE6ADD6A20EE08F097
:100C98005350D9265450DA22DE6ADE6ADE6ADD6AEB
:100CA80020EE0CF05350D9265450DA22DE6ADE6A60
:100CB800DE6ADD6A20EE18F05350D9265450DA2245
:100CC800000EDE6E000EDD6E20EE1CF05350D926AD
:100CD8005450DA22B40EDE6E050EDD6E010E0001F0
:100CE800EA6FBBEF0DF020EE37F05350D926545081
:100CF800DA22DF50D8B483EF06F085EF06F087EFED
:100D080006F0F1EF05F020EE38F05350D926545094
:100D1800DA22040EDF6E010EDE6F53C084F054C079
:100D280085F016EC16F00001DE19D8A49EEF06F047
:100D3800A0EF06F0BBEF0DF020EE02F05350D926DD
:100D48005450DA22DE6ADE6ADE6ADD6A20EE06F0D8
:100D58005350D9265450DA22000EDE6E000EDD6E96
:100D680020EE10F05350D9265450DA22DE6ADE6A9B
:100D7800DE6ADD6A20EE14F05350D9265450DA2288
:100D8800DE6ADE6ADE6ADD6A20EE08F05350D92694
:100D98005450DA22DE6ADE6ADE6ADD6A20EE0CF082
:100DA8005350D9265450DA22DE6ADE6ADE6ADD6ADA
:100DB80020EE18F05350D9265450DA22000EDE6E79
:100DC800000EDD6E20EE1CF05350D9265450DA2266
:100DD800B40EDE6E050EDD6E72EF06F0E951D16FCE
:100DE800D26BD251000AD8B4FCEF06F0BBEF0DF07D
:100DF800D151000AD8B4C1EF05F0040AD8B40AEFFB
:100E080005F0010AD8B482EF04F00C0AD8B4F9EF5F
:100E180005F0030AD8B4F9EF05F0060AD8B477EF5D
:100E280006F0BBEF0DF020EE02F05350D9265450D7
:100E3800DA2202015C51DE180DE15D51DE180AE18B
:100E48005E51DE1807E15F51DE18D8A42EEF07F0D7
:100E580030EF07F0BBEF0DF020EE0CF05350D92621
:100E68005450DA220101F051DE180DE1F151DE187B
:100E78000AE1F251DE1807E1F351DE18D8A447EF72
:100E880007F049EF07F0BBEF0DF020EE14F05350D8
:100E9800D9265450DA22F451DE5CF551DE58F65169
:100EA800DE58F751DE58D8B05CEF07F05EEF07F078
:100EB800BBEF0DF020EE10F05350D9265450DA2233
:100EC800DECFD1F0DECFD2F0DECFD3F0DECFD4F05C
:100ED800010E0001D125D56F000ED221D66F000E6C
:100EE800D321D76F000ED421D86F0101F45100012E
:100EF800D55D0101F5510001D6590101F6510001F6
:100F0800D7590101F7510001D859D8A08EEF07F041
:100F180090EF07F060EF01F020EE10F05350D92663
:100F28005450DA22DECFD1F0DDCFD2F00101F451F6
:100F38000001D15DE76F0101F5510001D259E86F59
:100F480020EE25F05350D9265450DA22DECFD1F0C6
:100F5800DDCFD2F0E751D15FE851D25B20EE25F02A
:100F68005350D9265450DA22D1C0DEFFD2C0DDFF5B
:100F780020EE27F05350D9265450DA22DECFD1F094
:100F8800DDCFD2F0E751D127E851D22320EE27F068
:100F98005350D9265450DA22D1C0DEFFD2C0DDFF2B
:100FA80021EEF4F0FF0EDE24D16FFF0EDE20D26FAB
:100FB800FF0EDE20D36FFF0EDE20D46F20EE14F07C
:100FC8005350D9265450DA22D1C0DEFFD2C0DEFFFA
:100FD800D3C0DEFFD4C0DEFF21EEF4F010EE10F037
:100FE8005350E1265450E222DECFE6FFDECFE6FF83
:100FF800DECFE6FFDECFE6FF020196519711D8A4B7
:1010080008EF08F00AEF08F018EF08F020EE10F0EB
:101018005350D9265450DA22DECF58F2DECF59F297
:10102800DECF5AF2DECF5BF220EE27F05350D926FE
:101038005450DA22DE50DE10D8A425EF08F027EF4E
:1010480008F04AEF08F020EE29F05350D926545002
:10105800DA22020EDE18D8A434EF08F036EF08F0D2
:10106800C7EF08F020EE29F05350D9265450DA2261
:10107800000EDF6E20EE33F05350D9265450DA229A
:10108800000EDE6E000EDD6EC7EF08F09651971168
:10109800D8B451EF08F053EF08F077EF08F020EEDE
:1010A80025F05350D9265450DA2294C2DEFF95C257
:1010B800DDFF20EE2AF05350D9265450DA2296C28A
:1010C800DEFF97C2DDFF20EE10F05350D9265450B2
:1010D800DA2258C2DEFF59C2DEFF5AC2DEFF5BC207
:1010E800DEFF87EF08F020EE27F05350D926545042
:1010F800DA2210EE2AF05350E1265450E222DECFD5
:10110800E6FFDDCFE5FF20EE35F05350D9265450E9
:10111800DA22020EDE6E000EDD6E20EE37F053503E
:10112800D9265450DA22050EDF6E53C084F054C01D
:1011380085F016EC16F0020196519711D8B4A7EF76
:1011480008F0A9EF08F0C7EF08F054510101F419AD
:1011580015E1020155510101F51910E1020156513D
:101168000101F6190BE1020157510101F719D8B431
:10117800C0EF08F0C2EF08F0C7EF08F0000E020158
:10118800976F000E966F020198519911D8B4CFEF5E
:1011980008F0D1EF08F060EF01F021EEF0F010EE6A
:1011A80008F05350E1265450E222DECFE6FFDECFAE
:1011B800E6FFDECFE6FFDECFE6FF98C2C5F099C2B4
:1011C800C6F0F7EC31F0BBEF0DF020EE38F05350DD
:1011D800D9265450DA22110EDF6E050EEA6F20EE82
:1011E80033F05350D9265450DA22000EDE6E000E2A
:1011F800DD6E20EE33F05350D9265450DA22020E19
:10120800DE6E000EDD6E20EE35F05350D9265450B8
:10121800DA22020EDE6E000EDD6E20EE37F053503D
:10122800D9265450DA22050EDF6EF1EF05F020EED4
:1012380002F05350D9265450DA2202015C51DE18CC
:101248000DE15D51DE180AE15E51DE1807E15F51DC
:10125800DE18D8A432EF09F034EF09F0BBEF0DF037
:1012680020EE0CF05350D9265450DA220101F051E7
:10127800DE180DE1F151DE180AE1F251DE1807E13E
:10128800F351DE18D8A44BEF09F04DEF09F0BBEF8E
:101298000DF020EE2AF05350D9265450DA22000ED1
:1012A800DE6E000EDD6E21EEF4F010EE10F05350FD
:1012B800E1265450E222DECFE6FFDECFE6FFDECFA6
:1012C800E6FFDECFE6FF20EE0CF05350D92654504F
:1012D800DA22DECFD1F0DECFD2F0DECFD3F0DECF10
:1012E800D4F0010E0001D125D56F000ED221D66FA2
:1012F800000ED321D76F000ED421D86F20EE0CF04A
:101308005350D9265450DA22D5C0DEFFD6C0DEFFAE
:10131800D7C0DEFFD8C0DEFF020198519911D8B4BA
:1013280098EF09F09AEF09F0B0EF09F021EEF0F02C
:1013380010EE08F05350E1265450E222DECFE6FFCB
:10134800DECFE6FFDECFE6FFDECFE6FF98C2C5F0D0
:1013580099C2C6F0F7EC31F020EE39F05350D92697
:101368005450DA22040EDF6E20EE33F05350D926A3
:101378005450DA22020EDE6E000EDD6E20EE35F0DD
:101388005350D9265450DA22020EDE6E000EDD6E5E
:1013980020EE37F05350D9265450DA22050EDF6E6E
:1013A80020EE38F05350D9265450DA22110EDF6E51
:1013B800090E0001EA6FF1EF05F020EE38F0535006
:1013C800D9265450DA22040EDF6E53C084F054C07C
:1013D80085F016EC16F040EF01F020EE37F0535090
:1013E800D9265450DA22DF50D8B4FDEF09F0FFEFC8
:1013F80009F003EF0AF075EC41F0BBEF0DF020EEB9
:1014080038F05350D9265450DA22040EDF6E010EFC
:10141800DF6F53C084F054C085F016EC16F000015D
:10142800DF19D8A41AEF0AF01CEF0AF0BBEF0DF091
:1014380040EF01F0E951D16FD26BD251000AD8B414
:1014480028EF0AF0BBEF0DF0D151000AD8B4E9EF4C
:1014580008F0040AD8B417EF07F0020AD8B4BBEFB3
:101468000DF0010AD8B41BEF09F00E0AD8B4E1EF69
:1014780009F0030AD8B4E1EF09F0060AD8B4F1EF8D
:1014880009F0BBEF0DF020EE38F05350D926545038
:10149800DA22100EDF6E20EE0CF05350D92654508D
:1014A800DA220101F051DE180DE1F151DE180AE1EE
:1014B800F251DE1807E1F351DE18D8A466EF0AF0FE
:1014C80068EF0AF0BBEF0DF020EE2AF05350D92652
:1014D8005450DA22000EDE6E000EDD6E20EE10F0A3
:1014E8005350D9265450DA22DECFD1F0DECFD2F0D5
:1014F800DECFD3F0DECFD4F0010E0001D125D56FB9
:10150800000ED221D66F000ED321D76F000ED42142
:10151800D86F20EE10F05350D9265450DA22D5C097
:10152800DEFFD6C0DEFFD7C0DEFFD8C0DEFF20EE6C
:101538000CF05350D9265450DA22DECFD1F0DECF4A
:10154800D2F0DECFD3F0DECFD4F0010ED125D56FA7
:10155800000ED221D66F000ED321D76F000ED421F2
:10156800D86F20EE0CF05350D9265450DA22D5C04B
:10157800DEFFD6C0DEFFD7C0DEFFD8C0DEFF010E1B
:10158800E06F53C084F054C085F016EC16F00001EB
:10159800E019D8A4D2EF0AF0D4EF0AF0BBEF0DF0AF
:1015A800080EEA6FBBEF0DF020EE33F05350D9264A
:1015B8005450DA22020EDE6E000EDD6E20EE37F099
:1015C8005350D9265450DA22010EDF6E060EEA6F08
:1015D800BBEF0DF020EE38F05350D9265450DA22E4
:1015E800100EDF6E20EE0CF05350D9265450DA223C
:1015F8000101F051DE180DE1F151DE180AE1F25156
:10160800DE1807E1F351DE18D8A40DEF0BF00FEF49
:101618000BF0BBEF0DF020EE2AF05350D9265450B2
:10162800DA22000EDE6E000EDD6E20EE10F0535052
:10163800D9265450DA22DECFD1F0DECFD2F0DECF79
:10164800D3F0DECFD4F0010E0001D125D56F000E06
:10165800D221D66F000ED321D76F000ED421D86FB8
:1016680020EE10F05350D9265450DA22D5C0DEFFB0
:10167800D6C0DEFFD7C0DEFFD8C0DEFF20EE0CF0FC
:101688005350D9265450DA22DECFD1F0DECFD2F033
:10169800DECFD3F0DECFD4F0010ED125D56F000E0A
:1016A800D221D66F000ED321D76F000ED421D86F68
:1016B80020EE0CF05350D9265450DA22D5C0DEFF64
:1016C800D6C0DEFFD7C0DEFFD8C0DEFF010EE16F57
:1016D80053C084F054C085F016EC16F00001E119EF
:1016E800D8A479EF0BF07BEF0BF0BBEF0DF00A0EEF
:1016F800EA6FBBEF0DF020EE37F05350D926545067
:10170800DA22DF50D8B48BEF0BF08DEF0BF08FEFB0
:101718000BF0F1EF05F020EE38F05350D926545075
:10172800DA22040EDF6E010EE26F53C084F054C05B
:1017380085F016EC16F00001E219D8A4A6EF0BF01C
:10174800A8EF0BF0BBEF0DF040EF01F0E951D16FBE
:10175800D26BD251000AD8B4B4EF0BF0BBEF0DF046
:10176800D151040AD8B4D8EF0AF0020AD8B447EF26
:101778000AF0010AD8B4EEEF0AF00B0AD8B47FEFEA
:101788000BF0BBEF0DF020EE38F05350D926545033
:10179800DA22100EDF6E20EE0CF05350D92654508A
:1017A800DA220101F051DE180DE1F151DE180AE1EB
:1017B800F251DE1807E1F351DE18D8A4E6EF0BF07A
:1017C800E8EF0BF0BBEF0DF020EE2AF05350D926CE
:1017D8005450DA22000EDE6E000EDD6E20EE10F0A0
:1017E8005350D9265450DA22DECFD1F0DECFD2F0D2
:1017F800DECFD3F0DECFD4F0010E0001D125D56FB6
:10180800000ED221D66F000ED321D76F000ED4213F
:10181800D86F20EE10F05350D9265450DA22D5C094
:10182800DEFFD6C0DEFFD7C0DEFFD8C0DEFF20EE69
:101838000CF05350D9265450DA22DECFD1F0DECF47
:10184800D2F0DECFD3F0DECFD4F0010ED125D56FA4
:10185800000ED221D66F000ED321D76F000ED421EF
:10186800D86F20EE0CF05350D9265450DA22D5C048
:10187800DEFFD6C0DEFFD7C0DEFFD8C0DEFF010E18
:10188800E36F53C084F054C085F016EC16F00001E5
:10189800E319D8A452EF0CF054EF0CF0BBEF0DF0A5
:1018A8007BEF0BF020EE37F05350D9265450DA2254
:1018B800DF50D8B462EF0CF064EF0CF066EF0CF078
:1018C800F1EF05F020EE38F05350D9265450DA22C3
:1018D800040EDF6E010EE46F53C084F054C085F02F
:1018E80016EC16F00001E419D8A47DEF0CF07FEF98
:1018F8000CF0BBEF0DF040EF01F0E951D16FD26B66
:10190800D251000AD8B48BEF0CF0BBEF0DF0D151D7
:10191800060AD8B4C7EF0BF0010AD8B4C7EF0BF02A
:101928000B0AD8B456EF0CF0BBEF0DF0E951D16FAC
:10193800D26BD251000AD8B4A4EF0CF0BBEF0DF073
:10194800D151040AD8B47BEF0BF0BBEF0DF020EEB9
:1019580002F05350D9265450DA2202015C51DE18A5
:101968000DE15D51DE180AE15E51DE1807E15F51B5
:10197800DE18D8A4C2EF0CF0C4EF0CF0BBEF0DF0EA
:1019880020EE06F05350D9265450DA220101EC51CA
:10199800DE1807E1ED51DE18D8A4D5EF0CF0D7EF2B
:1019A8000CF0BBEF0DF040EF01F020EE37F0535094
:1019B800D9265450DA22DF50D8B4E5EF0CF0E7EF1F
:1019C8000CF0E9EF0CF0F1EF05F020EE38F0535091
:1019D800D9265450DA22040EDF6E010EE56F53C08B
:1019E80084F054C085F016EC16F00001E519D8A46F
:1019F80000EF0DF002EF0DF0BBEF0DF040EF01F03E
:101A0800E951D16FD26BD251000AD8B40EEF0DF064
:101A1800BBEF0DF0D151040AD8B4ABEF0CF0030AB8
:101A2800D8B4ABEF0CF00B0AD8B4D9EF0CF0BBEF7D
:101A38000DF020EE33F05350D9265450DA22020E1E
:101A4800DE6E000EDD6E20EE35F05350D926545070
:101A5800DA22020EDE6E000EDD6E20EE37F05350F5
:101A6800D9265450DA22030EDF6E20EE38F0535098
:101A7800D9265450DA22020EDF6E53C084F054C0C7
:101A880085F016EC16F0020E0001EA6F010EE66F03
:101A9800BBEF0DF020EE02F05350D9265450DA2255
:101AA800DE6ADE6ADE6ADD6A20EE06F05350D92669
:101AB8005450DA22000EDE6E000EDD6E010EEA6F63
:101AC8004AEF0DF0E951D16FD26BD251000AD8B468
:101AD80070EF0DF0BBEF0DF0D151010AD8B41DEF36
:101AE8000DF0030AD8B44EEF0DF0BBEF0DF020EE69
:101AF8002DF05350D9265450DA22DF500001D16F0F
:101B0800D26BD251000AD8B48CEF0DF0BBEF0DF0B8
:101B1800D151000AD8B466EF0DF0010AD8B44BEFE2
:101B280001F0030AD8B459EF04F0010AD8B4F2EF6F
:101B380006F0070AD8B41EEF0AF0010AD8B4AAEFD3
:101B48000BF0030AD8B481EF0CF0010AD8B4BBEF4C
:101B58000DF00F0AD8B49AEF0CF0010AD8B404EFCC
:101B68000DF0030AD8B440EF01F0BBEF0DF020EE02
:101B78002EF05350D9265450DA220D0EDF6E20EE87
:101B88002DF05350D9265450DA22EAC0DFFF000165
:101B9800E65112004BC0D9FF4CC0DAFFDECFF6FF8A
:101BA800DDCFF7FFF86A0800F550250AD8A4DFEF63
:101BB8000DF0E1EF0DF052EF12F04BC0D9FF4CC021
:101BC800DAFFDE2A000EDD22000E0101D86F000EBA
:101BD800D76FD7C1DBF1D8C1DCF1D969DA69000E5A
:101BE8000001716F000E706F46EF0EF00101DB818E
:101BF8004BC0D9FF4CC0DAFFDE2A000EDD2246EFCB
:101C08000EF00101DB83FCEF0DF00101DB85FCEF39
:101C18000DF00101DB87FCEF0DF00101DB89FCEF22
:101C28000DF0000E716F010E706F46EF0EF04BC095
:101C3800D9FF4CC0DAFFDECFF6FFDDCFF7FFF86A39
:101C48000800F550606F616B6151000AD8B42FEF3E
:101C58000EF015EF0EF06051200AD8B40DEF0EF01B
:101C6800030AD8B411EF0EF0080AD8B409EF0EF041
:101C7800060AD8B4FAEF0DF01D0AD8B405EF0EF035
:101C880015EF0EF0000170517111D8B44EEF0EF03F
:101C980050EF0EF01BEF0EF00101DBA156EF0EF036
:101CA80058EF0EF059EF0EF0DB934BC0D9FF4CC044
:101CB800DAFFDECFF6FFDDCFF7FFF86A0800F55050
:101CC8002A0AD8A46AEF0EF06CEF0EF095EF0EF02A
:101CD8004BC0D9FF4CC0DAFFDE2A000EDD224DC012
:101CE800D9FF4EC0DAFFDFCF60F0020EDE26DFCF6D
:101CF80061F0000EDD2260C0D9FF61C0DAFFDECFDF
:101D0800D7F1DDCFD8F1D8BF8EEF0EF08CEF0EF003
:101D1800DAEF0EF0DB81D76DD81FD8B0D82BDAEF09
:101D28000EF04BC0D9FF4CC0DAFFDECF0EF0DDCF8E
:101D38000FF0F1EC2EF00EC0D7F10FC0D8F1ACEFD8
:101D48000EF04BC0D9FF4CC0DAFFDE2A000EDD22B0
:101D5800D00E0001606FFF0E616F4BC0D9FF4CC001
:101D6800DAFFDECFF6FFDDCFF7FFF86A0800F5509F
:101D7800626F636B605162276151632363510AE1AB
:101D88000A0E625DD8A0CBEF0EF0CEEF0EF0010E7A
:101D9800CFEF0EF0000E726F736B72517311D8A4EF
:101DA800D8EF0EF0DAEF0EF0A5EF0EF04BC0D9FF2A
:101DB8004CC0DAFFDECFF6FFDDCFF7FFF86A080088
:101DC800F5502E0AD8A4EBEF0EF0EDEF0EF06EEF03
:101DD8000FF0000E0101DA6F000ED96F4BC0D9FF6A
:101DE8004CC0DAFFDE2A000EDD224BC0D9FF4CC002
:101DF800DAFFDECFF6FFDDCFF7FFF86A0800F5500F
:101E08002A0AD8A40AEF0FF00CEF0FF029EF0FF011
:101E18004BC0D9FF4CC0DAFFDE2A000EDD224DC0D0
:101E2800D9FF4EC0DAFFDFCF60F0020EDE26DFCF2B
:101E380061F0000EDD2260C0D9FF61C0DAFFDECF9D
:101E4800D9F1DDCFDAF16EEF0FF04BC0D9FF4CC0FE
:101E5800DAFFDECF0EF0DDCF0FF0F1EC2EF00EC082
:101E6800D9F10FC0DAF140EF0FF04BC0D9FF4CC0E9
:101E7800DAFFDE2A000EDD22D00E0001606FFF0EB1
:101E8800616F4BC0D9FF4CC0DAFFDECFF6FFDDCF64
:101E9800F7FFF86A0800F550626F636B60516227BC
:101EA8006151632363510AE10A0E625DD8A05FEFB6
:101EB8000FF062EF0FF0010E63EF0FF0000E746F7A
:101EC800756B74517511D8A46CEF0FF06EEF0FF0AD
:101ED80039EF0FF04BC0D9FF4CC0DAFFDECFF6FF69
:101EE800DDCFF7FFF86A0800F550640AD8B47FEF31
:101EF8000FF081EF0FF094EF0FF04BC0D9FF4CC0FB
:101F0800DAFFDECFF6FFDDCFF7FFF86A0800F550FD
:101F1800690AD8A492EF0FF094EF0FF0D5EF0FF005
:101F28004BC0D9FF4CC0DAFFDE2A000EDD224DC0BF
:101F3800D9FF4EC0DAFFDFCF60F0020EDE26DFCF1A
:101F480061F0000EDD2260C0D9FF61C0DAFFDECF8C
:101F580076F0DDCF77F00001000E77BFFF0E786FC7
:101F6800796F7A6F7B6F7C6F7D6F49C022F04AC0B2
:101F780023F076C024F077C025F078C026F079C029
:101F880027F07AC028F07BC029F07CC02AF07DC0F9
:101F98002BF061EC1FF022C049F023C04AF06EEF2D
:101FA80012F04BC0D9FF4CC0DAFFDECF07F0DDCF0F
:101FB80008F0ED0E096EFF0E0A6E000E0C6E020E92
:101FC8000B6EECEC39F007500810D8B4EEEF0FF0B8
:101FD800F0EF0FF00BEF10F04BC0D9FF4CC0DAFF59
:101FE800DECF07F0DDCF08F0F00E096EFF0E0A6EA7
:101FF800000E0C6E020E0B6EECEC39F00750081058
:10200800D8A409EF10F00BEF10F04FEF10F0020E0C
:102018004BC0D9FF4CC0DAFFDE26000EDD224DC0D2
:10202800D9FF4EC0DAFFDFCF60F0040EDE26DFCF27
:1020380061F0000EDD2260C0D9FF61C0DAFFDECF9B
:1020480062F0DECF63F0DECF64F0DECF65F062C011
:1020580066F063C067F064C068F065C069F00001AD
:102068006A6B69BF6A696AC06BF06AC06CF06AC063
:102078006DF066C076F067C077F068C078F069C028
:1020880079F06AC07AF06BC07BF06CC07CF06DC0F0
:102098007DF0B9EF0FF04BC0D9FF4CC0DAFFDECFAF
:1020A800F6FFDDCFF7FFF86A0800F550730AD8A4E9
:1020B80060EF10F062EF10F08DEF10F04BC0D9FF19
:1020C8004CC0DAFFDE2A000EDD224DC0D9FF4EC01B
:1020D800DAFFDFCF60F0020EDE26DFCF61F0000E00
:1020E800DD2260C0D9FF61C0DAFFDECF6EF0DDCF40
:1020F8006FF049C010F04AC011F06EC012F06FC006
:1021080013F022EC2EF010C049F011C04AF06EEF27
:1021180012F04BC0D9FF4CC0DAFFDECFF6FFDDCF9F
:10212800F7FFF86A0800F550750AD8A49EEF10F07A
:10213800A0EF10F0E2EF10F04BC0D9FF4CC0DAFF6F
:10214800DE2A000EDD224DC0D9FF4EC0DAFFDFCFF8
:1021580060F0020EDE26DFCF61F0000EDD2260C0E7
:10216800D9FF61C0DAFFDECF62F0DDCF63F062C075
:102178007FF063C080F00001816B826B836B846B9E
:10218800856B866B49C022F04AC023F07FC024F0DB
:1021980080C025F081C026F082C027F083C028F0D7
:1021A80084C029F085C02AF086C02BF061EC2AF0A3
:1021B80022C049F023C04AF06EEF12F04BC0D9FF9D
:1021C8004CC0DAFFDECF07F0DDCF08F0F30E096E62
:1021D800FF0E0A6E000E0C6E020E0B6EECEC39F060
:1021E80007500810D8A4FBEF10F0FDEF10F02CEF0B
:1021F80011F0020E4BC0D9FF4CC0DAFFDE26000EEC
:10220800DD224DC0D9FF4EC0DAFFDFCF60F0040EEB
:10221800DE26DFCF61F0000EDD2260C0D9FF61C08D
:10222800DAFFDECF62F0DECF63F0DECF64F0DECF20
:1022380065F0000162517F6F6351806F6451816F57
:102248006551826F836B846B856B866BC6EF10F06C
:102258004BC0D9FF4CC0DAFFDECFF6FFDDCFF7FF6A
:10226800F86A0800F550780AD8B43DEF11F03FEF4E
:1022780011F052EF11F04BC0D9FF4CC0DAFFDECF9E
:10228800F6FFDDCFF7FFF86A0800F550580AD8A422
:1022980050EF11F052EF11F0A2EF11F04BC0D9FF3F
:1022A8004CC0DAFFDECFF6FFDDCFF7FFF86A080093
:1022B800F5CF7EF04BC0D9FF4CC0DAFFDE2A000E06
:1022C800DD224DC0D9FF4EC0DAFFDFCF60F0020E2D
:1022D800DE26DFCF61F0000EDD2260C0D9FF61C0CD
:1022E800DAFFDECF62F0DDCF63F062C07FF063C05B
:1022F80080F00001816B826B836B846B856B866BCE
:1023080049C022F04AC023F07FC024F080C025F0E5
:1023180081C026F082C027F083C028F084C029F04D
:1023280085C02AF086C02BF07EC02CF0D3EC20F0BC
:1023380022C049F023C04AF06EEF12F04BC0D9FF1B
:102348004CC0DAFFDECF07F0DDCF08F0F60E096EDD
:10235800FF0E0A6E000E0C6E020E0B6EECEC39F0DE
:1023680007500810D8B4BBEF11F0BDEF11F0D8EF4B
:1023780011F04BC0D9FF4CC0DAFFDECF07F0DDCF3C
:1023880008F0110E096EFF0E0A6E000E0C6E020E9A
:102398000B6EECEC39F007500810D8A4D6EF11F00A
:1023A800D8EF11F01BEF12F04BC0D9FF4CC0DAFF89
:1023B800DECF60F0DDCF61F0010E00016027000E76
:1023C800612360C0F6FF61C0F7FFF86A0800F5CF27
:1023D8007EF0020E4BC0D9FF4CC0DAFFDE26000E9D
:1023E800DD224DC0D9FF4EC0DAFFDFCF60F0040E0A
:1023F800DE26DFCF61F0000EDD2260C0D9FF61C0AC
:10240800DAFFDECF62F0DECF63F0DECF64F0DECF3E
:1024180065F062517F6F6351806F6451816F6551C0
:10242800826F836B846B856B866B84EF11F04BC076
:10243800D9FF4CC0DAFFDECFF6FFDDCFF7FFF86A31
:102448000800F550250AD8A42CEF12F02EEF12F050
:1024580045EF12F04BC0D9FF4CC0DAFFDE2A000E60
:10246800DD22000E086E250E076E49C009F04AC02D
:102478000AF03BEC3BF0000E4A6E010E496E6EEF1F
:1024880012F04BC0D9FF4CC0DAFFDE2A000EDD2265
:10249800000E4A6E000E496E6EEF12F04BC0D9FF67
:1024A8004CC0DAFFDECFF6FFDDCFF7FFF86A080091
:1024B800F550076E086A49C009F04AC00AF03BECBB
:1024C8003BF04BC0D9FF4CC0DAFFDE2A000EDD22FC
:1024D8003FEF12F012006A0E086E000E096E000E31
:1024E8000B6E1C0E0A6EC2EC40F008C060F009C00A
:1024F80061F01C0E000160196111D8A486EF12F07A
:1025080088EF12F015EF16F0000E626F540E686F28
:10251800040E696F6A51236E226A6AC024F06BC088
:1025280025F025C024F0256AFF0E2416000E251676
:10253800225024122350251224042510D8B4A7EFC2
:1025480012F0A9EF12F0ADEF12F015EF16F015EF3B
:1025580016F06C51236E226A20EE6CF0DECF24F068
:10256800DDCF25F025C024F0256AFF0E2416000EC5
:1025780025162250241223502512080E251824103F
:10258800D8B4C9EF12F0CBEF12F0CDEF12F015EF7F
:1025980016F0060E6E19D8B4D4EF12F0D6EF12F07A
:1025A800D8EF12F015EF16F0040E6F19D8B4DFEF5C
:1025B80012F0E1EF12F0E3EF12F015EF16F0080E4B
:1025C800666F20EE06F06851D9266951DA22FF0EAF
:1025D8007815266E000E7915276E000E7A15286E6E
:1025E800000E7B15296E26C029F0286A276A266AFC
:1025F80010EE78F0000EE6142A6EFF0EE6142B6E2D
:10260800000EE6142C6E000EE6142D6E2CC02DF074
:102618002BC02CF02AC02BF02A6A78C02EF079C083
:102628002FF07AC030F07BC031F02FC02EF030C0D0
:102638002FF031C030F0316A000E2E14326EFF0ECA
:102648002F14336E000E3014346E000E3114356EB4
:1026580078C036F079C037F07AC038F07BC039F0EE
:10266800190E3CEF13F0D8903932383237323632FF
:10267800E82E37EF13F0FF0E36143A6E000E3714BB
:102688003B6E000E38143C6E000E39143D6E32500D
:102698003A103E6E33503B103F6E34503C10406E43
:1026A80035503D10416E2A503E10426E2B503F105F
:1026B800436E2C504010446E2D504110456E2650EC
:1026C8004210466E27504310476E28504410486EFB
:1026D80029504510496EDE5046180DE1DE50471866
:1026E8000AE1DE50481807E1DE504918D8A47FEF08
:1026F80013F081EF13F0AAEF13F020EE0AF06851FF
:10270800D9266951DA22DE506C1907E1DE506D19BD
:10271800D8A491EF13F093EF13F0AAEF13F020EE83
:102728000CF06851D9266951DA22000EDF6E20EECE
:1027380072F068C0E1FF69C0E2FF050EDBCFE3FF7E
:10274800E806FCE2010E626FB7EF13F00D0E682782
:10275800000E692366076651D8A4B5EF13F0B7EFEA
:1027680013F0E5EF12F002010051011102110311FB
:10277800D8B4C1EF13F0C3EF13F015EF16F0FF0E46
:1027880000018215226E000E8315236E000E84153B
:10279800246E000E8515256E22C025F0246A236A52
:1027A800226A20EE82F0000EDE14266EFF0EDE1482
:1027B800276E000EDE14286E000EDE14296E28C067
:1027C80029F027C028F026C027F0266A82C02AF000
:1027D80083C02BF084C02CF085C02DF02BC02AF0CC
:1027E8002CC02BF02DC02CF02D6A000E2A142E6E52
:1027F800FF0E2B142F6E000E2C14306E000E2D14AD
:10280800316E82C032F083C033F084C034F085C0AA
:1028180035F0190E15EF14F0D890353234323332C2
:102828003232E82E10EF14F0FF0E3214366E000E1E
:102838003314376E000E3414386E000E3514396EAA
:102848002E5036103A6E2F5037103B6E30503810DD
:102858003C6E315039103D6E26503A103E6E27506E
:102868003B103F6E28503C10406E29503D10416E81
:1028780022503E10426E23503F10436E24504010A9
:10288800446E25504110456E0201005142180DE179
:10289800015143180AE10251441807E10351451850
:1028A800D8A459EF14F05BEF14F015EF16F00001FF
:1028B8006251D8A462EF14F064EF14F043EF15F0FE
:1028C800540E686F040E696F540E646F040E656FC2
:1028D800080E676F20EE0CF06451D9266551DA2294
:1028E80010EE0CF06851E1266951E222DE50E65CF8
:1028F800D8B081EF14F083EF14F087EF14F064C0C0
:1029080068F065C069F00D0E6427000E652367073F
:102918006751D8A492EF14F094EF14F06EEF14F00E
:1029280020EE0CF06851D9266951DA22000EDF6ECC
:1029380020EE72F068C0E1FF69C0E2FF050EDBCF50
:10294800E3FFE806FCE2FF0E7815226E000E79150B
:10295800236E000E7A15246E000E7B15256E22C09C
:1029680025F0246A236A226A20EE78F0000EDE142D
:10297800266EFF0EDE14276E000EDE14286E000E83
:10298800DE14296E28C029F027C028F026C027F0B9
:10299800266A78C02AF079C02BF07AC02CF07BC068
:1029A8002DF02BC02AF02CC02BF02DC02CF02D6A56
:1029B800000E2A142E6EFF0E2B142F6E000E2C14F0
:1029C800306E000E2D14316E78C032F079C033F0BD
:1029D8007AC034F07BC035F0190EF8EF14F0D890B7
:1029E8003532343233323232E82EF3EF14F0FF0E40
:1029F8003214366E000E3314376E000E3414386EEF
:102A0800000E3514396E2E5036103A6E2F5037108E
:102A18003B6E305038103C6E315039103D6E2650A8
:102A28003A103E6E27503B103F6E28503C10406EC7
:102A380029503D10416E22503E10426E23503F10E7
:102A4800436E24504010446E25504110456E20EED0
:102A580006F06851D9266951DA2242C0DEFF43C028
:102A6800DEFF44C0DEFF45C0DEFF20EE0AF06851FD
:102A7800D9266951DA226CC0DEFF6DC0DDFF710511
:102A88007011D8A44AEF15F04CEF15F015EF16F0B9
:102A9800720E1A6E000E1B6E080E1D6E060E1C6E50
:102AA800A0EC23F00001636F6305D8A45EEF15F076
:102AB80060EF15F0ABEF12F020EE72F010EE7CF044
:102AC800050EDBCFE3FFE806FCE2720E076E000E90
:102AD800086EE10E096E020E0A6E000E0C6E060EEE
:102AE8000B6EFFEC43F078C082F079C083F07AC0B7
:102AF80084F07BC085F0FF0E02010015226E000EE7
:102B08000115236E000E0215246E000E0315256EA6
:102B180022C025F0246A236A226A000E0015266E58
:102B2800FF0E0115276E000E0215286E000E031504
:102B3800296E28C029F027C028F026C027F0266A69
:102B480000C22AF001C22BF002C22CF003C22DF001
:102B58002BC02AF02CC02BF02DC02CF02D6A000EB3
:102B68002A142E6EFF0E2B142F6E000E2C14306EAE
:102B7800000E2D14316E00C232F001C233F002C2D1
:102B880034F003C235F0190ECFEF15F0D890353276
:102B9800343233323232E82ECAEF15F0FF0E3214D7
:102BA800366E000E3314376E000E3414386E000E75
:102BB8003514396E2E5036103A6E2F5037103B6E42
:102BC800305038103C6E315039103D6E26503A1056
:102BD8003E6E27503B103F6E28503C10406E2950E7
:102BE8003D10416E22503E100001786F23503F1077
:102BF800796F245040107A6F255041107B6F020E78
:102C0800716F000E706F6A0E086E000E096E000E6E
:102C18000B6E1C0E0A6EE1EC41F083EC38F015EFF8
:102C280016F0120084C0D9FF85C0DAFFDECF86F027
:102C3800DDCF87F000018651896F886B84C0D9FF8A
:102C480085C0DAFFDECF8AF0DDCF8BF08BC08AF04B
:102C58008B6BFF0E8A17000E8B1788518A11B16F84
:102C680089518B11B26F20EE06F08451D926855117
:102C7800DA22DECF86F0DDCF87F08651896F886B48
:102C880020EE06F08451D9268551DA22DECF8AF06B
:102C9800DDCF8BF08BC08AF08B6BFF0E8A17000E8E
:102CA8008B1788518A11B36F89518B11B46F20EE3D
:102CB80010F08451D9268551DA22DECF86F0DECF96
:102CC80087F0DECF88F0DECF89F0FF0E86158A6F99
:102CD800000E87158B6F000E88158C6F000E8915F6
:102CE8008D6F8AC08DF08C6B8B6B8A6B20EE10F029
:102CF8008451D9268551DA22000EDE148E6FFF0E1C
:102D0800DE148F6F000EDE14906F000EDE14916FCC
:102D180090C091F08FC090F08EC08FF08E6B20EE37
:102D280010F08451D9268551DA22DECF92F0DECF19
:102D380093F0DECF94F0DECF95F093C092F094C07C
:102D480093F095C094F0956B000E9215966FFF0E58
:102D58009315976F000E9415986F000E9515996F3F
:102D680020EE10F08451D9268551DA22DECF9AF070
:102D7800DECF9BF0DECF9CF0DECF9DF0190ECAEFC0
:102D880016F0D8909D339C339B339A33E82EC5EFC9
:102D980016F0FF0E9A159E6F000E9B159F6F000E82
:102DA8009C15A06F000E9D15A16F96519E11A26FE4
:102DB80097519F11A36F9851A011A46F9951A11118
:102DC800A56F8E51A211A66F8F51A311A76F9051B5
:102DD800A411A86F9151A511A96F8A51A611B56FB9
:102DE8008B51A711B66F8C51A811B76F8D51A911CE
:102DF800B86F20EE0CF08451D9268551DA22DECF47
:102E080086F0DECF87F0DECF88F0DECF89F0FF0EC8
:102E180086158A6F000E87158B6F000E88158C6FCC
:102E2800000E89158D6F8AC08DF08C6B8B6B8A6B49
:102E380020EE0CF08451D9268551DA22000EDE14DA
:102E48008E6FFF0EDE148F6F000EDE14906F000E73
:102E5800DE14916F90C091F08FC090F08EC08FF00B
:102E68008E6B20EE0CF08451D9268551DA22DECF04
:102E780092F0DECF93F0DECF94F0DECF95F093C0E2
:102E880092F094C093F095C094F0956B000E921553
:102E9800966FFF0E9315976F000E9415986F000E9E
:102EA8009515996F20EE0CF08451D9268551DA22B8
:102EB800DECF9AF0DECF9BF0DECF9CF0DECF9DF028
:102EC800190E6CEF17F0D8909D339C339B339A33CF
:102ED800E82E67EF17F0FF0E9A159E6F000E9B15F0
:102EE8009F6F000E9C15A06F000E9D15A16F965147
:102EF8009E11A26F97519F11A36F9851A011A46FB3
:102F08009951A111A56F8E51A211A66F8F51A311CE
:102F1800A76F9051A411A86F9151A511A96F8A515B
:102F2800A611B96F8B51A711BA6F8C51A811BB6F3D
:102F38008D51A911BC6FBD91F10EBD17BD510F0B7D
:102F48005009BD6F20EE1AF08451D9268551DA2236
:102F5800DECF86F0DDCF87F08651896F886B20EE53
:102F68001AF08451D9268551DA22DECF8AF0DDCFD6
:102F78008BF08BC08AF08B6BFF0E8A17000E8B17B5
:102F880088518A11BF6F89518B11C06F000EC26FB3
:102F9800000EC16F000EC46F000EC36F20EE38F034
:102FA8008451D9268551DA22DF50866F060E86179E
:102FB800D8B4E1EF17F0E3EF17F0EAEF17F0000EDF
:102FC8000101E06F000EDF6FC6EF18F020EE2CF065
:102FD8008451D9268551DA22DE04D8A4F6EF17F0F9
:102FE800F8EF17F0FAEF17F0E3EF17F020EE2AF0FA
:102FF8008451D9268551DA22DECFDFF1DDCFE0F129
:103008000101DF51E011D8B40CEF18F00EEF18F001
:10301800C6EF18F0000120EE18F08451D92685512A
:10302800DA22DE50DE10D8A41CEF18F01EEF18F0DC
:1030380028EF18F020EE18F08451D9268551DA22AD
:10304800010EDE6E000EDD6E20EE18F08451D926DA
:103058008551DA220101DF51DE5CE051DE58D8B03B
:1030680038EF18F03AEF18F045EF18F0000120EEAD
:1030780018F08451D9268551DA22DECFDFF1DDCF71
:10308800E0F1000120EE1CF08451D9268551DA22A6
:103098000101DF51DE5CE051DE58D8B056EF18F080
:1030A80058EF18F063EF18F0000120EE1CF084517F
:1030B800D9268551DA22DECFDFF1DDCFE0F100013C
:1030C80020EE25F08451D9268551DA22DECFAAF0E8
:1030D800DDCFABF020EE25F08451D9268551DA22D8
:1030E800DECF86F0DDCF87F00101DF5100018627B2
:1030F8000101E0510001872320EE25F08451D926F3
:103108008551DA2286C0DEFF87C0DDFF20EE2AF077
:103118008451D9268551DA22DECF86F0DDCF87F0BB
:103128000101DF510001865F0101E0510001875B69
:1031380020EE27F08451D9268551DA2286C0DEFF99
:1031480087C0DDFF20EE27F08451D9268551DA2289
:10315800DE50DE10D8A4B3EF18F0B5EF18F0C6EFC4
:1031680018F020EE38F08451D9268551DA2210EE75
:1031780038F08451E1268551E222E7500809DF6ED4
:10318800C6EF18F0000120EE38F08451D926855199
:10319800DA22DF50BE6F140E0101DF250001AE6F89
:1031A800000E0101E0210001AF6F20EE02F0845112
:1031B800D9268551DA22DECF46F0DECF47F0DECFC2
:1031C80048F0DECF49F0060E4A6EE7EC24F0000125
:1031D800B06FB005D8A4F3EF18F0F5EF18F044EF8E
:1031E80019F0B10E086E000E096E000E0B6E140E6B
:1031F8000A6EE1EC41F00101DF51E011D8B407EFAC
:1032080019F009EF19F013EF19F0AAC008F0ABC0D4
:1032180009F0DFC10AF0E0C10BF0E1EC41F0060E65
:103228000001AE25AC6F000EAF21AD6F000E106E21
:103238001A0E0F6E080EAE25116E000EAF21126E1B
:10324800ACC013F0ADC014F043EC2DF00FC0ACF0DF
:1032580010C0ADF0AC0E0F6E000E106E000E126EA8
:10326800020E116E000E146E320E136E42EC40F018
:10327800AEC021F0AFC022F0CCEC3EF00001B06F40
:10328800B005D8B44AEF19F04CEF19F080EF19F0F7
:10329800120EB019D8B453EF19F055EF19F080EFAA
:1032A80019F020EE37F08451D9268551DA2210EE34
:1032B80037F08451E1268551E222E750866F860572
:1032C800DF6E20EE33F08451D9268551DA22DE50A4
:1032D800DE10D8A472EF19F074EF19F0ACEF19F002
:1032E80020EE33F08451D9268551DA22020EDE6EA3
:1032F800000EDD6EACEF19F020EE10F08451D926E7
:103308008551DA22DECF86F0DECF87F0DECF88F077
:10331800DECF89F00101DF51000186258A6F0101A6
:10332800E051000187218B6F000E88218C6F000E01
:1033380089218D6F20EE10F08451D9268551DA222B
:103348008AC0DEFF8BC0DEFF8CC0DEFF8DC0DEFFD3
:10335800B0511200000E01016A6F000E696F2BEC6C
:1033680045F00101686F68C11BF01C6A000E1E6EF3
:10337800000E1D6ED3EC42F01BC06BF11CC06CF14B
:1033880001016B516C11D8B4CCEF19F0CEEF19F0E4
:10339800D0EF19F0EEEF1CF0AD0E086E020E096EBC
:1033A800000E0B6E140E0A6EC2EC40F00201AD392D
:1033B8000F0B040AD8B4E3EF19F0E5EF19F0E7EFC3
:1033C80019F0EEEF1CF0FF0EBD150101206F000E85
:1033D8000201BE150101216F000E0201BF15010196
:1033E800226F000E0201C0150101236F20C123F1D5
:1033F800226B216B206B22EEBDF0000EDE14246FD1
:10340800FF0EDE14256F000EDE14266F000EDE148C
:10341800276F26C127F125C126F124C125F1246B88
:10342800BDC228F1BEC229F1BFC22AF1C0C22BF128
:1034380029C128F12AC129F12BC12AF12B6B000ED1
:1034480028152C6FFF0E29152D6F000E2A152E6FCB
:10345800000E2B152F6FBDC230F1BEC231F1BFC2B5
:1034680032F1C0C233F1190E3FEF1AF0D89033335E
:10347800323331333033E82E3AEF1AF0FF0E30157D
:10348800346F000E3115356F000E3215366F000E91
:103498003315376F2C513411386F2D513511396F61
:1034A8002E5136113A6F2F5137113B6F2451381175
:1034B8003C6F255139113D6F26513A113E6F275106
:1034C8003B113F6F20513C110201BD6F0101215199
:1034D8003D110201BE6F010122513E110201BF6F71
:1034E800010123513F110201C06FFF0EB9150101FF
:1034F800206F000E0201BA150101216F000E0201B2
:10350800BB150101226F000E0201BC150101236FDA
:1035180020C123F1226B216B206B22EEB9F0000E43
:10352800DE14246FFF0EDE14256F000EDE14266FE6
:10353800000EDE14276F26C127F125C126F124C10C
:1035480025F1246BB9C228F1BAC229F1BBC22AF10C
:10355800BCC22BF129C128F12AC129F12BC12AF1BA
:103568002B6B000E28152C6FFF0E29152D6F000EE2
:103578002A152E6F000E2B152F6FB9C230F1BAC263
:1035880031F1BBC232F1BCC233F1190ED1EF1AF0DE
:10359800D8903333323331333033E82ECCEF1AF04E
:1035A800FF0E3015346F000E3115356F000E3215D1
:1035B800366F000E3315376F2C513411386F2D517B
:1035C8003511396F2E5136113A6F2F5137113B6F24
:1035D800245138113C6F255139113D6F26513A114C
:1035E8003E6F27513B113F6F20513C110201B96FCB
:1035F800010121513D110201BA6F010122513E1111
:103608000201BB6F010123513F110201BC6FB929AF
:103618000AE1BA2908E1BB2906E1BC29D8A417EFB9
:103628001BF019EF1BF01BEF1BF0EEEF1CF0005125
:10363800BD190FE10151BE190CE10251BF1909E191
:103648000351C019D8B42BEF1BF02DEF1BF0DAEFA4
:103658001BF0BD51BE11BF11C011D8B436EF1BF01D
:1036680038EF1BF0DAEF1BF0BD290CE1BE290AE1A7
:10367800BF2908E1C029D8B444EF1BF046EF1BF07E
:10368800DAEF1BF0FF0E00110101206FFF0E02019F
:1036980001110101216FFF0E020102110101226FC8
:1036A800000E020103110101236F0201BD51010146
:1036B800201915E10201BE510101211910E1020191
:1036C800BF51010122190BE10201C0510101231967
:1036D800D8B471EF1BF073EF1BF0DAEF1BF0FF0E9D
:1036E800020100110101206FFF0E02010111010109
:1036F800216F000E020102110101226F000E02016A
:1037080003110101236F0201BD510101201915E1C7
:103718000201BE510101211910E10201BF5101014D
:1037280022190BE10201C05101012319D8B49FEFFE
:103738001BF0A1EF1BF0DAEF1BF0FF0E02010011E6
:103748000101206F020101510101216F02010251A3
:103758000101226F020103510101236F0201BD51D2
:103768000101201915E10201BE510101211910E1E1
:103778000201BF51010122190BE10201C0510101EF
:103788002319D8B4CAEF1BF0CCEF1BF0DAEF1BF00B
:103798000201BD0509E1E00EC019BE11BF11D8A490
:1037A800D8EF1BF0DAEF1BF0EEEF1CF00201AF517F
:1037B8000101216F206B22EEAFF0DECF22F1DDCFC9
:1037C80023F123C122F1236BFF0E2217000E2317CA
:1037D800205122110201AF6F010121512311020171
:1037E800B06FAD510F0B0101206FD8902037D890E2
:1037F8002035686F0201AD510F0B0101206F050ED6
:10380800206109EF1CF00BEF1CF00DEF1CF0EEEF40
:103818001CF00201AD510F0B0101206F050E206550
:1038280018EF1CF01AEF1CF0D7EF1CF0EC0E68250F
:103838000F6E106AFF0E10223EEC41F0D7EF1CF01D
:103848000201BD51BE11BF11C011D8A42EEF1CF04A
:1038580030EF1CF032EF1CF0EEEF1CF00101685164
:103868000201AF5D0101696F0201B051D8A0B00536
:1038780001016A6F69C11BF06AC11CF0000E1E6E5F
:10388800000E1D6ED3EC42F01BC06BF11CC06CF136
:1038980001016B516C11D8A454EF1CF056EF1CF0C9
:1038A8005FEF1CF0AD0E0001956F020E966F7BEC7A
:1038B80037F0EEEF1CF0400E00018D6F010E8E6F99
:1038C800270E8F6FFE0E906F6BC191F06CC192F056
:1038D80085EC43F0EEEF1CF068510201AF5D010189
:1038E800696F0201B051D8A0B00501016A6F69C1C2
:1038F80007F06AC108F074EC39F007C06BF108C032
:103908006CF169C11BF06AC11CF06BC11DF06CC180
:103918001EF0D3EC42F01BC06BF11CC06CF101012E
:103928006B516C11D8A49BEF1CF09DEF1CF0EEEFCF
:103938001CF00201BD290CE1BE290AE1BF2908E1FA
:10394800C029D8B4AAEF1CF0ACEF1CF0EEEF1CF0C5
:10395800BD51BE11BF11C011D8B4B5EF1CF0B7EFFF
:103968001CF0EEEF1CF0B9C264F2BAC265F2BBC239
:1039780066F2BCC267F264C2EBF065C2ECF066C2E4
:10398800EDF067C2EEF069C1EFF06AC1F0F0EFEC5C
:103998001CF0EEEF1CF0AFC20FF0B0C210F03EEC1E
:1039A80041F0EEEF1CF00201B6510101206F216BCE
:1039B8002151000AD8B4E3EF1CF0CFEF1CF02051DE
:1039C800010AD8B424EF1CF0070AD8B470EF1CF031
:1039D800CFEF1CF01200000E0001F16F000E020183
:1039E8005C6F000E5D6F000E5E6F000E5F6F000E65
:1039F800996F000E986FEC0E086E010E096E000E9E
:103A08000B6E140E0A6EC2EC40F0000E536E000EE0
:103A1800546E0101EE51EF11D8B415EF1DF017EFF8
:103A28001DF060EF1FF0EC51ED11D8B41EEF1DF042
:103A380020EF1DF060EF1FF0EC51016F006BECC13F
:103A480002F1EDC103F103C102F1036BFF0E02178E
:103A5800000E031700510211EC6F01510311ED6FB5
:103A6800EE51016F006B21EEEEF0DECF02F1DDCFFB
:103A780003F103C102F1036BFF0E0217000E0317D7
:103A880000510211EE6F01510311EF6FE1C1F2F025
:103A9800E2C1F3F072EF1DF0F2C0D9FFF3C0DAFF14
:103AA800DE50EE1907E1DE50EF19D8A45EEF1DF0E5
:103AB80060EF1DF066EF1DF0F2C053F0F3C054F054
:103AC8008AEF1DF0000120EE2FF0F251D926F351B4
:103AD800DA22DECFF2F0DDCFF3F0F12B0001F25164
:103AE800F311D8B47AEF1DF07CEF1DF08AEF1DF0CA
:103AF800F151800A0101006FEA51800A005DD8A0E7
:103B080088EF1DF08AEF1DF050EF1DF05350541050
:103B1800D8B491EF1DF093EF1DF060EF1FF020EE89
:103B280006F05350D9265450DA220101EC51DE1820
:103B380009E1ED51DE18D8B4A4EF1DF0A6EF1DF091
:103B4800B7EF1DF020EE02F05350D9265450DA2278
:103B5800DE50DE10DE10DE10D8A4B5EF1DF0B7EF92
:103B68001DF060EF1FF0EBC05CF2ECC05DF2EDC041
:103B78005EF2EEC05FF2F8390F0B006F016BD89060
:103B880000370137D8900037013700510001EF5D49
:103B98000201986F010101510001F0590201996F6A
:103BA80060EC2CF0E806D8A4DCEF1DF0DEEF1DF089
:103BB80060EF1FF00101F9A3E4EF1DF0E6EF1DF03F
:103BC80001EF1EF0F9A9EBEF1DF0EDEF1DF0F7EF97
:103BD8001DF020EE2EF05350D9265450DA22050E4F
:103BE800DF6E54EF1EF020EE2EF05350D9265450BD
:103BF800DA22030EDF6E54EF1EF0F9A106EF1EF075
:103C080008EF1EF023EF1EF0F9A90DEF1EF00FEFDD
:103C18001EF019EF1EF020EE2EF05350D926545006
:103C2800DA22070EDF6E54EF1EF020EE2EF053500E
:103C3800D9265450DA22060EDF6E54EF1EF0F9A58D
:103C480028EF1EF02AEF1EF045EF1EF0F9A92FEF1E
:103C58001EF031EF1EF03BEF1EF020EE2EF0535019
:103C6800D9265450DA220A0EDF6E54EF1EF020EEE9
:103C78002EF05350D9265450DA22090EDF6E54EF35
:103C88001EF0F9A94AEF1EF04CEF1EF054EF1EF09B
:103C980020EE2EF05350D9265450DA22040EDF6E4F
:103CA800FF0EF415006F000EF515016F000EF615E6
:103CB800026F000EF715036F00C103F1026B016B71
:103CC800006B21EEF4F0000EDE14046FFF0EDE141C
:103CD800056F000EDE14066F000EDE14076F06C1B6
:103CE80007F105C106F104C105F1046BF4C108F13F
:103CF800F5C109F1F6C10AF1F7C10BF109C108F1E3
:103D08000AC109F10BC10AF10B6B000E08150C6F03
:103D1800FF0E09150D6F000E0A150E6F000E0B151C
:103D28000F6FF4C110F1F5C111F1F6C112F1F7C12D
:103D380013F1190EA5EF1EF0D89013331233113377
:103D48001033E82EA0EF1EF0FF0E1015146F000EB2
:103D58001115156F000E1215166F000E1315176F3B
:103D68000C511411186F0D511511196F0E511611B0
:103D78001A6F0F5117111B6F045118111C6F055141
:103D880019111D6F06511A111E6F07511B111F6F54
:103D980000511C11F46F01511D11F56F02511E11D4
:103DA800F66F03511F11F76FFF0EF015006F000E2D
:103DB800F115016F000EF215026F000EF315036F77
:103DC80000C103F1026B016B006B21EEF0F0000EF5
:103DD800DE14046FFF0EDE14056F000EDE14066F8E
:103DE800000EDE14076F06C107F105C106F104C114
:103DF80005F1046BF0C108F1F1C109F1F2C10AF152
:103E0800F3C10BF109C108F10AC109F10BC10AF1AB
:103E18000B6B000E08150C6FFF0E09150D6F000EC9
:103E28000A150E6F000E0B150F6FF0C110F1F1C1DE
:103E380011F1F2C112F1F3C113F1190E29EF1FF0BC
:103E4800D8901333123311331033E82E24EF1FF0B8
:103E5800FF0E1015146F000E1115156F000E1215B8
:103E6800166F000E1315176F0C511411186F0D51A2
:103E78001511196F0E5116111A6F0F5117111B6F6B
:103E8800045118111C6F055119111D6F06511A1193
:103E98001E6F07511B111F6F00511C11F06F01514C
:103EA8001D11F16F02511E11F26F03511F11F36FB3
:103EB80061EC00F060EF1FF0120024C03CF025C058
:103EC8003DF026C03EF027C03FF028C040F029C092
:103ED80041F02AC042F02BC043F043BE76EF1FF0FA
:103EE80079EF1FF0010E7AEF1FF0000E3A6E3B6A71
:103EF8003A503B10D8B483EF1FF085EF1FF095EFD1
:103F08001FF0431E421E411E401E3F1E3E1E3D1E08
:103F18003C6C000E3D223E223F224022412242229A
:103F280043220101DABF9BEF1FF09DEF1FF09EEFC8
:103F38001FF0DB93DABFABEF1FF0DA5106E1D905CA
:103F4800D8B0A9EF1FF0ABEF1FF0B1EF1FF0000ED4
:103F5800376E010E366EB5EF1FF0D9C136F0DAC1F3
:103F680037F0D7C138F0D8C139F03A503B10D8A44F
:103F7800C0EF1FF0C2EF1FF0C9EF1FF0DBA5C7EFBE
:103F88001FF0C9EF1FF0CCEF1FF03806D8A0390694
:103F9800000E456E1F0E446E000E0301AA6F51EF0E
:103FA80020F04406D8A045068B0E4424D96E030E93
:103FB8004520DA6E3CC007F03DC008F03EC009F06D
:103FC8003FC00AF040C00BF041C00CF042C00DF0F9
:103FD80043C00EF00A0E0F6E000E106E000E116E2A
:103FE800000E126E000E136E000E146E000E156E8B
:103FF800000E166EAFEC32F007C02CF008C02DF0A2
:1040080009C02EF00AC02FF00BC030F00CC031F000
:104018000DC032F00EC033F02CC019F02EC01AF0CB
:10402800AFEC44F01950300FDF6E3606D8A03706D3
:104038003806D8A039063CC007F03DC008F03EC09D
:1040480009F03FC00AF040C00BF041C00CF042C07C
:104058000DF043C00EF00A0E0F6E000E106E000E2B
:10406800116E000E126E000E136E000E146E000E0E
:10407800156E000E166EBEEC2FF007C03CF008C09F
:104088003DF009C03EF00AC03FF00BC040F00CC044
:1040980041F00DC042F00EC043F045BE5CEF20F089
:1040A800455008E14404D8A05CEF20F05EEF20F012
:1040B8008FEF20F03C503D103E103F104010411053
:1040C80042104310D8A46BEF20F06DEF20F0D5EF2D
:1040D8001FF037BE7AEF20F0375006E13604D8B02B
:1040E80078EF20F07AEF20F0D5EF1FF039BE85EF9A
:1040F80020F0395008E13804D8A085EF20F087EF88
:1041080020F08FEF20F00101DBB38DEF20F08FEF6F
:1041180020F0D5EF1FF03A503B10D8A496EF20F0CE
:1041280098EF20F0A0EF20F00101DBA59EEF20F032
:10413800A0EF20F0BEEF20F04406D8A045063A5084
:104148003B10D8A4AAEF20F0ACEF20F0B2EF20F09B
:10415800000E356E2B0E346EB6EF20F0000E356E65
:104168002D0E346E8B0E4424D96E030E4520DA6E64
:1041780034C0DFFF22C017F023C018F08B0E442490
:10418800196E030E45201A6E38C01BF039C01CF09A
:10419800A0EC3BF017C022F018C023F01200010178
:1041A800DABFD9EF20F0DBEF20F0DCEF20F0DB9373
:1041B800DABFE9EF20F0DA5106E1D905D8B0E7EF28
:1041C80020F0E9EF20F0EFEF20F0000E3A6E010E3C
:1041D800396EF3EF20F0D9C139F0DAC13AF0D7C11E
:1041E8003BF0D8C13CF0DBA9FCEF20F0FEEF20F05B
:1041F80002EF21F0FE0E3B26FF0E3C2224C03DF0CC
:1042080025C03EF026C03FF027C040F028C041F04E
:1042180029C042F02AC043F02BC044F0000E466E7D
:104228001F0E456E000E0301AA6FCEEF21F0450662
:10423800D8A046060F0E3D14476E486A48BE2EEFBA
:1042480021F0485009E10A0E475CD8A02EEF21F072
:1042580030EF21F038EF21F0570E4724476E000E5B
:104268004820486E3EEF21F0300E4724476E000E7E
:104278004820486EBF0E2D6EFF0E2E6E2C502F6EEE
:10428800306A2D502F262E50302230500AE11A0E57
:104298002F5CD8A052EF21F055EF21F0010E56EF18
:1042A80021F0000E356E366A35503610D8B45FEFFF
:1042B80021F061EF21F091EF21F09F0E2D6EFF0E9E
:1042C8002E6E200E47102F6E000E4810306E2D50A7
:1042D8002F262E50302230500AE11A0E2F5CD8A01B
:1042E80078EF21F07BEF21F0010E7CEF21F0000E3A
:1042F800376E386A37503810D8B485EF21F087EF19
:1043080021F091EF21F047C00DF048C00EF076EC97
:1043180042F00DC047F00EC048F08B0E4524D96E10
:10432800030E4620DA6E47C0DFFF3906D8A03A06EA
:104338003B06D8A03C063DC02DF03EC02EF03FC045
:104348002FF040C030F041C031F042C032F043C0DD
:1043580033F044C034F0050EBBEF21F0D89034326E
:1043680033323232313230322F322E322D32E82E81
:10437800B2EF21F02DC03DF02EC03EF02FC03FF02F
:1043880030C040F031C041F032C042F033C043F099
:1043980034C044F046BEDAEF21F0465009E1020E7F
:1043A800455CD8A0DAEF21F0DCEF21F00DEF22F028
:1043B8003D503E103F104010411042104310441031
:1043C800D8A4E9EF21F0EBEF21F01BEF21F03ABE82
:1043D800F8EF21F03A5006E13904D8B0F6EF21F0B1
:1043E800F8EF21F01BEF21F03CBE03EF22F03C5028
:1043F80008E13B04D8A003EF22F005EF22F00DEF0F
:1044080022F00101DBB30BEF22F00DEF22F01BEFDE
:1044180021F00101DBA913EF22F015EF22F02BEFB9
:1044280022F04506D8A046068B0E4524D96E030E09
:104438004620DA6E2CC0DFFF4506D8A046068B0E54
:104448004524D96E030E4620DA6E300EDF6E22C088
:1044580017F023C018F08B0E4524196E030E462062
:104468001A6E3BC01BF03CC01CF0A0EC3BF017C020
:1044780022F018C023F01200010E0001626F000E36
:10448800616F000E646F080E636F060E656F040E91
:10449800666F010E686F000E676F690E076E000E7B
:1044A800086EE10E096E020E0A6E000E0C6E060E04
:1044B8000B6EFFEC43F0FF0E02010015266E000E96
:1044C8000115276E000E0215286E000E0315296EC1
:1044D80026C029F0286A276A266A000E00152A6E67
:1044E800FF0E01152B6E000E02152C6E000E031523
:1044F8002D6E2CC02DF02BC02CF02AC02BF02A6A70
:1045080000C22EF001C22FF002C230F003C231F017
:104518002FC02EF030C02FF031C030F0316A000EBD
:104528002E14326EFF0E2F14336E000E3014346EBC
:10453800000E3114356E00C236F001C237F002C2E7
:1045480038F003C239F0190EAFEF22F0D8903932A3
:10455800383237323632E82EAAEF22F0FF0E361400
:104568003A6E000E37143B6E000E38143C6E000E87
:1045780039143D6E32503A103E6E33503B103F6E48
:1045880034503C10406E35503D10416E2A503E105C
:10459800426E2B503F10436E2C504010446E2D50ED
:1045A8004110456E2650421000016F6F275043108E
:1045B800706F28504410716F29504510726FFF0EAC
:1045C8002214266E000E2314276E000E2414286E63
:1045D800000E2514296E26C029F0286A276A266A43
:1045E800000E22142A6EFF0E23142B6E000E2414C4
:1045F8002C6E000E25142D6E2CC02DF02BC02CF027
:104608002AC02BF02A6A22C02EF023C02FF024C023
:1046180030F025C031F02FC02EF030C02FF031C05F
:1046280030F0316A000E2E14326EFF0E2F14336EE6
:10463800000E3014346E000E3114356E22C036F080
:1046480023C037F024C038F025C039F0190E32EFF6
:1046580023F0D8903932383237323632E82E2DEFFF
:1046680023F0FF0E36143A6E000E37143B6E000E20
:1046780038143C6E000E39143D6E32503A103E6EBE
:1046880033503B103F6E34503C10406E35503D1057
:10469800416E2A503E10426E2B503F10436E2C50F4
:1046A8004010446E2D504110456E26504210796FCF
:1046B800275043107A6F285044107B6F29504510BB
:1046C8007C6F000E736F000E746F000E756F000E16
:1046D800766F000E776F000E786FFF0E1A6EFC0E65
:1046E8001B6E080E1D6E060E1C6EA0EC23F000015A
:1046F800606F6005D8A483EF23F085EF23F09EEF69
:1047080023F0610E086E000E096E000E0B6E1C0E73
:104718000A6EE1EC41F083EC38F00001606F60054F
:10472800D8A499EF23F09BEF23F09EEF23F0050E1A
:104738009FEF23F060511200020ECFEC44F00B0EF5
:104748000A5C1A0E0B58D8A0ACEF23F0AEEF23F09A
:10475800CFEF23F0FF0E2DEC48F01E6E1EA6B7EF2C
:1047680023F0B9EF23F0BCEF23F0040EE6EF24F0BA
:1047780046EC27F0020ECFEC44F00B0E0A5C1A0E42
:104788000B58D8A0CAEF23F0CCEF23F0CFEF23F0DB
:10479800030EE6EF24F063EC2BF007C020F008C00E
:1047A80021F020502110D8A4DCEF23F0DEEF23F015
:1047B800E0EF23F0CCEF23F020C0D9FF21C0DAFFCF
:1047C800DECF1EF0DDCF1FF0010E1E12000E1F12ED
:1047D80020C0D9FF21C0DAFF1EC0DEFF1FC0DDFFE9
:1047E80020EE02F02050D9262150DA22DECF0AF03E
:1047F800DDCF0BF0020E2CEC46F0FBEC48F0000E7F
:1048080002019F6F000E9E6F8C967A0E93EC48F013
:104818000201AC5193EC48F01AC0F6FF1BC0F7FF39
:10482800000EF86E0F0EF76403D00800F55005D09F
:10483800F6CFE9FFF7CFEAFFEF5093EC48F0010E0F
:104848001A241E6E000E1B201F6E1EC0F6FF1FC00E
:10485800F7FF000EF86E0F0EF76403D00800F5504E
:1048680005D0F6CFE9FFF7CFEAFFEF5093EC48F019
:10487800020E1A241E6E000E1B201F6E1EC0F6FFAD
:104888001FC0F7FF000EF86E0F0EF76403D0080084
:10489800F55005D0F6CFE9FFF7CFEAFFEF5093ECDC
:1048A80048F0030E1A241E6E000E1B201F6E1EC039
:1048B800F6FF1FC0F7FF000EF86E0F0EF76403D067
:1048C8000800F55005D0F6CFE9FFF7CFEAFFEF5023
:1048D80093EC48F0040E1A241E6E000E1B201F6E67
:1048E8001EC0F6FF1FC0F7FF000EF86E0F0EF7642C
:1048F80003D00800F55005D0F6CFE9FFF7CFEAFF5F
:10490800EF5093EC48F0050E1A241E6E000E1B2083
:104918001F6E1EC0F6FF1FC0F7FF000EF86E0F0EC9
:10492800F76403D00800F55005D0F6CFE9FFF7CFBC
:10493800EAFFEF5093EC48F0E7C1D9FFE8C1DAFF8E
:10494800DF5093EC48F0010120EE01F0E751D92641
:10495800E851DA22DF5093EC48F0010120EE02F032
:10496800E751D926E851DA22DF5093EC48F00101EB
:1049780020EE03F0E751D926E851DA22DF5093EC14
:1049880048F0010120EE04F0E751D926E851DA2277
:10499800DF5093EC48F0010120EE05F0E751D926ED
:1049A800E851DA22DF5093EC48F01D5093EC48F0C0
:1049B8001C5093EC48F08C860F0E02019E27000EC7
:1049C8009F23010E1200000E0001836F02010051A7
:1049D800011102110311D8A4F4EF24F0F6EF24F02A
:1049E800FFEF24F0110E4A18D8A4FDEF24F0FFEFD2
:1049F80024F0C1EF25F000050BE17F0E031901112A
:104A08000211D8B40AEF25F00CEF25F0C1EF25F01C
:104A180046280CE147280AE1482808E14928D8B483
:104A280018EF25F01AEF25F0C5EF25F0000E461017
:104A38004B6E000E47104C6E000E48104D6EFF0E68
:104A480049104E6E4B280CE14C280AE14D2808E12C
:104A58004E28D8B432EF25F034EF25F0C5EF25F015
:104A6800000E46104B6E000E47104C6EFF0E48109D
:104A78004D6EFF0E49104E6E4B280CE14C280AE192
:104A88004D2808E14E28D8B44CEF25F04EEF25F01C
:104A9800C5EF25F0000E46104B6EFF0E47104C6E0A
:104AA800FF0E48104D6EFF0E49104E6E4B280CE15C
:104AB8004C280AE14D2808E14E28D8B466EF25F0C5
:104AC80068EF25F0C5EF25F0465000194B6E4750AA
:104AD80001194C6E485002194D6E495003194E6E1B
:104AE8000C514B144F6E0D514C14506E0E514D1409
:104AF800516E0F514E14526E4F50501051105210AB
:104B0800D8A489EF25F08BEF25F095EF25F046C066
:104B18007DF047C07EF048C07FF049C080F09DEF2F
:104B280025F010C27DF011C27EF012C27FF013C2D0
:104B380080F07DC007F07EC008F07FC009F080C01B
:104B48000AF0ABEC41F007C081F008C082F0000128
:104B580081518211D8A4B3EF25F0B5EF25F0CAEF43
:104B680025F07DC022F07EC023F07FC024F080C0F5
:104B780025F040EC22F00001836F0001835128EFFB
:104B880026F0FF0E0001816FFC0E826F81C01AF0C3
:104B980082C01BF0080E1D6E000E1C6EA0EC23F0E8
:104BA8000001836F8305D8A4DCEF25F0DEEF25F044
:104BB800C1EF25F0450E096E000E086E0CEC48F0AA
:104BC800000E096E000E086E0CEC48F0000E086E20
:104BD800400E096E550E0A6EAA0E0B6EDEEC46F0FC
:104BE800400E86EC48F04A5086EC48F0000E096EFC
:104BF800000E086E0CEC48F000C208F001C209F083
:104C080002C20AF003C20BF0DEEC46F046C008F020
:104C180047C009F048C00AF049C00BF0DEEC46F086
:104C280000C2B9F201C2BAF202C2BBF203C2BCF2BC
:104C380046C0BDF247C0BEF248C0BFF249C0C0F28C
:104C48004AC0B6F2C1EF25F01200170E0E6E030E21
:104C58000F6E62EC46F00001F36F24EF27F0575017
:104C6800D8B439EF26F03BEF26F041EF26F0580E86
:104C7800086EFF0E096E49EC45F0170E0E6E030E16
:104C88000F6E4AEC35F0000E0201A46F45EF27F0D5
:104C98005750D8B452EF26F054EF26F05AEF26F0CA
:104CA800480E086EFF0E096E49EC45F0170E0E6EA1
:104CB800030E0F6E000E116E500E106EC7EC46F00C
:104CC800170E0E6E030E0F6EBF0E106E030E116ED2
:104CD800000E136E140E126ED4EC3DF0170E000188
:104CE800EB6F030EEC6F19EC3FF045EF27F05750D0
:104CF800D8B481EF26F083EF26F089EF26F0A20ED4
:104D0800086EFE0E096E49EC45F0170E0E6E030E86
:104D18000F6E4AEC44F00009D8B495EF26F097EFEF
:104D280026F045EF27F0170E0E6E030E0F6E83EC7C
:104D380040F00EC0F4F00FC0F5F00001F451F51189
:104D4800D8B4A9EF26F0ABEF26F045EF27F0020123
:104D5800A42B170E0E6E030E0F6E21EC3DF00EC045
:104D6800F4F00FC0F5F0F4C0F1F0F5C0F2F0000E69
:104D78000001F66FCBEF26F0BF0EF625D96EDA6A82
:104D8800030EDA22DF50C4EC48F00001F62BF6518E
:104D9800EF6FF06BF151EF5DF251F059D8A0D7EFFA
:104DA80026F0D9EF26F0C0EF26F0170E0E6E030E90
:104DB8000F6EBF0E106E030E116E000E136E140EE2
:104DC800126ED4EC3DF0170E0001C56F030EC66FCE
:104DD800AB0EC76F030EC86FAB0E076E030E086EDF
:104DE800D7EC43F007C0C9F008C0CAF0F2EC36F0BF
:104DF80045EF27F05750D8B404EF27F006EF27F017
:104E080045EF27F0760E086EFF0E096E49EC45F067
:104E180045EF27F05750D8B414EF27F016EF27F0D6
:104E28001CEF27F0C40E086EFF0E096E49EC45F022
:104E3800170E116E030E126E22EC47F045EF27F0A5
:104E4800F351EF6FF06BF051000AD8B42EEF27F052
:104E580045EF27F0EF51000AD8B433EF26F0010AE6
:104E6800D8B44CEF26F0030AD8B4FEEF26F0010AB6
:104E7800D8B47BEF26F0070AD8B40EEF27F045EF39
:104E880027F01200010120EE02F0E351D926E45187
:104E9800DA22DECF0DF0DDCF0EF020EE04F0555013
:104EA800D9265650DA22DECF0FF0DDCF10F00D50A4
:104EB8000F5C166E0E501058176ED8901634136E7D
:104EC8001734146E69EF27F000F0FF0E2DEC48F050
:104ED8000D6E0DAA72EF27F074EF27F080EF27F020
:104EE8001306D8A0140613501410D8A47EEF27F088
:104EF80080EF27F068EF27F0FF0E2DEC48F00D6EDD
:104F08000DBA89EF27F08BEF27F054EF28F0140E35
:104F18000B6E150E0A6E140E2CEC46F0010120EEF5
:104F280002F0E351D926E451DA22DECF0AF0DDCFD0
:104F38000BF0100E2CEC46F0010120EE02F0E351CC
:104F4800D926E451DA22DECF0AF0DDCF0BF0120EBB
:104F58002CEC46F0FF0E2DEC48F0156E155010099C
:104F68000A6EFF0E3DEC48F0FF0E2DEC48F0156E72
:104F7800155020090A6EFF0E3DEC48F016C007F0E8
:104F880017C008F0000E0A6E280E096EB3EC47F041
:104F980007C013F008C014F0D3EF27F000F0FF0E9D
:104FA8002DEC48F00D6E0DAADCEF27F0DEEF27F0B0
:104FB800EAEF27F01306D8A0140613501410D8A44B
:104FC800E8EF27F0EAEF27F0D2EF27F0FF0E2DECFD
:104FD80048F00D6E0DBAF3EF27F0F5EF27F054EF18
:104FE80028F055C018F056C019F0010120EE02F063
:104FF800E351D926E451DA22DECF11F0DDCF12F0E9
:1050080040EF28F020EE02F01850D9261950DA2285
:10501800DECF0DF0DDCF0EF011500D5E12500E5A9E
:1050280020EE02F01850D9261950DA220DC0DEFF02
:105038000EC0DDFF20EE04F01850D9261950DA22F0
:10504800DECF0DF0DDCF0EF011500D5E12500E5A6E
:1050580020EE04F01850D9261950DA220DC0DEFFD0
:105068000EC0DDFF20EE08F01850D9261950DA22BC
:10507800DECF18F0DDCF19F018501910D8A447EF7B
:1050880028F049EF28F006EF28F0150E16240A6ECE
:10509800140E17200B6E020E2CEC46F055EF28F07C
:1050A800FF001200A0EC48F0000E0201AC6F3A912C
:1050B8003A953A992FEC43F0000E02013D6F000E2D
:1050C8003C6F000EAB6FE40E00D000D0E82EFCD78A
:1050D80000D000D00AEC49F0D00E156ECA0EE82EAA
:1050E800FED7152EFCD7FD0E2DEC48F0156E15A039
:1050F80080EF28F082EF28F077EF28F0000E01010A
:10510800E66F000EE56F800E0A6EFE0E4CEC48F05E
:10511800140E0B6E150E0A6E040E2CEC46F01F0EC4
:105128000B6E0A68060E2CEC46F0000E0B6E000E95
:105138000A6E080E2CEC46F0140E0B6E130E0A6E57
:105148000A0E2CEC46F0E5C10AF0E6C10BF0000EA1
:105158002CEC46F0000E0B6E000E0A6E000E2CECC6
:1051680046F0140E0B6E150E0A6E020E2CEC46F06D
:10517800A90E0A6E580E3DEC48F026EC49F007C01F
:10518800E7F108C0E8F10D0E0A6E800E3DEC48F01C
:10519800230E0A6E820E3DEC48F0400E0A6E830E16
:1051A8003DEC48F00C0E0B6E120E0A6E860E2CECBF
:1051B80046F0120E0A6E840E3DEC48F0050E0B6E9A
:1051C800EE0E0A6E8A0E2CEC46F0E7C1D9FFE8C154
:1051D800DAFFDF500A6EC40E3DEC48F000F0010122
:1051E80020EE01F0E751D926E851DA22DF500A6EA5
:1051F800C50E3DEC48F000F0010120EE02F0E75149
:10520800D926E851DA22DF500A6EC20E3DEC48F08A
:1052180000F0010120EE03F0E751D926E851DA2227
:10522800DF500A6EC30E3DEC48F000F0010120EE9D
:1052380004F0E751D926E851DA22DF500A6EC00E91
:105248003DEC48F000F0010120EE05F0E751D926C9
:10525800E851DA22DF500A6EC10E3DEC48F000F04A
:10526800040E0A6EFF0E3DEC48F0010E0E6E000EA5
:105278000D6E000E66EC45F0010E0E6E000E0D6E02
:10528800100E66EC45F0040E0E6E720E0D6E140EC6
:1052980066EC45F0DB0E0A6EFB0E3DEC48F0000EA6
:1052A8000B6E120E0A6E120E2CEC46F076EC47F0DE
:1052B8001200000E0001F06F000EEF6F010E0201E8
:1052C8006027000E612362236323010E9A259A6FDB
:1052D800000E9B219B6F040E9B5DD8B076EF29F0E2
:1052E80078EF29F07CEF29F0040E9B6F000E9A6F7F
:1052F800E1C1F3F0E2C1F4F042EF2AF020EE33F01E
:10530800F351D926F451DA22DE50DE10D8B48FEFEB
:1053180029F091EF29F035EF2AF0FF0EEB6FFF0E21
:10532800EC6F20EE33F0F351D926F451DA22DECFB8
:10533800EDF0DDCFEEF0EB51ED27EC51EE2320EE52
:1053480033F0F351D926F451DA22EDC0DEFFEEC076
:10535800DDFF20EE33F0F351D926F451DA22DE5086
:10536800DE10D8A4BAEF29F0BCEF29F035EF2AF007
:1053780020EE2EF0F351D926F451DA220D0EDE1864
:10538800D8A4C9EF29F0CBEF29F035EF2AF0050EA4
:10539800EB6F000EEC6F20EE37F0F351D926F45185
:1053A800DA22DF50ED6FED51EB5DF16FEC51D8A0D3
:1053B800EC05F26FF2BFE5EF29F0E3EF29F0E9EF32
:1053C80029F0000EF26F000EF16FF1C0EBF020EE45
:1053D80035F0F351D926F451DA22DECFECF0DDCFE7
:1053E800EDF0EB2BFBEF29F0D890EC37ED37EB2FF6
:1053F800F8EF29F0000120EE33F0F351D926F451EB
:10540800DA22ECC0DEFFEDC0DDFF20EE37F0F3510D
:10541800D926F451DA22DF50D8B415EF2AF017EF65
:105428002AF027EF2AF020EE37F0F351D926F4516D
:10543800DA2210EE37F0F351E126F451E222E75078
:10544800EB6FEB05DF6E20EE2EF0F351D926F45109
:10545800DA220C0EDF6EF3C053F0F4C054F061ECA6
:1054680000F0000120EE2FF0F351D926F451DA2292
:10547800DECFF3F0DDCFF4F0EF4BF02B0001F3516A
:10548800F411D8B44AEF2AF04CEF2AF060EF2AF072
:10549800EAC1EBF0EC6BEBBFEC07EB51EF5DF051C1
:1054A800800AED6FEC51800AED59D8A05EEF2AF022
:1054B80060EF2AF082EF29F012000101DABF67EFEE
:1054C8002AF069EF2AF06AEF2AF0DB93DABF77EF68
:1054D8002AF0DA5106E1D905D8B075EF2AF077EF4E
:1054E8002AF07DEF2AF0000E356E010E346E81EF42
:1054F8002AF0D9C134F0DAC135F0D7C136F0D8C1B5
:1055080037F024C038F025C039F026C03AF027C05B
:105518003BF028C03CF029C03DF02AC03EF02BC02B
:105528003FF0000E416E1F0E406E000E0301AA6F81
:1055380014EF2BF04006D8A041068B0E4024D96EFC
:10554800030E4120DA6E38C007F039C008F03AC0BF
:1055580009F03BC00AF03CC00BF03DC00CF03EC067
:105568000DF03FC00EF00A0E0F6E000E106E000E0A
:10557800116E000E126E000E136E000E146E000EE9
:10558800156E000E166ED3EC3AF007C02CF008C06A
:105598002DF009C02EF00AC02FF00BC030F00CC05F
:1055A80031F00DC032F00EC033F02C50300FDF6EEA
:1055B8003406D8A035063606D8A0370638C007F016
:1055C80039C008F03AC009F03BC00AF03CC00BF003
:1055D8003DC00CF03EC00DF03FC00EF00A0E0F6E3D
:1055E800000E106E000E116E000E126E000E136E7D
:1055F800000E146E000E156E000E166EFCEC38F0E0
:1056080007C038F008C039F009C03AF00AC03BF0CA
:105618000BC03CF00CC03DF00DC03EF00EC03FF09A
:1056280040504110D8B41BEF2BF01DEF2BF04EEF7C
:105638002BF0385039103A103B103C103D103E10FA
:105648003F10D8A42AEF2BF02CEF2BF09EEF2AF076
:1056580035BE39EF2BF0355006E13404D8B037EFBA
:105668002BF039EF2BF09EEF2AF037BE44EF2BF0EA
:10567800375008E13604D8A044EF2BF046EF2BF062
:105688004EEF2BF00101DBB34CEF2BF04EEF2BF07C
:105698009EEF2AF022C017F023C018F08B0E40248A
:1056A800196E030E41201A6E36C01BF037C01CF06D
:1056B800A0EC3BF017C022F018C023F01200000E37
:1056C8000B6E140E0101EB19D8A46DEF2BF06FEFE0
:1056D8002BF055EF2CF0000E076E000E086E5FEFF2
:1056E8002CF00B500A0D000EF324D96E050EF42091
:1056F800DA6EDECF09F0DDCF0AF009B486EF2BF0C1
:1057080088EF2BF054EF2CF00B500A0D000EF32409
:10571800D96E050EF420DA6E000EDE6E000EDD6E18
:105728000B500A0D000EF324D96E050EF420DA6E24
:10573800DECF09F0DDCF0AF0040E0912000E0A12BE
:105748000B500A0D000EF324D96E050EF420DA6E04
:1057580009C0DEFF0AC0DDFF0B500A0D040EF3245A
:10576800D96E050EF420DA6EFF0EDE6E1F0EDD6EAA
:105778000B500A0D060EF324D96E050EF420DA6ECE
:10578800000EDE6E000EDD6E0B500A0D080EF324BF
:10579800D96E050EF420DA6E55C0DEFF56C0DDFF67
:1057A80055505610D8B4DBEF2BF0DDEF2BF02BEF74
:1057B8002CF00B500A0D000E096E050E0A6EF35000
:1057C8000926F4500A2220EE06F05550D9265650E4
:1057D800DA2209C0DEFF0AC0DDFF20EE04F05550D2
:1057E800D9265650DA22DECF09F0DDCF0AF0070EAF
:1057F8000926000E0A220B500A0D020EF324D96E58
:10580800050EF420DA6E09C0DEFF0AC0DDFF0B507A
:105818000A0D020EF324D96E050EF420DA6EDECFDF
:1058280009F0DDCF0AF009A01CEF2CF01EEF2CF0D8
:1058380040EF2CF00B500A0D020EF324D96E050E22
:10584800F420DA6EDE2A000EDD2240EF2CF00B5039
:105858000A0D020EF324D96E050EF420DA6E150E29
:10586800DE6E140EDD6E0B500A0D000EF3240101DE
:10587800E36F050EF420E46F0B500A0D000EF324BD
:10588800556E050EF420566E0101EB2B0B500A0DD8
:10589800000EF324076E050EF420086E5FEF2CF05F
:1058A8000B2A130E0B645BEF2CF05DEF2CF075EFF9
:1058B8002BF06FEF2BF01200000E156E0101F83976
:1058C8000F0B136E146AD89013361436D89013360B
:1058D8001436EC0E1324176EFF0E1420186E175092
:1058E8001810D8B47AEF2CF07CEF2CF03FEF2DF0A5
:1058F800020E0201F56F180EF46F0101F9A387EF8C
:105908002CF089EF2CF039EF2DF02AEF2DF0CFECA9
:1059180048F0166E11EF2DF017501810D8B497EF05
:105928002CF099EF2CF0A3EF2CF017C00FF018C053
:1059380010F03EEC41F0000E186E000E176E010ECE
:10594800156E2AEF2DF0185009E1030E175CD8A048
:10595800B0EF2CF0B2EF2CF0DCEF2CF0CFEC48F0ED
:10596800166E040E1618D8A4BCEF2CF0BEEF2CF05F
:10597800DCEF2CF061EC47F008C0F4F209C0F5F256
:10598800FD0E1724176EFF0E1820186EB50E0201B3
:10599800F45D050EF559D8A0D4EF2CF0D6EF2CF015
:1059A800A3EF2CF0050EF56FB40EF46FA3EF2CF0F7
:1059B800000E186E000E176E000E156E2AEF2DF0F1
:1059C800CFEC48F0166E1706D8A01806010E16641C
:1059D800F0EF2CF0F2EF2CF0DCEF2CF01650FE0F6D
:1059E800166E1650136E146A1350175C145018581C
:1059F800D8A001EF2DF003EF2DF0DCEF2CF016C04E
:105A08000FF0106A3EEC41F01650175C176E1850F4
:105A1800D8A01804186EA3EF2CF01650136E146A51
:105A28001450000AD8B41BEF2DF0E4EF2CF01350FB
:105A3800000AD8B490EF2CF0010AD8B42AEF2DF060
:105A4800030AD8B4A7EF2CF0E4EF2CF01706D8A07F
:105A58001806172806E11828D8A435EF2DF037EFD7
:105A68002DF08BEF2CF041EF2DF017C00FF018C080
:105A780010F03EEC41F0010E156E155012000F4A61
:105A8800102AFF0E2DEC48F0156E15BA4EEF2DF0CA
:105A980050EF2DF045EF2DF020EE02F05550D926AD
:105AA8005650DA22DECF15F0DDCF16F00F50152450
:105AB8000A6E105016200B6E100E2CEC46F020EEDD
:105AC80002F05550D9265650DA22DECF15F0DDCF38
:105AD80016F011501526125016220F501526105088
